:020000040800F2
:10000000002000200D0100084D0100084D010008EE
:100010004D0100084D0100084D01000800000000DE
:100020000000000000000000000000004D0100087A
:100030004D010008000000004D0100084D010008BE
:10004000B5060008B9060008BD060008C10600088C
:10005000C5060008C9060008CD060008D10600083C
:10006000D5060008D9060008DD060008E1060008EC
:10007000E5060008E9060008ED060008F10600089C
:10008000F5060008F9060008FD0600084D01000805
:100090004D0100084D0100084D010008010700084E
:1000A00005070008090700080D07000811070008E8
:1000B00015070008190700081D0700082107000898
:1000C00025070008290700082D0700083107000848
:1000D00035070008390700083D07000841070008F8
:1000E00045070008490700084D0700080000000008
:1000F0000000000000000000000000000000000000
:0C01000000000000000000005FF808F1A3
:10010C00002103E0094B5B58435004310848094B6C
:10011C0042189A42F6D3084A02E0002342F8043B04
:10012C00064B9A42F9D300F037FA70478C0E000850
:10013C000000002000000020000000201000002023
:10014C00FEE70000F8B506460F464FF4A840C4F28F
:10015C0000004FF0010100F079FD4FF4A845C4F206
:10016C0000054FF00104C1F200042846214600F0BE
:10017C00B7FD0028F9D04FF4A840C4F200004FF0AE
:10018C003C014FF0000200F097FD4FF4A845C4F27B
:10019C0000054FF08204C0F207042846214600F007
:1001AC0093FD0028F9D04FF4A840C4F2000031466A
:1001BC0000F07CFD4FF4A845C4F200054FF0840418
:1001CC00C0F207042846214600F07EFD0028F9D035
:1001DC004FF4A840C4F20000394600F067FD4FF41C
:1001EC00A845C4F200054FF08404C0F20704284669
:1001FC00214600F069FD0028F9D04FF4A840C4F264
:10020C0000004FF0010100F031FD4FF4A845C4F29D
:10021C0000054FF01004C1F200042846214600F0FE
:10022C005FFD0028F9D1F8BD2DE9F04107464FF4E8
:10023C00A845C4F200054FF04004C0F20304284660
:10024C00214600F041FD0028F9D04FF4A840C4F23B
:10025C00000000F02DFD80464FF4A845C4F20005C7
:10026C004FF04004C0F203042846214600F02CFD58
:10027C000028F9D04FF4A840C4F2000000F018FD9B
:10028C0006461FB34FF4A844C4F20004238823F499
:10029C0000634FEA03434FEA1343238020464FF099
:1002AC00000100F0F3FC20464FF0010100F0DEFCF1
:1002BC004FF4A845C4F200054FF01004C1F200043D
:1002CC002846214600F00CFD0028F9D146EA082604
:1002DC00B0B2BDE8F08100BF38B54FF4A840C4F20D
:1002EC0000004FF0010100F0D1FC4FF4A844C4F21F
:1002FC0000044FF400352046294600F0F1FC00289C
:10030C00F9D14FF002004FF00101FFF71BFF4FF442
:10031C004062C4F20102936813F0200FFBD04FF43B
:10032C00A840C4F200004FF0010100F08FFC4FF424
:10033C00A845C4F200054FF00104C1F200042846A0
:10034C00214600F0CDFC0028F9D04FF4A840C4F2AF
:10035C0000004FF03C014FF0000200F0ADFC4FF4F8
:10036C00A845C4F200054FF08204C0F207042846E9
:10037C00214600F0A9FC0028F9D04FF4A840C4F2A3
:10038C0000004FF0030100F091FC4FF4A845C4F2BB
:10039C0000054FF08004C1F200042846214600F00D
:1003AC009FFC0028F9D04FF4A840C4F200004FF095
:1003BC00010100F04BFC4FF4A845C4F200054FF0CE
:1003CC000104C1F200042846214600F089FC0028F3
:1003DC00F9D04FF4A840C4F200004FF03C014FF0AC
:1003EC00010200F069FC4FF4A845C4F200054FF07F
:1003FC000204C0F203042846214600F065FC0028E4
:10040C00F9D04FF00000FFF70FFF40F20004C2F2EA
:10041C00000460804FF00000FFF706FFE0804FF013
:10042C000100FFF701FFA080A36803F10103A360A3
:10043C0038BD00BF82B04FF014030193019B03F150
:10044C00FF320192002BF9D102B0704710B500F0C9
:10045C0003FA4FF4803000F021FA00F049FB40F22F
:10046C000C03C2F200031870012830D14FF01000B9
:10047C0000F076F94FF0000000F064F94FF0000046
:10048C0000F058FA4FF0000000F06CFA4FF000004A
:10049C0000F05CFA4FF0000000F070FA4FF480307E
:1004AC004FF4802100F020FA4FF0010000F028FA00
:1004BC004FF03904204600F001FB0028FAD04FF031
:1004CC00020000F023FA00F02DFA0828FBD14FF0BF
:1004DC0008004FF0010100F0CDFA4FF400104FF07E
:1004EC00010100F0D9FA10BD10B582B04FF0C00375
:1004FC00ADF804304FF003038DF806304FF01C03B9
:10050C008DF807304FF44064C4F20104204601A971
:10051C0000F034F94FF02003ADF804304FF0040331
:10052C008DF8073020460DEB030100F027F902B0DF
:10053C0010BD00BF00B585B04FF4A840C4F2000058
:10054C004FF0010100F072FB4FF00003ADF80030EA
:10055C004BF6FF72ADF80220ADF804304FF4806317
:10056C00ADF806304FF48040ADF8080048F2A063B7
:10057C00C0F2010303934FEA004040F4A8406946DF
:10058C0000F0D2FA05B000BD08B54FF000604FF096
:10059C00000100F055F908BD70B582B0FFF756FFA9
:1005AC00FFF7F2FFFFF7A0FFFFF7C4FF48F2A063CD
:1005BC00C0F20103019301E0FFF73CFF019B03F143
:1005CC00FF320192002BF7D14FF000004FF0600189
:1005DC00FFF7B8FD4FF001004FF00001FFF7B2FD3F
:1005EC004FF6D033C0F20103019301E0FFF722FF75
:1005FC00019B03F1FF320192002BF7D140F2000472
:10060C00C2F200044FF000054FF47A7623889BB2B7
:10061C00002BFBD023889BB203F1FF33032B41D873
:10062C00DFE803F002051316FFF756FE3AE0284602
:10063C004FF06101FFF786FD4FF001004FF06001B4
:10064C00FFF780FDFFF748FE2CE0FFF745FE29E0A1
:10065C0028464FF06001FFF775FD4FF00100294669
:10066C00FFF770FD0196019B03F1FF3201923BB144
:10067C00FFF7E0FE019B03F1FF320192002BF7D153
:10068C00FFF72AFE0196019B03F1FF3201923BB169
:10069C00FFF7D0FE019B03F1FF320192002BF7D143
:1006AC00FFF71AFE2580B1E7704700BF704700BF07
:1006BC00704700BF704700BF704700BF704700BF56
:1006CC00704700BF704700BF704700BF704700BF46
:1006DC00704700BF704700BF704700BF704700BF36
:1006EC00704700BF704700BF704700BF704700BF26
:1006FC00704700BF704700BF704700BF704700BF16
:10070C00704700BF704700BF704700BF704700BF05
:10071C00704700BF704700BF704700BF704700BFF5
:10072C00704700BF704700BF704700BF704700BFE5
:10073C00704700BF704700BF704700BF704700BFD5
:10074C00704700BF4FF40053C4F202031A6802F062
:10075C0038021A601A6840EA02021A60704700BF39
:10076C004FF40053C4F202031A6822F010021A600C
:10077C001A6840EA02021A60704700BF2DE9F003C4
:10078C00CB7803F00F0513F0100F1CBF8B781D43B3
:10079C000B7833B3D0F800C04FF000034FF00106D4
:1007AC004FF00F0806FA03F20C8802EA0404944294
:1007BC0011D14FEA830708FA07F92CEA090C05FA5C
:1007CC0007F74CEA070CCF78282F08BF446102D0FA
:1007DC00482F08BF026103F10103082BE2D1C0F8D6
:1007EC0000C00B88FF2B28D9D0F804C04FF00003B1
:1007FC004FF001064FF00F0803F1080206FA02F25F
:10080C000C8802EA0404944211D14FEA830708FAD7
:10081C0007F92CEA090C05FA07F74CEA070CCF7814
:10082C00282F08BF4461CC78482C08BF026103F123
:10083C000103082BE0D1C0F804C0BDE8F0037047F9
:10084C0021F0604121F07F0101434FF46D43CEF262
:10085C0000039960704700BF4FF48053C4F2020349
:10086C001A6842F001021A6059684FF00002CFF684
:10087C00FF0201EA02025A601A6822F0847222F422
:10088C0080321A601A6822F480221A605A6822F4A4
:10089C00FE025A604FF000029A6070474FF480538A
:1008AC00C4F202031A6822F480321A601A6822F425
:1008BC0080221A60B0F5803F03D0B0F5802F11D1A3
:1008CC0008E04FF48053C4F202031A6842F48032F9
:1008DC001A6070474FF48053C4F202031A6842F452
:1008EC00A0221A60704700BF4FF48053C4F2020379
:1008FC005A6822F47C1240EA02020A435A6070479A
:10090C004FF06003C4F24223186070474FF48053D9
:10091C00C4F202035A6822F0030240EA02025A604F
:10092C00704700BF4FF48053C4F20203586800F0C4
:10093C000C0070474FF48053C4F202035A6822F043
:10094C00F00240EA02025A60704700BF4FF4805335
:10095C00C4F202035A6822F4E06240EA02025A60CE
:10096C00704700BF4FF48053C4F202035A6822F45C
:10097C00605242EAC0025A60704700BF4FF4805385
:10098C00C4F202035A6822F4404240EA02025A605E
:10099C00704700BF10B44FF48053C4F202035B687D
:1009AC0003F00C03042B02BF4FF49053C0F27A03F4
:1009BC00036036D0082B06D073BB4FF49053C0F2B3
:1009CC007A0303602DE04FF48053C4F202035A689B
:1009DC00C2F3834202F102025B6813F4803F07D139
:1009EC004FF41063C0F23D0303FB02F2026018E007
:1009FC004FF48053C4F202035B6813F4003F19BF39
:100A0C004FF41063C0F23D034FF49053C0F27A03DD
:100A1C0003FB02F2026004E04FF49053C0F27A033D
:100A2C0003604FF48052C4F20202516840F67863BE
:100A3C00C0F60003C1F30311595C046824FA01F1F8
:100A4C0041605468C4F302241C5D21FA04F48460F0
:100A5C005468C4F3C2241C5D21FA04F1C1605268CD
:100A6C00C2F381329B181B7CB1FBF3F1016110BC0A
:100A7C00704700BF39B14FF48053C4F202039A6936
:100A8C001043986170474FF48053C4F202039A6983
:100A9C0022EA00009861704739B14FF48053C4F2D8
:100AAC000203DA691043D86170474FF48053C4F2E3
:100ABC000203DA6922EA0000D86170474FEA50134A
:100ACC00012B05D14FF48053C4F202031B6807E0DD
:100ADC00022B4FF48053C4F202030CBF1B6A5B6AF7
:100AEC0000F01F0023FA00F000F00100704700BF77
:100AFC0010B582B04FF0000301934FF03104204643
:100B0C00FFF7DCFF019B03F10103019318B9019B73
:100B1C00B3F5A06FF3D14FF03100FFF7CFFF0038E2
:100B2C0018BF012002B010BD70B586B004460D464A
:100B3C00868826F03F064FEA06464FEA164601A87D
:100B4C00FFF728FF03994DF68362C4F21B32A2FB18
:100B5C0001024FEA924242EA0606A680238823F05D
:100B6C0001034FEA03434FEA13432380EB6848F237
:100B7C00A060C0F2010083420BD84FEA4303B1FBE3
:100B8C00F3F189B202F101022284032998BF0421F6
:100B9C002EE06E884BF6FF70864203BF03EB4303D7
:100BAC00B1FBF3F189B203EB83031FBF03EB8303A8
:100BBC00B1FBF3F189B241F480414FEA01534FEAA2
:100BCC0013530BB941F001016FEA41416FEA5141F6
:100BDC0089B24FF4967303FB02F244F6D353C1F27D
:100BEC00620383FB02034FEAA31303F10103238483
:100BFC00A18323889BB243F001032380238823F431
:100C0C00806323F00A034FEA03434FEA1343E98856
:100C1C002A8841EA020213439BB22380AA882B89BB
:100C2C0042EA03039BB2238106B070BD29B103884D
:100C3C009BB243F0010303807047038823F0010348
:100C4C004FEA03434FEA13430380704729B10388EB
:100C5C009BB243F4807303807047038823F4807342
:100C6C004FEA03434FEA13430380704729B10388CB
:100C7C009BB243F4007303807047038823F4007322
:100C8C004FEA03434FEA13430380704729B10388AB
:100C9C009BB243F4806303807047038823F4806322
:100CAC004FEA03434FEA13430380704701827047B6
:100CBC00008AC0B2704700BF12B141F0010101E0DF
:100CCC0001F0FE0101827047838A9BB2008B43EADC
:100CDC00004020F07F40884214BF00200120704764
:100CEC0021F07F43090F12BF14301B0C183002681F
:100CFC001A420CBF00200120704700BF43F60C03C2
:100D0C00C4F201031A88F0B412F4005212D00A286B
:100D1C0051D043F60002C4F20102B2F800C01CF03C
:100D2C00800FFAD043F6040380B2C4F2010318809A
:100D3C00F0BC704741F21804C4F20204266840F675
:100D4C00040146F0040727602568C4F2010145F050
:100D5C0001062660276843F6100647F48045256097
:100D6C000F6843F6140527F0F0040C600F6843F687
:100D7C00080447F0B0070F600F684FF00C0C27F415
:100D8C0070670F600F68C4F2010647F480670F604C
:100D9C00C4F2010540F24131C4F201043280A3F8DF
:100DAC0000C02A8021801A880A281FFA82FC4CF481
:100DBC0000511980ADD143F60C03C4F201031A881B
:100DCC0012F400520FD043F60002C4F20102138851
:100DDC0013F0800FFBD043F60401C4F201014FF075
:100DEC000D020A8095E741F21804C4F20204266849
:100DFC0040F6040146F0040727602568C4F201019F
:100E0C0045F001062660276843F6100647F4804536
:100E1C0025600F6843F6140527F0F0040C600F688A
:100E2C0043F6080447F0B0070F600F6840F2413CEE
:100E3C0027F470670F600F68C4F2010647F48067EF
:100E4C000F60C4F201054FF00C01C4F201043280B2
:100E5C0019802A80A4F800C01A8891B241F4005C71
:100E6C00A3F800C0AFE700BF101C704700000000E3
:100E7C000102030401020304060708090204060820
:040000050800010CE2
:00000001FF
