:03000000020100FA
:10010000C29300000000D29390016612011C90017E
:100110007C12011C90018012013380FE7802E4936E
:10012000B4A10122F912014CA3D8F3E493F912010E
:100130004080E9E493B4A10122F912014CA380F3B9
:10014000120153D29089A0C292D29222120153C2BC
:100150009080F2D29075A0FF7B0BC291E5A0D29166
:100160005BC39B70F5228007401E00410000421EC9
:100170000043000081000024000098A10000B0A10D
:090180000000000000000000A1D5
:00000001FF
