:020000040800F2
:10000000002000200D0100084D0100084D010008EE
:100010004D0100084D0100084D01000800000000DE
:100020000000000000000000000000004D0100087A
:100030004D010008000000004D0100084D010008BE
:10004000190800081D0800082108000825080008F4
:10005000290800082D0800083108000835080008A4
:10006000390800083D080008410800084508000854
:10007000490800084D080008510800085508000804
:10008000590800085D080008610800084D010008D3
:100090004D0100084D0100084D01000865080008E9
:1000A00069080008510100086D080008710800087F
:1000B0007508000819020008790800087D08000882
:1000C0008108000885080008890800088D080008D4
:1000D0009108000895080008990800089D08000884
:1000E000A1080008A5080008A908000800000000F1
:1000F0000000000000000000000000000000000000
:0C01000000000000000000005FF808F1A3
:10010C00002103E0094B5B58435004310848094B6C
:10011C0042189A42F6D3084A02E0002342F8043B04
:10012C00064B9A42F9D300F017FA7047200F0008DB
:10013C00000000200000002000000020140000201F
:10014C00FEE7000008B540F20003C2F200039A88F3
:10015C0092B24FF43050C4F201008286DB889BB21D
:10016C0003874FF0010100F017FE08BD30B583B0D6
:10017C0001464FF00003ADF804304FF41054C4F2B4
:10018C00010420464FF00102134600F057FA2046B6
:10019C004FF0010100F046FA4FF010038DF80730D4
:1001AC009DF8073003F1FF32D2B28DF80720FBB176
:1001BC004FF41054C4F201044FF0020520462946B6
:1001CC0000F09CFA2046294600F092FA0028F9D05B
:1001DC00E26CBDF80430D3189BB2ADF804309DF836
:1001EC00073003F1FF32D2B28DF80720002BE5D196
:1001FC004FF41050C4F201004FF0000100F012FA5D
:10020C00BDF80400C0F30B1003B030BD10B54FF4B3
:10021C008050C4F201004FF480714FF0000200F0E6
:10022C00EFFA40F20003C2F200031B6813F0010F57
:10023C0009D04FF48050C4F201004FF480714FF09C
:10024C00010200F0DDFA4FF00A00FFF78FFF40F2D9
:10025C000004C2F2000420814FF00B00FFF786FF70
:10026C0060814FF00C00FFF781FFA0814FF00D0073
:10027C00FFF77CFFE0814FF48060C4F200004FF088
:10028C00010100F089FD236803F10103236010BD17
:10029C0010B500F067FB4FF4803000F085FB00F0E8
:1002AC003DFC40F21003C2F20003187001282CD15F
:1002BC004FF0100000F034FA4FF0000000F022FA7A
:1002CC004FF0000000F0BCFB4FF0000000F0D0FB42
:1002DC004FF0000000F0C0FB4FF480304FF4802151
:1002EC0000F088FB4FF0010000F090FB4FF0390458
:1002FC00204600F0F9FB0028FAD04FF0020000F085
:10030C008BFB00F095FB0828FBD14FF002004FF05F
:10031C00010100F0D7FB40F614204FF0010100F072
:10032C00BFFB10BD30B583B04FF44074ADF8044042
:10033C004FF018038DF807304FF003058DF8065079
:10034C004FF40060C4F2010001A900F0F7F9ADF818
:10035C0004404FF010038DF807308DF806504FF421
:10036C008054C4F20104204601A900F0E7F94FF0D3
:10037C000F03ADF804304FF000038DF807308DF803
:10038C000650204601A900F0D9F903B030BD00BFDA
:10039C00F0B589B04FF0FF07ADF818704FF00005BD
:1003AC00ADF81450ADF81A50ADF816508DF81C502D
:1003BC004FF43054C4F20104204605A900F0CAFBE6
:1003CC004FF06003ADF804304FF00106ADF8066055
:1003DC00ADF80850ADF80A704FF00203ADF80C30D0
:1003EC00ADF80E30ADF81050ADF81250204601A902
:1003FC0000F0D8FB20464FF0080100F0B5FC204679
:10040C0001A900F01FFC20464FF0080100F0B8FCD9
:10041C002046314600F06EFC2046314600F07AFC56
:10042C0020463146324600F089FC09B0F0BD00BFD1
:10043C0010B584B041F28733ADF8083040F65F1345
:10044C00ADF804304FF00003ADF80A30ADF80630CB
:10045C004FF48064C4F20004204601A900F07AFB3A
:10046C00204600F077FC20464FF001010A4600F0D0
:10047C0065FC04B010BD00BF30B587B04FF0000074
:10048C0000F002FB4FF0000301934FF001048DF8D4
:10049C0008408DF809404FF46022039204938DF8C4
:1004AC0014404FF41055C4F20105284601A900F080
:1004BC0071F828464FF00A012246234600F0BEF898
:1004CC002846214600F08EF8284600F097F84FF4A5
:1004DC001054C4F20104204600F096F80028FAD11A
:1004EC004FF41050C4F2010000F092F84FF4105485
:1004FC00C4F20104204600F091F80028FAD107B0AC
:10050C0030BD00BF30B583B04FF000604FF000013C
:10051C0000F01CFA4FF019038DF804304FF0010471
:10052C008DF805404FF002058DF806508DF8074008
:10053C0001A800F0B5F94FF01D038DF804304FF011
:10054C0000038DF805308DF806508DF8074001A892
:10055C0000F0A6F903B030BD08B540F20003C2F2BA
:10056C0000034FF0FF029A80DA80FFF791FEFFF74D
:10057C00D9FEFFF7C7FFFFF77FFFFFF709FFFFF774
:10058C0057FF4FF48060C4F200004FF0010100F0FF
:10059C00B1FBFEE710B4436823F4702323F480739B
:1005AC000A6813430A7943EA0223436084688A6821
:1005BC00CB681A434FF2FD73CFF6F17304EA0303D1
:1005CC0042EA03034A7943EA42038360C26A22F493
:1005DC0070020B7C03F1FF33DBB242EA0353C362BC
:1005EC0010BC704721B1836843F0010383607047EE
:1005FC00836823F001038360704700BF836843F076
:10060C0008038360704700BF8068C0F3C000704768
:10061C00836843F004038360704700BF8068C0F3B5
:10062C008000704721B1836843F4A0038360704756
:10063C00836823F4A0038360704700BF70B409295A
:10064C0010D9C66801EB4104A4F11E044FF0070554
:10065C0005FA04F526EA050503FA04F445EA040351
:10066C00C3600DE0066901EB41044FF0070505FA84
:10067C0004F526EA050503FA04F445EA04030361CC
:10068C00062A10D8446B02F1FF3202EB82024FF0C3
:10069C001F0303FA02F324EA030301FA02F143EA0B
:1006AC000102426322E00C2A10D8046B02EB820296
:1006BC00A2F123024FF01F0303FA02F324EA03030F
:1006CC0001FA02F143EA010202630FE0C46A02EB91
:1006DC008202A2F141024FF01F0303FA02F324EA53
:1006EC00030301FA02F143EA0102C26270BC7047D3
:1006FC00036819420CBF0020012070476FEA01010A
:10070C00016070474FF40053C4F202031A6802F000
:10071C0038021A601A6840EA02021A60704700BF79
:10072C004FF40053C4F202031A6822F010021A604C
:10073C001A6840EA02021A60704700BF2DE9F00304
:10074C00CB7803F00F0513F0100F1CBF8B781D43F3
:10075C000B7833B3D0F800C04FF000034FF0010614
:10076C004FF00F0806FA03F20C8802EA04049442D4
:10077C0011D14FEA830708FA07F92CEA090C05FA9C
:10078C0007F74CEA070CCF78282F08BF446102D03A
:10079C00482F08BF026103F10103082BE2D1C0F816
:1007AC0000C00B88FF2B28D9D0F804C04FF00003F1
:1007BC004FF001064FF00F0803F1080206FA02F29F
:1007CC000C8802EA0404944211D14FEA830708FA18
:1007DC0007F92CEA090C05FA07F74CEA070CCF7855
:1007EC00282F08BF4461CC78482C08BF026103F164
:1007FC000103082BE0D1C0F804C0BDE8F00370473A
:10080C000AB1016170474161704700BF704700BF7A
:10081C00704700BF704700BF704700BF704700BFF4
:10082C00704700BF704700BF704700BF704700BFE4
:10083C00704700BF704700BF704700BF704700BFD4
:10084C00704700BF704700BF704700BF704700BFC4
:10085C00704700BF704700BF704700BF704700BFB4
:10086C00704700BF704700BF704700BF704700BFA4
:10087C00704700BF704700BF704700BF704700BF94
:10088C00704700BF704700BF704700BF704700BF84
:10089C00704700BF704700BF704700BF704700BF74
:1008AC0070B4C378002B3ED04FF46D43CEF20003EE
:1008BC00DB686FEA0303C3F30223C3F10402457838
:1008CC0005FA02F24FF00F0525FA03F581780D4079
:1008DC0015434FEA0515027802F003044FEAC404ED
:1008EC0005FA04F54FEA92024FF46143CEF200038D
:1008FC0002F1C00253F822604FF0FF0101FA04F13B
:10090C0026EA010405EA0101214343F8221002788A
:10091C004FEA521102F01F024FF0010000FA02F2EE
:10092C0043F8212010E003784FEA531203F01F0321
:10093C004FF0010101FA03F14FF46143CEF20003D1
:10094C0002F1200243F8221070BC704721F0604184
:10095C0021F07F0101434FF46D43CEF20003996007
:10096C00704700BF4FF48053C4F202031A6842F080
:10097C0001021A6059684FF00002CFF6FF0201EA3B
:10098C0002025A601A6822F0847222F480321A60D1
:10099C001A6822F480221A605A6822F4FE025A6005
:1009AC004FF000029A6070474FF48053C4F2020378
:1009BC001A6822F480321A601A6822F480221A60B3
:1009CC00B0F5803F03D0B0F5802F11D108E04FF483
:1009DC008053C4F202031A6842F480321A607047E2
:1009EC004FF48053C4F202031A6842F4A0221A6036
:1009FC00704700BF4FF48053C4F202035A6822F4CC
:100A0C007C1240EA02020A435A6070474FF06003BE
:100A1C00C4F24223186070474FF48053C4F20203AF
:100A2C005A6822F0030240EA02025A60704700BF83
:100A3C004FF48053C4F20203586800F00C00704766
:100A4C004FF48053C4F202035A6822F0F00240EAD9
:100A5C0002025A60704700BF4FF48053C4F2020385
:100A6C005A6822F4E06240EA02025A60704700BF02
:100A7C004FF48053C4F202035A6822F4605242EAE3
:100A8C00C0025A60704700BF4FF48053C4F2020397
:100A9C005A6822F4404240EA02025A60704700BF92
:100AAC0039B14FF48053C4F202039A691043986130
:100ABC0070474FF48053C4F202039A6922EA000093
:100ACC009861704739B14FF48053C4F20203DA696C
:100ADC001043D86170474FF48053C4F20203DA69B3
:100AEC0022EA0000D86170474FEA5013012B05D160
:100AFC004FF48053C4F202031B6807E0022B4FF43F
:100B0C008053C4F202030CBF1B6A5B6A00F01F0027
:100B1C0023FA00F000F00100704700BF10B582B05E
:100B2C004FF0000301934FF031042046FFF7DCFF38
:100B3C00019B03F10103019318B9019BB3F5A06F5D
:100B4C00F3D14FF03100FFF7CFFF003818BF012071
:100B5C0002B010BD038803F08F03038003889BB29F
:100B6C00CA8813434A8813439BB203808B888385BE
:100B7C000B8803854FF0010383824FF43053C4F28A
:100B8C0001034FF45052C4F20102904214BF0022F0
:100B9C000122984214BF134642F001030BB10B7AA9
:100BAC000386704770B4038C23F001034FEA0343B0
:100BBC004FEA13430384038C8488A4B2028B22F083
:100BCC0070024FEA02424FEA12420D882A4323F088
:100BDC0002034FEA03434FEA13434E880D8946EA5A
:100BEC000505ADB245EA0303CD8885864FF4305533
:100BFC00C4F201054FF45056C4F20106B04214BFC2
:100C0C0000260126A84214BF354646F00105A5B1C1
:100C1C004FF6F77503EA05054B891D434FF6FB7339
:100C2C0005EA03038D882B4347F6FF4504EA0505C7
:100C3C00CC8989890C43A4B22C438480028303841D
:100C4C0070BC704770B4038C23F010034FEA03435D
:100C5C004FEA13430384038C8488A4B2028B22F4DE
:100C6C00E0424FEA02424FEA12420D8842EA052264
:100C7C0092B223F020034FEA03434FEA13430D894A
:100C8C0043EA05134D8843EA05139BB2CD880587CB
:100C9C004FF43055C4F201054FF45056C4F201061E
:100CAC00B04214BF00260126A84214BF354646F0B8
:100CBC000105CDB14FF67F7503EA05054B8945EA71
:100CCC0003154FF6BF7305EA03038D8843EA05133A
:100CDC009BB247F2FF3504EA05058C8945EA840589
:100CEC00CC8945EA8404A4B284800283038470BC5A
:100CFC00704700BF29B103889BB243F00103038006
:100D0C007047038823F001034FEA83534FEA935350
:100D1C000380704749B1B0F844306FEA43436FEA3F
:100D2C0053439BB2A0F844307047B0F844304FEABC
:100D3C0043434FEA5343A0F84430704722B18389B0
:100D4C009BB219438181704783899BB223EA0101CD
:100D5C0081817047038923F007034FEA03434FEA6D
:100D6C0013430381704700BF038B23F008034FEA42
:100D7C0003434FEA134341EA03030383704700BF65
:100D8C00038B23F400634FEA03434FEA134343EA14
:100D9C0001239BB2038370476FEA010189B2018280
:100DAC00704700BF43F60C03C4F201031A88F0B479
:100DBC0012F4005212D00A2851D043F60002C4F2A9
:100DCC000102B2F800C01CF0800FFAD043F6040305
:100DDC0080B2C4F201031880F0BC704741F21804D1
:100DEC00C4F20204266840F6040146F004072760AA
:100DFC002568C4F2010145F001062660276843F618
:100E0C00100647F4804525600F6843F6140527F05B
:100E1C00F0040C600F6843F6080447F0B0070F604D
:100E2C000F684FF00C0C27F470670F600F68C4F25A
:100E3C00010647F480670F60C4F2010540F24131AE
:100E4C00C4F201043280A3F800C02A8021801A88E1
:100E5C000A281FFA82FC4CF400511980ADD143F6DC
:100E6C000C03C4F201031A8812F400520FD043F69B
:100E7C000002C4F20102138813F0800FFBD043F67A
:100E8C000401C4F201014FF00D020A8095E741F212
:100E9C001804C4F20204266840F6040146F0040764
:100EAC0027602568C4F2010145F001062660276819
:100EBC0043F6100647F4804525600F6843F6140589
:100ECC0027F0F0040C600F6843F6080447F0B007F5
:100EDC000F600F6840F2413C27F470670F600F6899
:100EEC00C4F2010647F480670F60C4F201054FF0AD
:100EFC000C01C4F20104328019802A80A4F800C0CD
:100F0C001A8891B241F4005CA3F800C0AFE700BFAF
:040F1C00101C7047EE
:040000050800010CE2
:00000001FF
