:0400000002002C329C
:03000B000200B040
:0100130032BA
:01001B0032B2
:0100230032AA
:10002B0032311F310611EF1171758902758A3775DF
:10003B008C3875A8827F647E64758810300006C288
:10004B00001152117180F5EA2401D4FAB460167ACA
:10005B0000EB2401D4FBB4600C7B00EC2401D4FC3A
:10006B00B424027C0022740411FA7840ECC4540FBF
:10007B004430F608EC540F4430F608763A08EBC4DB
:10008B00540F4430F608EB540F4430F608763A0818
:10009B00EAC4540F4430F608EA540F4430F6784063
:1000AB007D0811FF22DF087F64DE047E64D20032FC
:1000BB00C0077F00DFFED00722D2E5F5A0C2A52244
:1000CB00C0E0C4540F11C4D0E0540F11C411BB22B3
:1000DB00C0E0C4540FD2E411C4D0E0540FD2E411E9
:1000EB00C411BB22740111CB7F0011BBDFFC224476
:1000FB008011CB22E611DB08DDFA22740311C41147
:10010B00BB742811CB742811CB740C11CB11EF7469
:0F011B000611CB2278407F107420F608DFFC22FB
:00000001FF
