:0200000001BB42
:0200030001807A
:1000800005511196118801E37E007F0030B2F9DE40
:10009000FBDFF9C28932E551B40501E4F551FF9067
:1000A0000E40DF03900E4ADF03900E52DF03900EE6
:1000B0005ADF03900E649187919E22E4C294C29508
:1000C000F5A8F8F6D8FD758190D2A8D2AF12080035
:1000D000718191A8E49192900E73919E71817551F6
:1000E00000119691C1AF51DF0431FF80F6DF04515A
:1000F0006A80F0DF04310680EADF04312080E431D9
:100100008B75510180DBC294C295740171AB784448
:1001100051DEFF71F77440919278407F10919722E1
:10012000C294C295740271AB715C715C715C78446D
:1001300051DEFF71F77440919278407F10919722C1
:10014000C00174FA71A474FA71A4740071AB7840A0
:1001500051DE784079277F0AE6F70809DFFA740D47
:10016000F37927120B18D001120DAB22C001120D2A
:10017000AFD000120DAF12092FA824120DAF120834
:10018000FA900E10120DF612080F22C294C2957F3B
:1001900005C0077181742E9173D007DFF4C2957981
:1001A000653140D295796D3140C2957865796D3170
:1001B0006C797D120DAB900E16120DF6900E1C127E
:1001C0000DF61208FA7865120DAF1208FA798D1241
:1001D0000DAB900E10120DF6788D120DAF12092F87
:1001E000A824120DAF1208FA787D120DAF1208FA8A
:1001F000900E22120DF612092F7985120DAB22C234
:1002000094C2957975314078657975316C787D1235
:100210000DAF12092F900E22120DF61208FAA82423
:1002200018E6086002E4F6E6754E70900E28600B42
:10023000B478004006754E6E900E2E120DF6120820
:10024000FA75404375412075423D754320754F4610
:10025000755044752553E524C39405F8120BC674F4
:1002600040919278407F10919722D294C2957975EF
:10027000314078657975316C7885120DAF1208FAC6
:10028000A82418E6086002E4F6E6B480004002E420
:10029000F6754E6E900E2E6016B47B004011754EB2
:1002A00075900E34B47E004006754E6D900E3A1275
:1002B0000DF61208FA75404C75412075423D7543A4
:1002C00020754F48755044752553E524C39405F8AF
:1002D000120BC67440919278407F10919722C00013
:1002E0009003347A0A7B2F0B710750FB7120EBF6D9
:1002F00008A3A3A3A3DAEED0007A09E6B43005760A
:100300002008DAF70AEA22E493CCC39CFC74019338
:10031000CD9DFD740293CE9EFE740393CF9FFF226A
:10032000E4932CFC7401933DFD7402933EFE740330
:10033000933FFF2200CA9A3B00E1F50580969800A2
:1003400040420F00A086010010270000E8030000D3
:10035000640000000A00000001000000ECF8EDF964
:10036000EEFAEFFB71747174EC28FCED39FDEE3A96
:10037000FEEF3BFFEC2CFCED3DFDEE3EFEEF3FFFC4
:10038000227FF97E337D10DFFEDEFCDDFA227FF96D
:100390007E337D02DFFEDEFCDDFA22C0077F64DFF4
:1003A000FED00722CF719BDFFCCF22C0E0D293C2E8
:1003B00092D292A2E09290A2E19291758A00758CFD
:1003C00000E589D2E0C2E1D2E2C2E3F589E588D254
:1003D000E4C2E5F588D0E0146008C293718ED29330
:1003E0008006C2937181D293E580FCE58AFDE58C9D
:1003F000FEE4A28D33FF2275404675413D754220D3
:1004000078437945BF070040197F09E7BF060376A7
:100410002E08F60809DFF4754D4D754E48754F7A74
:100420008030BF040040197F09E7BF0303762E0820
:10043000F60809DFF4754D4B754E48754F7A8012FA
:10044000087F09E7F60809DFFA754D48754E7A7599
:100450004F2022C0077F00DFFED00722D2E5F5A0A3
:10046000C2A522C0E0C4540F915CD0E0540F915C4F
:10047000915322C0E0C4540FD2E4915CD0E0540FF9
:10048000D2E4915C915322740191637F009153DF18
:10049000FC224480916322E6917308DFFA22E49300
:1004A00060059173A380F7227403915C91537428C3
:1004B000916374289163740C9163918774069163BE
:0C04C0002278407F107420F608DFFC2238
:100800007524FF752500755040752740222222A8C7
:100810002418E6B2E0F651D4EF600DBE001251CBC1
:100820007F06E6F71819DFFAE5242406F524E4220A
:100830009E8F308C2F50098E308B2FF404C8C9C87E
:10084000FFC233BD0002D23351E5BF0B0040027F2F
:100850000A752A0051287F04792E749EC39CD4CC3B
:100860007001FCB45000303318B311785008052AD9
:100870007F01512831DF21D0E637D4F71819DFF88E
:1008800022E6FEE43499972ED4F71819DFF34011CD
:10089000B278792E7F04749A972400D4F719B3DFC5
:1008A000F5782B7F00E670080F0F08B82FF7411876
:1008B000B4100050010FE530C39F600B4009F530C4
:1008C0005162752A0021D0411251D4E524240CF53F
:1008D00024EEC2D5C39F600A4003EB8001EC6001A7
:1008E000B322BD00F57F04181818191919E6FEE7A0
:1008F0009E70EA0809DFF6D2D52251D2BE0002412D
:10090000188D2FEF60F92E20E70510D70641125001
:100910000241019481FE31EB7B04AC018C01E7FACA
:100920005198EAC451981CDBF38E308D2F219051E1
:10093000D48D2FBF00065101E4D2E322EE60C09FA8
:1009400020E7045004411250C82481F53051E57A63
:1009500034AB00752A007DFFD38B00792E7F0450C5
:1009600017E6FEE434999E27D4F71819DFF30D40FB
:10097000E8E79401F7B380E1117877008A00A605D3
:100980000A7F015160BA3ECED530024112752A006D
:100990007834E6FE600331DF18087408F928F8B6E9
:1009A00005004013D3E41836D4D630E409D9F5183D
:1009B000760131DF800619E9C3C898F8792BE6C4BF
:1009C00008D64206F70809B92FF4EE700375300017
:1009D00051CB89247830E6F71819B82AF9E42205B2
:1009E00030E53070F9D0E0D0E04101C0017932E665
:1009F000540FF7E6C4540F19F71819B92AF1D001AA
:100A000022782E7499F618B82AFB7530FF31D0D2AF
:100A1000E1225118E4D2E022511F31D0D2E222E487
:100A2000783DF618B829FB227C00C3EF60229402BF
:100A3000501FC000C001792E782DECD7C4FCE7D63A
:100A4000C4F71819B92AF7E7C4540FF7D001D0003A
:100A500022FFE4C52AC52BC52CC52DC52EFC80CB95
:100A60007C00C3EF60229402501FC000C001782AAE
:100A7000792BE6C4F6E7C4D6F70809B82EF7ECC41C
:100A8000D654F0FCD001D00022FFE4CCC52EC52DF9
:100A9000C52CC52BC52A80CB540FFF783C7932E496
:100AA000F5331826D430E403180608D68FF0E7A4EF
:100AB00075F00A84C5F026D430E40205F008D61893
:100AC000E5F019B92ADC2533D4F622A824740628C7
:100AD000F922511F51CBE6FFE7FE1819E6FCE7FBB0
:100AE0006CFD181922C000782EE7F61918B82AF9FB
:100AF000D0002271B5E7B17E400E710B400AC2E50D
:100B0000B44803D38001C3220980EAC2E5B4470098
:100B1000400122B44100B322511F71B571BB9278DC
:100B200078347E7FD2D5B17C5007540F718E098006
:100B3000F5B42E0C205163D251B834F2D25280EE6B
:100B400020D557B465028003B4453371B471BB92AC
:100B500050B17C5045540FFD09B17C500D540FCD60
:100B600075F00AA42DFD50F07DFFED305009C39EB5
:100B7000F40440097401222E5003740222CE8E30F8
:100B8000B83402511FE524C3940CF5242190C2D53A
:100B9000700BB83408305204DE0274FF2220530276
:100BA000C2522052F32051010E2053F0B83D02D220
:100BB00053F6082209E7B4200C80F9B42B02800414
:100BC000B42D02D3092251D41128EFFE31EB782B3A
:100BD000E525FB6049B4F0005073EE70027E80EBB7
:100BE000C4540FFA91B3CAC39AFF50067D3F91E8EF
:100BF000811EBA00071F91D591E2800691D5EAFFC8
:100C00009197EB540FFA60BD91DE91BCB50203EAF7
:100C100081CC50FBCAC39ACA91CCEAFF8197EE708F
:100C20000491E681E27BF074772E402194F7401D19
:100C300091D791B3B408028197919791A960579188
:100C4000DE7F019197704F91A9604B80F491D77F1F
:100C500001919791DEEB540F6006FF1F9197800280
:100C6000914191E67D4591E8EE600414B4800591D0
:100C7000E6E4800C40067D2B91E8800491DAF404D0
:100C8000C2E7F87A0079277B00B10E7827E6FD915C
:100C9000E808E8B501F722EF600EE64430081FFDD2
:100CA00091E8E4B833F1745522A900E7700409B95A
:100CB00033F922EEC394805001E4FF22C374809E76
:100CC0005001E422EF60FC91E61F80F8FFEF60F333
:100CD00091E21F80F891C4EC600C7D2D800A7D2E7E
:100CE00080067D3080027D20A18975F00AC0E0C0B9
:100CF000F0E9A4F9EBABF0D0F0A4A2D292D52BFB93
:100D0000D0E072D54007540F29F9E43BFB22E49070
:100D10002710B12B9003E8B12B900064B12B900009
:100D20000AB12B900001B12B6020227EFF0ECAB5C4
:100D30008300CA4012C89582C8CA9583CA50EEC8BB
:100D40002582C8CA3583CA4E60E074302EF7092266
:100D500091E6A2369233EBB173EBB174C233E9B1D1
:100D600073E9B1747D4881E8C2332490D43440D40F
:100D7000FD80F3C4540F70F03033ED2271B5B43AF6
:100D800000400122B43000B322C0E0C000A850ED02
:100D9000F60550D000D0E022010E7406801674FAD9
:100DA0002524B400004028F524F922B19AA1C6B147
:100DB0009EA1C6E4A824284016F524E622B1B3E695
:100DC000F70809DCFA227C06E6F71819DCFA22900B
:100DD0000E02010DB1B394815007B19A900E0AA191
:100DE000F694075010F404FB1818E654F0F6DB01F3
:100DF00022E4F6DBF422B19E7B06E493F7A319DB31
:100E0000F922412D535441434B00000000000000E3
:100E1000810000000010810000000020810027599F
:100E200041317800000000108D00000000108A00A1
:100E30000000001087000000001084000000001077
:100E400043616C6962726174650043204D6574652D
:100E500072004C204D657465720046727120436FBC
:100E6000756E740046727120436F756E7420314741
:100E7000487A0057656C636F6D65204B6574696CCB
:010E80000071
:00000001FF
