:0400000002002C329C
:01000B0032C2
:0100130032BA
:01001B0032B2
:0100230032AA
:10002B003275500D75247F7525009016051215E954
:10003B00C20175522B511131FA512A754F303116BD
:10004B00D200312060FCB443072001D5D20180E9F6
:10005B00C201B42B0AC0E011BBD052D20080E3B472
:10006B002D0AC0E011BBD052D20080D6B42A0AC0F0
:10007B00E011BBD052D20080C9B42F0AC0E011BB33
:10008B00D052D20080BC2000063104311680B3C0A0
:10009B00E0512A754F30D0E0B42E03754E30B4309A
:1000AB0007754F303116809AF54F3116C200014D4E
:1000BB00794012130BE55211EB785488537F0AE405
:1000CB00F608DFFCA8241215A21213B9512A785E88
:1000DB0018E660FC794FE6F71819B853F931162278
:1000EB00B42B03021009B42D03021002B42A03022D
:1000FB0010EDB42F0302112222C0E0784079417F2A
:10010B000FE7F60809DFFAD0E0F622E451057F107D
:10011B007840510A227F047E0E7D00E59054F04E0C
:10012B00F590E59054F0B4F00DEED333540FFEDDA3
:10013B00FEDFE8E4801B7D041D3340FCEE7EFF0EEA
:10014B001340FCED23234E9001B693B55103E4808D
:10015B0002F551C0E0E590440FF590D0E0227F040A
:10016B007E0E7D00908000E054F04EF0E590F5514E
:10017B0054F0B4F00DEED333540FFEDDFEDFE8E4A4
:10018B00801B7D041D3340FCEE7EFF0E1340FCED07
:10019B0023234E9001B693B55103E48002F55190A1
:1001AB008000C0E0E0440FF0D0E0223738392B3428
:1001BB0035362D3132332A43302E2FC0077F00DFE7
:1001CB00FED00722D2E5F5A0C2A522C0E0C4540F91
:1001DB0031CFD0E0540F31CF31C622C0E0C4540F21
:1001EB00D2E431CFD0E0540FD2E431CF31C62274F8
:1001FB000131D67F0031C6DFFC22448031D622E6A6
:10020B0031E608DFFA22740331CF31C6742831D6B8
:10021B00742831D6740C31D631FA740631D6227863
:0A022B00407F107420F608DFFC226B
:101000002222A82418E6B2E0F651C7EF600DBE0018
:101010001251BE7F06E6F71819DFFAE5242406F51B
:1010200024E4229E8F308C2F50098E308B2FF404B5
:10103000C8C9C8FFC233BD0002D23351D8BF0B00AC
:1010400040027F0A752A00511B7F04792E749EC3CB
:101050009CD4CC7001FCB45000303318B3116B50E9
:1010600008052A7F01511B31D221C3E637D4F71876
:1010700019DFF822E6FEE43499972ED4F71819DF29
:10108000F34011B278792E7F04749A972400D4F734
:1010900019B3DFF5782B7F00E670080F0F08B82F23
:1010A000F7410BB4100050010FE530C39F600B40B7
:1010B00009F5305155752A0021C3410551C7E52472
:1010C000240CF524EEC2D5C39F600A4003EB8001D7
:1010D000EC6001B322BD00F57F0418181819191926
:1010E000E6FEE79E70EA0809DFF6D2D52251C5BEBA
:1010F0000002410B8D2FEF60F92E20E70510D70677
:101100004105500221F49481FE31DE7B04AC018C58
:1011100001E7FA518BEAC4518B1CDBF38E308D2F23
:10112000218351C78D2FBF000631F4E4D2E322EEB4
:1011300060C09F20E7045004410550C82481F53069
:1011400051D87A34AB00752A007DFFD38B00792EFD
:101150007F045017E6FEE434999E27D4F71819DF70
:10116000F30D40E8E79401F7B380E1116B77008A53
:1011700000A6050A7F015153BA3ECED53002410583
:10118000752A007834E6FE600331D218087408F935
:1011900028F8B605004013D3E41836D4D630E40955
:1011A000D9F518760131D2800619E9C3C898F879C3
:1011B0002BE6C408D64206F70809B92FF4EE7003EF
:1011C00075300051BE89247830E6F71819B82AF92D
:1011D000E4220530E53070F9D0E0D0E021F4C00120
:1011E0007932E6540FF7E6C4540F19F71819B92AE3
:1011F000F1D00122782E7499F618B82AFB7530FFC9
:1012000031C3D2E122510BE4D2E022511231C3D2D8
:10121000E222E4783DF618B829FB227C00C3EF6097
:10122000229402501FC000C001792E782DECD7C443
:10123000FCE7D6C4F71819B92AF7E7C4540FF7D05A
:1012400001D00022FFE4C52AC52BC52CC52DC52E13
:10125000FC80CB7C00C3EF60229402501FC000C012
:1012600001782A792BE6C4F6E7C4D6F70809B82E28
:10127000F7ECC4D654F0FCD001D00022FFE4CCC57A
:101280002EC52DC52CC52BC52A80CB540FFF783C0D
:101290007932E4F5331826D430E403180608D68FE3
:1012A000F0E7A475F00A84C5F026D430E40205F016
:1012B00008D618E5F019B92ADC2533D4F622A8247B
:1012C000740628F922511251BEE6FFE7FE1819E60E
:1012D000FCE7FB6CFD181922C000782EE7F6191800
:1012E000B82AF9D0002271A8E7B171400E51FE4032
:1012F0000AC2E5B44803D38001C3220980EAC2E5EB
:10130000B44700400122B44100B322511271A871C8
:10131000AE927878347E7FD2D5B16F5007540F717A
:10132000810980F5B42E0C205163D251B834F2D229
:101330005280EE20D557B465028003B4453371A7BF
:1013400071AE9250B16F5045540FFD09B16F500D01
:10135000540FCD75F00AA42DFD50F07DFFED3050F7
:1013600009C39EF40440097401222E500374022222
:10137000CE8E30B834025112E524C3940CF52421EA
:1013800083C2D5700BB83408305204DE0274FF22D9
:10139000205302C2522052F32051010E2053F0B8C4
:1013A0003D02D253F6082209E7B4200C80F9B42B91
:1013B000028004B42D02D3092251C7111BEFFE3164
:1013C000DE782BE525FB6049B4F0005073EE700227
:1013D0007E80EBC4540FFA91A6CAC39AFF50067DD3
:1013E0003F91DB8111BA00071F91C891D58006910A
:1013F000C8EAFF918AEB540FFA60BD91D191AFB565
:101400000203EA81BF50FBCAC39ACA91BFEAFF81B7
:101410008AEE700491D981D57BF074772E402194A7
:10142000F7401D91CA91A6B40802818A918A919CC5
:10143000605791D17F01918A704F919C604B80F4ED
:1014400091CA7F01918A91D1EB540F6006FF1F91E1
:101450008A8002913491D97D4591DBEE600414B409
:10146000800591D9E4800C40067D2B91DB800491AE
:10147000CDF404C2E7F87A0079607B00B1017860AE
:10148000E6FD91DB08E8B501F722EF600EE6443097
:10149000081FFD91DBE4B833F1745522A900E77011
:1014A0000409B933F922EEC394805001E4FF22C34A
:1014B00074809E5001E422EF60FC91D91F80F8FFF8
:1014C000EF60F391D51F80F891B7EC600C7D2D8013
:1014D0000A7D2E80067D3080027D20A17C75F00A79
:1014E000C0E0C0F0E9A4F9EBABF0D0F0A4A2D29236
:1014F000D52BFBD0E072D54007540F29F9E43BFB14
:1015000022E4902710B11E9003E8B11E900064B150
:101510001E90000AB11E900001B11E6020227EFFC5
:101520000ECAB58300CA4012C89582C8CA9583CA3C
:1015300050EEC82582C8CA3583CA4E60E074302E8A
:10154000F7092291D9A2369233EBB166EBB167C2AB
:1015500033E9B166E9B1677D4881DBC2332490D4B9
:101560003440D4FD80F3C4540F70F03033ED227159
:10157000A8B43A00400122B43000B322C000C0E059
:10158000EDA853F60553D0E0D00022010174068087
:101590001674FA2524B400004028F524F922B18DF0
:1015A000A1B9B191A1B9E4A824284016F524E622F6
:1015B000B1A6E6F70809DCFA227C06E6F71819DC82
:1015C000FA229015FD0100B1A694815007B18D90CB
:1015D0001605A1E994075010F404FB1818E654F01E
:1015E000F6DB0122E4F6DBF422B1917B06E493F70B
:1015F000A319DBF922F5993099FDC29922412D53A7
:0B1600005441434B00000000000000BC
:00000001FF
