:020000040800F2
:10000000002000200D010008DD060008E1060008C0
:10001000E5060008E9060008ED06000800000000FB
:10002000000000000000000000000000F1060008D1
:10003000F506000800000000F9060008C1060008E7
:100040004D0100084D0100084D0100084D01000858
:100050004D0100084D0100084D0100084D01000848
:100060004D0100084D0100084D0100084D01000838
:100070004D0100084D0100084D0100084D01000828
:100080004D0100084D0100084D0100084D01000818
:100090004D0100084D0100084D0100084D01000808
:1000A0004D0100084D0100084D0100084D010008F8
:1000B0004D0100084D0100084D0100084D010008E8
:1000C0004D0100084D0100084D0100084D010008D8
:1000D0004D0100084D0100084D0100084D010008C8
:1000E0004D0100084D0100084D010008000000000E
:1000F0000000000000000000000000000000000000
:0C01000000000000000000005FF808F1A3
:10010C00002103E0094B5B58435004310848094B6C
:10011C0042189A42F6D3084A02E0002342F8043B04
:10012C00064B9A42F9D300F027FA7047BC1000082E
:10013C0000000020280000202800002038000020AB
:10014C00FEE70000F8B506460F464FF4A840C4F28F
:10015C0000004FF0010100F0A3FC4FF4A845C4F2DD
:10016C0000054FF00104C1F200042846214600F0BE
:10017C00E3FC0028F9D04FF4A840C4F200004FF083
:10018C003C014FF0000200F0ABFC4FF4A845C4F268
:10019C0000054FF08204C0F207042846214600F007
:1001AC00BDFC0028F9D04FF4A840C4F20000314641
:1001BC0000F0AEFC4FF4A845C4F200054FF08404E7
:1001CC00C0F207042846214600F0A8FC0028F9D00C
:1001DC004FF4A840C4F20000394600F099FC4FF4EB
:1001EC00A845C4F200054FF08404C0F20704284669
:1001FC00214600F093FC0028F9D04FF4A840C4F23B
:10020C0000004FF0010100F05BFC4FF4A845C4F274
:10021C0000054FF01004C1F200042846214600F0FE
:10022C008BFC0028F9D1F8BD2DE9F04107464FF4BD
:10023C00A845C4F200054FF04004C0F20304284660
:10024C00214600F06BFC0028F9D04FF4A840C4F212
:10025C00000000F05FFC80464FF4A845C4F2000596
:10026C004FF04004C0F203042846214600F056FC2F
:10027C000028F9D04FF4A840C4F2000000F04AFC6A
:10028C0006461FB34FF4A844C4F20004238823F499
:10029C0000634FEA03434FEA1343238020464FF099
:1002AC00000100F025FC20464FF0010100F008FC95
:1002BC004FF4A845C4F200054FF01004C1F200043D
:1002CC002846214600F038FC0028F9D146EA0826D9
:1002DC00B0B2BDE8F08100BF38B54FF4A840C4F20D
:1002EC0000004FF0010100F003FC4FF4A844C4F2ED
:1002FC0000044FF400352046294600F01DFC002870
:10030C00F9D14FF002004FF00101FFF71BFF4FF442
:10031C008062C4F20202136913F0200FFBD04FF479
:10032C00A840C4F200004FF0010100F0B9FB4FF4FB
:10033C00A845C4F200054FF00104C1F200042846A0
:10034C00214600F0F9FB0028F9D04FF4A840C4F284
:10035C0000004FF03C014FF0000200F0C1FB4FF4E5
:10036C00A845C4F200054FF08204C0F207042846E9
:10037C00214600F0D3FB0028F9D04FF4A840C4F27A
:10038C0000004FF0030100F0C3FB4FF4A845C4F28A
:10039C0000054FF08004C1F200042846214600F00D
:1003AC00CBFB0028F9D04FF4A840C4F200004FF06A
:1003BC00010100F075FB4FF4A845C4F200054FF0A5
:1003CC000104C1F200042846214600F0B5FB0028C8
:1003DC00F9D04FF4A840C4F200004FF03C014FF0AC
:1003EC00010200F07DFB4FF4A845C4F200054FF06C
:1003FC000204C0F203042846214600F08FFB0028BB
:10040C00F9D04FF00000FFF70FFF40F22804C2F2C2
:10041C00000460804FF00000FFF706FFE0804FF013
:10042C000100FFF701FFA08038BD00BF08B54FF4F5
:10043C0000104FF0010100F0D9F94FF002004FF01D
:10044C00010100F0C1F908BD70B582B04FF44073E2
:10045C0000934FF002068DF804604FF001038DF805
:10046C0006304FF000058DF807508DF805604FF4FD
:10047C008064C4F202042046694600F0FFF920466D
:10048C004FF008014FF0040200F05AFA20464FF0EA
:10049C0009014FF0040200F053FA4FF020030093CF
:1004AC008DF804508DF805608DF806508DF80750C6
:1004BC002046694600F0E2F902B070BD10B584B078
:1004CC004FF4A840C4F200004FF0010100F0D8FA3C
:1004DC0048F2A063C0F2010300934FF00003ADF8A3
:1004EC0004304BF6FF72ADF80620ADF808304FF42F
:1004FC008063ADF80A304FF48044ADF80C404FEAFD
:10050C00044040F4A840694600F038FA4FEA044031
:10051C0040F4A8404FF0010100F0B2FA04B010BD55
:10052C0082B00190019A92B240F22803C2F2000309
:10053C00DA811A46D3899BB2002BFBD102B07047EB
:10054C0000B583B04FF040038DF800304FF000033E
:10055C008DF801304FF007028DF802208DF8033032
:10056C008DF80430684600F07BFB4FF01E00FFF75F
:10057C00D7FF03B000BD00BF70B540F22803C2F234
:10058C0000034FF000021A80FFF750FFFFF796FFB1
:10059C00FFF75AFF40F20003C2F200031A684FF053
:1005AC006403B2FBF3F3B3F1807F16D223F07F43E5
:1005BC0003F1FF324EF21003CEF200035A604FF4F7
:1005CC006D42CEF200024FF0F00182F823104FF092
:1005DC0000029A6002F107021A60FFF7B1FF4FF0B8
:1005EC0000004FF06001FFF7ADFD4FF001004FF040
:1005FC000001FFF7A7FD4FF03C00FFF791FF40F221
:10060C002804C2F200044FF0000504F10806238808
:10061C009BB2002BFBD023889BB203F1FF33032B3F
:10062C0034D8DFE803F0020C1A1DFFF755FE3046F4
:10063C004FF029014FF0060200F0DEFB26E02846C1
:10064C004FF06101FFF77EFD4FF001004FF06001AC
:10065C00FFF778FDFFF740FE18E0FFF73DFE15E0D1
:10066C0028464FF06001FFF76DFD4FF00100294661
:10067C00FFF768FD4FF03C00FFF752FFFFF72CFE31
:10068C004FF03C00FFF74CFFFFF726FE2580BEE73E
:10069C0040F22803C2F20003DB899BB243B140F263
:1006AC002803C2F20003DA8902F1FF3292B2DA8136
:1006BC00704700BF08B540F22803C2F20003DB8983
:1006CC009BB20BB1FFF7E4FF08BD00BFFEE700BF14
:1006DC00704700BFFEE700BFFEE700BFFEE700BFAC
:1006EC00FEE700BF704700BF704700BF704700BFF8
:1006FC0010B44FF46053C4F202039B6803F00C0374
:10070C00042B02BF4FF49053C0F27A0303603AD02B
:10071C00082B06D093BB4FF41053C0F2F4030360C4
:10072C0031E04FF46053C4F202035C685A6802F083
:10073C003F0214F4800F4FF46053C4F202035B6861
:10074C00C3F3881319BF4FF49054C0F27A044FF4DA
:10075C001054C0F2F404B4FBF2F101FB03F14FF4BA
:10076C006053C4F202035A68C2F3014202F101025F
:10077C004FEA4202B1FBF2F3036004E04FF4105372
:10078C00C0F2F40303604FF46052C4F202029168A9
:10079C00C1F3031140F21403C2F20003595C046864
:1007AC0024FA01F141609468C4F382241C5D21FA9F
:1007BC0004F484609268C2F342329B5C21FA03F128
:1007CC00C16010BC704700BF39B14FF46053C4F224
:1007DC0002031A6B1043186370474FF46053C4F252
:1007EC0002031A6B22EA00001863704739B14FF408
:1007FC006053C4F202031A6C1043186470474FF430
:10080C006053C4F202031A6C22EA000018647047A9
:10081C0039B14FF46053C4F202035A6C104358645C
:10082C0070474FF46053C4F202035A6C22EA000082
:10083C005864704739B14FF46053C4F202031A6A1A
:10084C001043186270474FF46053C4F202031A6AE3
:10085C0022EA00001862704739B14FF46053C4F2B9
:10086C0002035A6A1043586270474FF46053C4F243
:10087C0002035A6A22EA0000586270472DE9F00719
:10088C004FF0000213464FF001074FF0030C1E46C9
:10089C0007FA03F40D6804EA0505A54243D1D0F824
:1008AC00009090460CFA02F46FEA040404EA090979
:1008BC00C0F80090D0F800A091F8049009FA02F961
:1008CC0049EA0A09C0F8009091F8049009F1FF393F
:1008DC005FFA89F9B9F1010F1CD8D0F8089004EA35
:1008EC000909C0F80890D0F808A091F8059009FA09
:1008FC0002F949EA0A09C0F80890D0F8049029EAEC
:10090C0005054560456891F8069009FA03F6B6B2FC
:10091C002E434660C5682C40C460C568CC7904FA87
:10092C0008F42C43C46003F1010302F10202102B02
:10093C00ADD1BDE8F0077047018370474183704724
:10094C0030B401F007034FEA83034FEAD10101F100
:10095C00080150F821504FF00F0404FA03F425EA73
:10096C00040440F8214050F8214002FA03F343EA12
:10097C00040440F8214030BC704700BF70B584B00F
:10098C0004460D46868826F03F064FEA06464FEA97
:10099C0016466846FFF7ACFE02994DF68362C4F228
:1009AC001B32A2FB01024FEA924242EA0606A680E3
:1009BC00238823F001034FEA03434FEA13432380B8
:1009CC002B6848F2A060C0F2010083420BD84FEABA
:1009DC004303B1FBF3F189B202F101022284032932
:1009EC0098BF04212EE0EE884BF6FF70864203BFC1
:1009FC0003EB4303B1FBF3F189B203EB83031FBF9A
:100A0C0003EB8303B1FBF3F189B241F480414FEA6C
:100A1C0001534FEA13530BB941F001016FEA414105
:100A2C006FEA514189B24FF4967303FB02F244F61C
:100A3C00D353C1F2620383FB02034FEAA31303F106
:100A4C0001032384A18323889BB243F001032380F9
:100A5C00238823F4806323F00A034FEA03434FEA0D
:100A6C0013436989AA8841EA020213439BB223808B
:100A7C002A89AB8942EA03039BB2238104B070BD7F
:100A8C0029B103889BB243F00103038070470388AC
:100A9C0023F001034FEA03434FEA134303807047EB
:100AAC0029B103889BB243F4807303807047038899
:100ABC0023F480734FEA03434FEA134303807047D8
:100ACC0029B103889BB243F40073038070470388F9
:100ADC0023F400734FEA03434FEA13430380704738
:100AEC0012B141F0010101E001F0FE0101827047F9
:100AFC0029B103889BB243F4806303807047038859
:100B0C0023F480634FEA03434FEA13430380704797
:100B1C0001827047008AC0B2704700BF838A9BB2C3
:100B2C00008B43EA0040084020F07F40814214BF14
:100B3C0000200120704700BF82B04FF000030193EA
:100B4C00009300904FEA1173019321F07F41019BB8
:100B5C0023B1009B03F11403009305E04FEA11410C
:100B6C00009B03F118030093009B1B6819420CBFF8
:100B7C000020012002B07047F8B5074640F224036C
:100B8C00C2F200034FF480521A604FF44055C4F285
:100B9C0001054FF002061C4608E0236803F1FF3202
:100BAC0022601BB9FFF792FDC0B2F8BD2846314652
:100BBC0000F0C0F90028F0D04FF44050C4F201000E
:100BCC00394600F0B5F940F22403C2F200034FF4A9
:100BDC0080521A604FF44055C4F201054FF00106E3
:100BEC001C4608E0236803F1FF3222601BB9FFF7B3
:100BFC006DFDC0B2F8BD2846314600F09BF90028C7
:100C0C00F0D04FF44050C4F2010000F08DF9C0B2A6
:100C1C00F8BD00BF70B505460E461446012A88BFC4
:100C2C0041F040064FF48050C4F202004FF008012E
:100C3C00FFF784FE3046FFF79FFF44B115F8010B18
:100C4C00FFF79AFF04F1FF34A4B2002CF6D14FF455
:100C5C008050C4F202004FF00801FFF76DFE70BD2A
:100C6C002DE9F04F89B080464FF000048DF81F40FD
:100C7C004FF480504FF00101FFF7CAFD4FF0010017
:100C8C000146FFF7A1FD4FF010004FF00101FFF7F7
:100C9C009BFD4FF010004FF00101FFF795FD4FF059
:100CAC0010004FF00101FFF78FFD2546C4F202053D
:100CBC0028464FF005010A46FFF742FE28464FF042
:100CCC0006014FF00502FFF73BFE28464FF00701E7
:100CDC004FF00502FFF734FE4FF002078DF8187045
:100CEC008DF81A408DF81B708DF819704FF0200B91
:100CFC000DEB0B0646F80CBD28463146FFF7BEFD42
:100D0C004FF08003059328463146FFF7B7FD4FF0AF
:100D1C004003059328463146FFF7B0FD4FF440558C
:100D2C00C4F20105284600F091F8A146ADF8004048
:100D3C00ADF80440ADF80640ADF808404FF4007330
:100D4C00ADF80A304FF0080AADF80CA0ADF80E4023
:100D5C004FF00703ADF810304FF48273ADF802304A
:100D6C002846694600F0ACF828464FF0010100F027
:100D7C00CBF8CDF814A04FF001058DF818508DF874
:100D8C001A408DF819704FF48054C4F202042046B6
:100D9C003146FFF773FD20465146FFF7CDFD059513
:100DAC008DF818908DF81A908DF819708DF81B909D
:100DBC0020463146FFF762FD059720463146FFF786
:100DCC005DFD98F8002098F8013042EA030398F88A
:100DDC000320134398F80420134398F8022013437C
:100DEC000DEB0B0000F8013D59462A46FFF712FFA8
:100DFC0009B0BDE8F08F00BF70B506461446012A55
:100E0C008CBF41F0C00541F080054FF48050C4F216
:100E1C0002004FF00801FFF791FD2846FFF7ACFEEA
:100E2C005CB14FF000052846FFF7A6FE06F8010B53
:100E3C0004F1FF34A4B2002CF5D14FF48050C4F26D
:100E4C0002004FF00801FFF777FD70BD08B54FF4B5
:100E5C004053C4F2010398420CD14FF480504FF030
:100E6C000101FFF7F9FC4FF480504FF00001FFF740
:100E7C00F3FC08BD4FF46053C4F2000398420CD14C
:100E8C004FF480404FF00101FFF7D4FC4FF4804049
:100E9C004FF00001FFF7CEFC08BD4FF47053C4F2C5
:100EAC00000398420BD14FF400404FF00101FFF7C3
:100EBC00C1FC4FF400404FF00001FFF7BBFC08BD34
:100ECC0010B4028802F441524C880B8844EA0303A4
:100EDC008C882343CC8823430C8923434C8923439C
:100EEC008C892343CC89234342EA03039BB20380BE
:100EFC00838B23F400634FEA03434FEA134383834A
:100F0C000B8A038210BC704729B103889BB243F053
:100F1C00400303807047038823F040034FEA0343E8
:100F2C004FEA134303807047808980B2704700BF3B
:100F3C0081817047038919420CBF00200120704742
:100F4C0043F60C03C4F201031A88F0B412F40052F5
:100F5C0012D00A2851D043F60002C4F20102B2F8B2
:100F6C0000C01CF0800FFAD043F6040380B2C4F228
:100F7C0001031880F0BC704741F21804C4F202045B
:100F8C00266840F6040146F0040727602568C4F281
:100F9C00010145F001062660276843F6100647F468
:100FAC00804525600F6843F6140527F0F0040C60AB
:100FBC000F6843F6080447F0B0070F600F684FF056
:100FCC000C0C27F470670F600F68C4F2010647F42D
:100FDC0080670F60C4F2010540F24131C4F2010494
:100FEC003280A3F800C02A8021801A880A281FFAB0
:100FFC0082FC4CF400511980ADD143F60C03C4F2C1
:10100C0001031A8812F400520FD043F60002C4F206
:10101C000102138813F0800FFBD043F60401C4F2D5
:10102C0001014FF00D020A8095E741F21804C4F259
:10103C000204266840F6040146F004072760256880
:10104C00C4F2010145F001062660276843F610063C
:10105C0047F4804525600F6843F6140527F0F0042B
:10106C000C600F6843F6080447F0B0070F600F6878
:10107C0040F2413C27F470670F600F68C4F2010620
:10108C0047F480670F60C4F201054FF00C01C4F205
:10109C000104328019802A80A4F800C01A8891B209
:1010AC0041F4005CA3F800C0AFE700BF101C704710
:1010BC00007A030A00000000000000000102030493
:1010CC0006070809000000000102030401020304E2
:0810DC000607080900100000DE
:040000050800010CE2
:00000001FF
