:020000040800F2
:100000000020002089010008ED0A0008F10A00081C
:10001000F50A0008F90A0008FD0A000800000000BF
:10002000000000000000000000000000050B0008B8
:10003000010B000800000000090B00080D0B000870
:10004000CD010008CD010008CD010008CD01000858
:10005000CD010008CD010008CD010008CD01000848
:10006000CD010008CD010008CD010008CD01000838
:10007000CD010008CD010008CD010008CD01000828
:10008000CD010008CD010008CD010008CD01000818
:10009000CD010008CD010008CD010008CD01000808
:1000A000CD010008CD010008CD010008CD010008F8
:1000B000CD010008950A0008CD010008CD01000817
:1000C000CD010008CD010008CD010008CD010008D8
:1000D000CD010008CD010008CD010008CD010008C8
:1000E000CD010008CD010008CD010008CD010008B8
:1000F000CD010008CD010008CD010008CD010008A8
:10010000CD010008CD010008CD010008CD01000897
:10011000CD010008CD010008CD010008CD01000887
:10012000CD010008CD010008CD010008CD01000877
:10013000CD010008CD010008CD010008CD01000867
:10014000CD010008CD010008CD010008CD01000857
:10015000CD010008CD010008CD010008CD01000847
:10016000CD010008CD010008CD010008CD01000837
:10017000CD010008CD010008CD010008CD01000827
:08018000CD010008CD010008CB
:10018800002103E00A4B5B584350043109480A4BED
:1001980042189A42F6D3094A02E0002342F8043B87
:1001A800074B9A42F9D300F0ABFE00F06DFB7047A5
:1001B800F41700080000002014000020140000209C
:1001C8007C000020FEE7000040F21403C2F20003A6
:1001D800596D1A46536D8B42FCD040F21403C2F29B
:1001E8000003D868704700BF70B54FF44060C4F290
:1001F80002004FF0C70100F01DFD40F21403C2F2E7
:1002080000034FF000025A619A61FFF7DDFF4FF0DB
:10021800040640F21404C2F200046569FFF7D4FF33
:1002280040196061013EF8D140F21403C2F20003A4
:100238005A694FEA92025A614FF44060C4F20200D0
:100248004FF0800100F0F4FCFFF7BEFF4FF0000410
:1002580040F21406C2F20006B569FFF7B5FF40196F
:10026800B06104F10104042CF6D140F21403C2F287
:1002780000039A694FEA92029A614FF44060C4F20F
:1002880002004FF0800100F0D5FC70BD4FF46053C0
:10029800C4F2000398814FF46052C4F2000213893B
:1002A80013F0020FFBD0704708B544F20F00C2F2FA
:1002B80000004FF0010100F039FC4FF480004FF0CE
:1002C800010100F021FC4FF00100014600F01CFC88
:1002D8004FF002004FF0010100F016FC4FF004004F
:1002E8004FF0010100F010FC4FF008004FF0010141
:1002F80000F00AFC4FF4E0604FF0010100F028FC28
:1003080008BD00BF00B583B04FF01D038DF8043061
:100318004FF000038DF805304FF001038DF80630DB
:100328008DF8073001A800F0A7FD03B000BD00BF9D
:100338002DE9F04383B04FF0010000F073FE4FF059
:10034800020700978DF804704FF003088DF80580B8
:100358004FF000048DF806408DF807402646C4F299
:1003680002063046694600F005FC30464FF00101B0
:100378000A4600F061FC4FF00109CDF800908DF8B5
:1003880004708DF805808DF806408DF807403046DA
:10039800694600F0EFFB304621463A4600F04CFC37
:1003A8004FF0800300938DF804708DF805808DF868
:1003B80006408DF807904FF48065C4F20205284680
:1003C800694600F0D7FB28464FF007013A4600F08F
:1003D80033FC00978DF804808DF807404FF40060D7
:1003E800C4F20200694600F0C5FB4FF01003009309
:1003F8008DF804808DF807403046694600F0BAFB56
:100408004FF44066C4F2020630464FF0C70100F0D0
:1004180011FC4FF0C70300938DF804908DF8058008
:100428008DF806408DF807403046694600F0A2FB7B
:100438008DF804708DF806408DF807908DF80590BA
:100448004FF4005300932846694600F093FB284672
:100458004FF00D014FF0050200F0EEFB4FF40043A2
:1004680000932846694600F085FB28464FF00F01A7
:100478004FF0050200F0E0FB03B0BDE8F08300BFD9
:100488002DE9F04389B0684600F0CCFC4FF0FF3509
:1004980006954FF00004A146ADF81440ADF81C4095
:1004A800ADF816404FF0804005A900F0E3FB4FF08F
:1004B80080484FF48073A8F818304FF06703A8F805
:1004C80008300695ADF81440ADF81C40ADF816405C
:1004D8004FF44067C4F20007384605A900F0CAFB8C
:1004E8004FF001063E834FF057033B8142F20F73F2
:1004F8000693ADF81430ADF81C40ADF816404FF433
:100508008065C4F20005284605A900F0B3FB28461B
:100518003146324600F09EFC4046314600F01AFC57
:100528003846314600F016FC2846314600F012FCE9
:1005380006964CF24F33ADF81430ADF81C40ADF8C8
:1005480016408DF81E404FF40065C4F20005284699
:1005580005A900F08FFB4FF06003ADF80030ADF84F
:1005680002600296ADF80C402846694600F002FC8D
:1005780028464FF0080100F061FC2846314600F09B
:10058800D9FB2846314600F0E5FB09B0BDE8F08309
:1005980010B584B0684600F0F1FF4FF000040094F5
:1005A800019403942046694600F0CCFF20464FF0A2
:1005B800010100F0EBFF20464FF4006101F000F864
:1005C80004B010BD30B591B001A800F091FE46F21C
:1005D8001044C4F20204204600F060FD4FF000030E
:1005E800019342F24C02C4F2010202924FF400421B
:1005F800C2F200020392049340F21402C2F2000213
:10060800126C4FEA5202059206934FF480620792E9
:100618004FF4006208924FF4005209920A934FF483
:1006280000320B920C934FF001050D950E930F932A
:10063800204601A900F02CFE2046294600F06AFE5B
:1006480011B030BD70B58AB0684600F0BBFE06A890
:1006580000F0DEFE4FF00004069440F21406C2F2E9
:100668000006F3694FEA034307930894099406A820
:1006780000F0B4FE00948DF804404FF001058DF8A9
:1006880005500294039404948DF814504FF40054C8
:10069800C4F201042046694600F06AFEF36B204666
:1006A8004FF00B012A46DBB200F0C6FE2046294671
:1006B80000F028FF2046294600F018FF204629466A
:1006C80000F0AEFE0AB070BD30B591B001A800F0E0
:1006D8000FFE46F21044C4F20204204600F0DEFC8D
:1006E8004FF00003019342F20832C4F20102029271
:1006F8004FF40042C2F200020392049340F2140243
:10070800C2F20002126C4FEA9202059206934FF46D
:10071800806207924FF4805208924FF48042099207
:100728000A934FF400320B920C934FF001050D958C
:100738000E930F93204601A900F0AAFD20462946F2
:1007480000F0E8FD11B030BD2DE9F0418AB06846EF
:1007580000F038FE06A800F05BFE4FF01703069382
:1007680040F21403C2F200031A6A4FEA0222099205
:100778004FF400420892DB694FEA0343079306A847
:1007880000F02CFE4FF0000600968DF804604FF044
:1007980001048DF805400296039604968DF81440DE
:1007A8004FF40057C4F201073846694600F0E0FDEF
:1007B80038464FF00B012246334600F03DFE4FF419
:1007C8000458C4F201084046694600F0D1FD40468D
:1007D8004FF00B012246334600F02EFE4FF4085529
:1007E800C4F201052846694600F0C2FD28464FF0CC
:1007F8000B012246334600F01FFE3846214600F022
:100808000FFE4046214600F00BFE2846214600F028
:1008180007FE204600F082FE0AB0BDE8F08100BF66
:1008280030B587B04CF20003ADF804304FF4827352
:10083800ADF806304FF40063ADF808304FF0000310
:10084800ADF80A304FF00105ADF80C504FF40073C5
:10085800ADF80E304FF01003ADF810304FF08003B4
:10086800ADF812304FF00703ADF814304FF4605470
:10087800C4F20004204601A900F0B4FE204629462F
:1008880000F0D4FE07B030BD70B5FFF70DFDFFF7DF
:100898004FFDFFF7F5FDFFF735FDFFF779FEFFF791
:1008A800BFFFFFF7A1FC40F21404C2F2000446F2B5
:1008B8001046C4F20206236803F1FF33082B00F246
:1008C800E180DFE803F0050811202F3E5098B600BC
:1008D800FFF78AFCD6E04FF44060C4F202004FF004
:1008E800C70100F0A7F9CDE04FF44065C4F2020556
:1008F80028464FF0870100F09DF928464FF0400147
:1009080000F096F9BEE04FF44065C4F202052846AF
:100918004FF0C60100F08EF928464FF0010100F0B3
:1009280087F9AFE04FF44065C4F2020528464FF05E
:10093800C50100F07FF928464FF0020100F078F970
:10094800A0E04FF44065C4F2020528464FF0C40108
:1009580000F070F928464FF0030100F069F94FF0F4
:10096800000323608EE0616B4FF0000089B200F055
:1009780027FE4FF44065C4F2020528464FF0C50132
:1009880000F058F928464FF0020100F051F9A36B26
:1009980023B1FFF799FEFFF7D7FE03E0FFF712FE3A
:1009A800FFF750FE4FF40053C4F201039A6842F077
:1009B80080429A604FF02005C1F200053046294672
:1009C80000F0B4FC0028F9D04FF40C52C4F2010234
:1009D8004FF0000353604FF40052C4F201029360D9
:1009E8004FF40452C4F2010293604FF40852C4F267
:1009F8000102936046E04FF44065C4F202052846C0
:100A08004FF0C60100F016F928464FF0010100F03A
:100A18000FF962684FF40063C4F20003DA62626897
:100A280002F101024FEA52029A63A26892B21A8551
:100A380028E0B4F844309BB2012B0DD14FF00100EF
:100A4800FFF724FCA06C80B2FFF720FCA06C4FEAF3
:100A58001040FFF71BFC15E0B4F844309BB2022BA2
:100A680010D14FF00200FFF711FCB4F8460080B235
:100A7800FFF70CFCE06C80B2FFF708FC206D80B239
:100A8800FFF704FC4FF00003236014E708B54FF0AC
:100A980080435A6A40F21403C2F20003DA654FF445
:100AA8004062C4F20002526A5A66D96D9A6D8A1A77
:100AB800DA60DA6D9A65596E1A6E8A1A1A615A6E78
:100AC8001A665A6D02F101025A654FF48060C4F249
:100AD80000004FF0010100F0C9F94FF0010000F0EB
:100AE800CBFA08BD704700BFFEE700BFFEE700BFB6
:100AF800FEE700BFFEE700BF704700BF704700BFBA
:100B0800704700BF704700BF39B14FF46053C4F25B
:100B180002031A6B1043186370474FF46053C4F212
:100B280002031A6B22EA00001863704739B14FF4C8
:100B38006053C4F202031A6C1043186470474FF4F0
:100B48006053C4F202031A6C22EA0000186470476A
:100B580039B14FF46053C4F202035A6C104358641D
:100B680070474FF46053C4F202035A6C22EA000043
:100B7800586470472DE9F0074FF0000213464FF014
:100B880001074FF0030C1E4607FA03F40D6804EA48
:100B98000505A54243D1D0F8009090460CFA02F41E
:100BA8006FEA040404EA0909C0F80090D0F800A02C
:100BB80091F8049009FA02F949EA0A09C0F8009084
:100BC80091F8049009F1FF395FFA89F9B9F1010F39
:100BD8001CD8D0F8089004EA0909C0F80890D0F8A1
:100BE80008A091F8059009FA02F949EA0A09C0F83B
:100BF8000890D0F8049029EA05054560456891F801
:100C0800069009FA03F6B6B22E434660C5682C4032
:100C1800C460C568CC7904FA08F42C43C46003F1B5
:100C2800010302F10202102BADD1BDE8F0077047B5
:100C3800018370474183704730B401F007034FEADE
:100C480083034FEAD10101F1080150F821504FF018
:100C58000F0404FA03F425EA040440F8214050F88C
:100C6800214002FA03F343EA040440F8214030BC6F
:100C7800704700BF30B403889BB24FF00002C4F243
:100C880001024FF48064C4F20104A04214BF00249E
:100C98000124904208BF44F00104FCB94FF480627B
:100CA800C4F20002904214BF00220122B0F1804F2A
:100CB80008BF42F001028AB94FF40062C4F2000290
:100CC8004FF44065C4F20005A84214BF0025012571
:100CD800904214BF2A4645F0010232B14FF68F7296
:100CE80003EA02024B8842EA03034FF48052C4F23B
:100CF80000024FF4A055C4F20005451B18BF01259A
:100D080090420CBF002205F0010232B14FF6FF42BB
:100D180003EA02020B8942EA030303804B68C362B9
:100D28000B8803850CB18B7A03864FF0010383820D
:100D380030BC704729B103889BB243F0800303801D
:100D48007047038823F080034FEA03434FEA1343B5
:100D58000380704729B103889BB243F001030380E5
:100D68007047038823F001034FEA03434FEA134314
:100D78000380704770B4038C23F010034FEA0343D9
:100D88004FEA13430384038C8488A4B2028B22F4B1
:100D9800E6424FEA02424FEA12420D8842EA052231
:100DA80092B223F020034FEA03434FEA13438D899D
:100DB80043EA05134D8843EA05139BB24FF000053B
:100DC800C4F201054FF48066C4F20106B04214BFB4
:100DD80000260126A84214BF354646F00105CDB1CC
:100DE8004FF67F7503EA0505CB8945EA03154FF6EB
:100DF800BF7305EA03038D8843EA05139BB24FF2DC
:100E0800FF3504EA05050C8A45EA84054C8A45EA5B
:100E18008404A4B2848002838A688263038470BCD9
:100E2800704700BF4FF000030380438083808360D6
:100E38008381C38103824382704700BF038B23F4FD
:100E480000634FEA03434FEA134343EA01239BB28B
:100E58000383704722B183899BB21943818170470C
:100E680083899BB223EA0101818170476FEA0101FE
:100E780089B20182704700BF10B4C3786BB34FF4D6
:100E88006D43CEF20003DB686FEA0303C3F302236A
:100E98004178C3F10402D2B201FA02F2D2B24FF0A1
:100EA8000F0141FA03F18478214011434FEA0111FF
:100EB800C9B202784FF46143CEF200039A1882F85F
:100EC800001302784FEA521102F01F024FF001009E
:100ED80000FA02F243F8212010E003784FEA531297
:100EE80003F01F034FF0010101FA03F14FF46143CE
:100EF800CEF2000302F1200243F8221010BC704722
:100F080082B04FF46053C4F202031A6842F001023F
:100F18001A604FF000029A60196821F0847121F478
:100F28008031196043F21001C2F20041596019681A
:100F380021F480211960DA60019200921A6842F463
:100F480080321A604FF46052C4F20202136803F44C
:100F580000330093019B03F101030193009B1BB92C
:100F6800019BB3F5A06FF1D14FF46053C4F20203B3
:100F78001B6813F4003F14BF012300230093009B58
:100F8800012B46D14FF46053C4F202031A6C42F0AD
:100F980080521A644FF4E042C4F20002116841F42E
:100FA800804111609A689A609A6842F400429A6097
:100FB8009A6842F4A0529A6046F20842C0F240721F
:100FC8005A601A6842F080721A604FF46052C4F294
:100FD8000202136813F0007FFBD04FF47053C4F281
:100FE800020340F205621A604FF46053C4F2020330
:100FF8009A6822F003029A609A6842F002029A60A4
:101008004FF46052C4F20202936803F00C03082BF9
:10101800FAD14FF46D43CEF200034FF000629A60AC
:1010280002B0704730B583B0054641F2C474C0F6CB
:10103800000454F820004FF00101FFF765FD04EBB0
:101048004504238A00934FF001038DF804304FF0D4
:1010580000028DF806208DF807304FF002038DF856
:10106800053040F20003C2F2000353F82500694638
:10107800FFF780FD03B030BD40F20002C2F200026B
:1010880052F82020516941F2C473C0F6000303EB03
:1010980040031B8A4B405361704700BF036823F02D
:1010A800010303604FF00003036043608360C36083
:1010B80003614FF02103436146F21003C4F20203B7
:1010C800984207D14FF4C043C4F202034FF03D02E7
:1010D8009A60704746F22803C4F20203984207D187
:1010E8004FF4C043C4F202034FF474629A6070472D
:1010F80046F24003C4F20203984207D14FF4C043BA
:10110800C4F202034FF474129A60704746F258030F
:10111800C4F20203984207D14FF4C043C4F2020359
:101128004FF074629A60704746F27003C4F202038B
:10113800984209D14FF4C043C4F202034FF03D0274
:10114800C2F20002DA60704746F28803C4F2020372
:10115800984209D14FF4C043C4F202034FF47462B9
:10116800C2F20002DA60704746F2A003C4F202033A
:10117800984209D14FF4C043C4F202034FF0000271
:10118800C2F23D02DA60704746F2B803C4F20203C5
:10119800984207D14FF4C043C4F202034FF03D52C6
:1011A800DA60704746F21043C4F20203984207D14E
:1011B8004FF4C843C4F202034FF03D029A607047EF
:1011C80046F22843C4F20203984207D14FF4C843B9
:1011D800C4F202034FF474629A60704746F24043C7
:1011E800C4F20203984207D14FF4C843C4F2020381
:1011F8004FF474129A60704746F25843C4F20203DF
:10120800984207D14FF4C843C4F202034FF0746206
:101218009A60704746F27043C4F20203984209D1BB
:101228004FF4C843C4F202034FF03D02C2F2000279
:10123800DA60704746F28843C4F20203984209D143
:101248004FF4C843C4F202034FF47462C2F20002BE
:10125800DA60704746F2A043C4F20203984209D10B
:101268004FF4C843C4F202034FF00002C2F23D0239
:10127800DA60704746F2B843C4F20203984201BFED
:101288004FF4C843C4F202034FF03D52DA6070478E
:1012980010B4026848F23F03CFF21C0302EA0303CA
:1012A800CC680A6844EA02024C6922438C692243EA
:1012B800CC6922430C6A22434C6A22438C6A22433B
:1012C8004C6B22438C6B224342EA0303036042695E
:1012D80022F007020C6BCB6A44EA03031343436111
:1012E8000B6943604B6883608B68C36010BC7047B0
:1012F8004FF00003036043608360C3600361436190
:101308008361C361036243628362C36203634363AD
:101318008363704721B1036843F00103036070479A
:10132800036823F001030360704700BF10B446F25E
:101338000F44C4F202044FF4C842C4F202024FF44C
:10134800C043C4F20203A0428CBF1046184611F0F5
:10135800005F14BF4268026840F67D73C0F67D7373
:1013680001EA030313420CBF0020012010BC7047A0
:1013780030B4436823F0407323F480730A6813433E
:101388000A7943EA022343608468CA680B691A43EE
:101398008D682A434FF2FD73CCF2FF0304EA03037E
:1013A80042EA03034A7943EA42038360C26A22F4A9
:1013B80070020B7D03F1FF33DBB242EA0353C362D1
:1013C80030BC70474FF000030360037143718360C2
:1013D800C36003614FF001030375704710B44FF405
:1013E8000C52C4F20102516843F2E003CFF6FC73D9
:1013F80001EA03034468016844EA0101846821435F
:10140800C068014341EA0303536010BC704700BF42
:101418004FF00003036043608360C360704700BF00
:1014280021B1836843F0010383607047836823F028
:1014380001038360704700BF70B4092910D9C668DA
:1014480001EB4104A4F11E044FF0070505FA04F569
:1014580026EA050503FA04F445EA0403C3600DE02F
:10146800066901EB41044FF0070505FA04F526EA81
:10147800050503FA04F445EA04030361062A10D8B3
:10148800446B02F1FF3202EB82024FF01F0303FAB2
:1014980002F324EA030301FA02F143EA0102426378
:1014A80022E00C2A10D8046B02EB8202A2F123027C
:1014B8004FF01F0303FA02F324EA030301FA02F1CF
:1014C80043EA010202630FE0C46A02EB8202A2F15E
:1014D80041024FF01F0303FA02F324EA030301FA5F
:1014E80002F143EA0102C26270BC704721B183680D
:1014F80043F4807383607047836823F48073836048
:10150800704700BF21B1836843F40073836070475C
:10151800836823F400738360704700BF40B14FF4C1
:101528000C53C4F201035A6842F400525A607047DF
:101538004FF40C53C4F201035A6822F400525A6063
:10154800704700BF30B44FF4E843C4F200031C688E
:1015580040F6FE7202FA00F224EA02024D680C68B4
:1015680025438C682543CC6845EA040101FA00F05C
:1015780042EA0000186030BC704700BF4FF000031B
:10158800036043608360C360704700BF59B14FF484
:10159800E843C4F200031A684FF0010101FA00F0B1
:1015A8001043186070474FF4E843C4F200031A6808
:1015B8004FF0010101FA00F022EA000018607047BC
:1015C80082B04FF0000301934FF4E843C4F20003E4
:1015D8000193019B03F108031B180193019B1960F8
:1015E80002B0704710B4028802F441524C880B884C
:1015F80044EA03038C882343CC8823430C89234380
:101608004C8923438C892343CC89234342EA03032F
:101618009BB20380838B23F400634FEA03434FEAB2
:10162800134383830B8A038210BC704729B1038854
:101638009BB243F0400303807047038823F04003C4
:101648004FEA03434FEA13430380704743F60C0302
:10165800C4F201031A88F0B412F4005212D00A2816
:1016680051D043F60002C4F20102B2F800C01CF0E7
:10167800800FFAD043F6040380B2C4F20103188045
:10168800F0BC704741F21804C4F20204266840F620
:10169800040146F0040727602568C4F2010145F0FB
:1016A80001062660276843F6100647F48045256042
:1016B8000F6843F6140527F0F0040C600F6843F632
:1016C800080447F0B0070F600F684FF00C0C27F4C0
:1016D80070670F600F68C4F2010647F480670F60F7
:1016E800C4F2010540F24131C4F201043280A3F88A
:1016F80000C02A8021801A880A281FFA82FC4CF42C
:1017080000511980ADD143F60C03C4F201031A88C5
:1017180012F400520FD043F60002C4F201021388FB
:1017280013F0800FFBD043F60401C4F201014FF01F
:101738000D020A8095E741F21804C4F202042668F3
:1017480040F6040146F0040727602568C4F2010149
:1017580045F001062660276843F6100647F48045E1
:1017680025600F6843F6140527F0F0040C600F6835
:1017780043F6080447F0B0070F600F6840F2413C99
:1017880027F470670F600F68C4F2010647F480679A
:101798000F60C4F201054FF00C01C4F2010432805D
:1017A80019802A80A4F800C01A8891B241F4005C1C
:1017B800A3F800C0AFE700BF101C70470800000086
:1017C80008000000080000000800000000100020C9
:1017D800004000800100000001000000000000003F
:0C17E800000000000100000006000000EE
:1017F400000C0240000C0240000C0240000C0240AD
:04180400000002409E
:040000050800018866
:00000001FF
