:020000040800F2
:100000000020002089010008310900083509000896
:10001000390900083D0900084109000800000000F6
:100020000000000000000000000000004909000876
:1000300045090008000000004D09000851090008AA
:10004000CD010008CD010008CD010008CD01000858
:10005000CD010008CD010008CD010008CD01000848
:10006000CD010008CD010008CD010008CD01000838
:10007000CD010008CD010008CD010008CD01000828
:10008000CD010008CD010008CD010008CD01000818
:10009000CD010008CD010008CD010008CD01000808
:1000A000CD010008CD010008CD010008CD010008F8
:1000B000CD010008D9080008CD010008CD010008D5
:1000C000CD010008CD010008CD010008CD010008D8
:1000D000CD010008CD010008CD010008CD010008C8
:1000E000CD010008CD010008CD010008CD010008B8
:1000F000CD010008CD010008CD010008CD010008A8
:10010000CD010008CD010008CD010008CD01000897
:10011000CD010008CD010008CD010008CD01000887
:10012000CD010008CD010008CD010008CD01000877
:10013000CD010008CD010008CD010008CD01000867
:10014000CD010008CD010008CD010008CD01000857
:10015000CD010008CD010008CD010008CD01000847
:10016000CD010008CD010008CD010008CD01000837
:10017000CD010008CD010008CD010008CD01000827
:08018000CD010008CD010008CB
:10018800002103E00A4B5B584350043109480A4BED
:1001980042189A42F6D3094A02E0002342F8043B87
:1001A800074B9A42F9D300F0CDFD00F07FFA704773
:1001B800A0150008000000201400002014000020F2
:1001C8005C000020FEE7000040F21403C2F20003C6
:1001D800596B1A46536B8B42FCD040F21403C2F29F
:1001E80000039868704700BF70B54FF44060C4F2D0
:1001F80002004FF0C70100F03FFC40F21403C2F2C6
:1002080000034FF000021A615A61FFF7DDFF4FF05B
:10021800040640F21404C2F200042569FFF7D4FF73
:1002280040192061013EF8D140F21403C2F20003E4
:100238001A694FEA92021A614FF44060C4F2020050
:100248004FF0800100F016FCFFF7BEFF4FF00004EE
:1002580040F21406C2F200067569FFF7B5FF4019AF
:10026800706104F10104042CF6D140F21403C2F2C7
:1002780000035A694FEA92025A614FF44060C4F28F
:1002880002004FF0800100F0F7FB70BD08B54FF099
:100298000F00C2F200004FF0010100F069FB4FF4BB
:1002A80080004FF0010100F051FB4FF001000146C2
:1002B80000F04CFB4FF002004FF0010100F046FB4C
:1002C8004FF004004FF0010100F040FB4FF0080030
:1002D8004FF0010100F03AFB4FF4E0604FF00101EC
:1002E80000F058FB08BD00BF00B583B04FF01D03F8
:1002F8008DF804304FF000038DF805304FF00103FE
:100308008DF806308DF8073001A800F0D7FC03B04F
:1003180000BD00BF2DE9F04383B04FF0010000F0AD
:10032800A3FD4FF0020700978DF804704FF0030803
:100338008DF805804FF000048DF806408DF80740D1
:100348002646C4F202063046694600F035FB3046C0
:100358004FF001010A4600F091FB4FF00109CDF87A
:1003680000908DF804708DF805808DF806408DF8A2
:1003780007403046694600F01FFB304621463A46A2
:1003880000F07CFB4FF0800300938DF804708DF82B
:1003980005808DF806408DF807904FF48065C4F20B
:1003A80002052846694600F007FB28464FF007017A
:1003B8003A4600F063FB00978DF804808DF80740FB
:1003C8004FF40060C4F20200694600F0F5FA4FF0FD
:1003D800100300938DF804808DF807403046694675
:1003E80000F0EAFA4FF44065C4F2020528464FF0DF
:1003F800C70100F041FB4FF0C70300938DF804904C
:100408008DF805808DF806408DF807402846694626
:1004180000F0D2FA03B0BDE8F08300BF2DE9F04345
:1004280089B0684600F020FC4FF0FF3506954FF084
:100438000004A146ADF81440ADF81C40ADF81640D4
:100448004FF0804005A900F037FB4FF080484FF48B
:100458008073A8F818304FF06703A8F8083006959D
:10046800ADF81440ADF81C40ADF816404FF44067A5
:10047800C4F20007384605A900F01EFB4FF001063C
:100488003E834FF057033B8142F20F730693ADF85A
:100498001430ADF81C40ADF816404FF48065C4F236
:1004A8000005284605A900F007FB284631463246D4
:1004B80000F0F2FB4046314600F06EFB384631460C
:1004C80000F06AFB2846314600F066FB06964CF2BF
:1004D8004F33ADF81430ADF81C40ADF816408DF828
:1004E8001E404FF40065C4F20005284605A900F037
:1004F800E3FA4FF06003ADF80030ADF80260029601
:10050800ADF80C402846694600F056FB28464FF0E7
:10051800080100F0B5FB2846314600F02DFB2846BF
:10052800314600F039FB09B0BDE8F08310B584B05E
:10053800684600F02DFF4FF00004009401940394E6
:100548002046694600F008FF20464FF0010100F000
:1005580027FF20464FF4006100F03CFF04B010BDB7
:1005680030B591B001A800F0E5FD46F21044C4F2A0
:100578000204204600F0B4FC4FF00003019342F25D
:100588000832C4F2010202924FF40042C2F20002A1
:10059800039204934FF48042059206934FF48061CE
:1005A80007914FF48051089109920A934FF4003251
:1005B8000B920C934FF001050D950E930F93204667
:1005C80001A900F087FD2046294600F0C5FD11B0BD
:1005D80030BD00BF2DE9F0418AB0684600F014FE36
:1005E80006A800F037FE4FF01703069340F21403F5
:1005F800C2F20003DA694FEA022209924FF400427C
:1006080008929B694FEA0343079306A800F008FE87
:100618004FF0000600968DF804604FF001048DF845
:1006280005400296039604968DF814404FF400573F
:10063800C4F201073846694600F0BCFD38464FF061
:100648000B012246334600F019FE4FF40458C4F259
:1006580001084046694600F0ADFD40464FF00B01E9
:100668002246334600F00AFE4FF40855C4F201054D
:100678002846694600F09EFD28464FF00B012246A9
:10068800334600F0FBFD3846214600F0EBFD4046BE
:10069800214600F0E7FD2846214600F0E3FD20460C
:1006A80000F046FE0AB0BDE8F08100BF70B582B028
:1006B800FFF7ECFDFFF72EFEFFF7B0FEFFF714FE85
:1006C800FFF734FFFFF790FD40F21404C2F2000474
:1006D80046F21046C4F20206236803F1FF33072BE3
:1006E800FAD8DFE813F008000E001A002C003E00CC
:1006F80050006200DB00FFF777FD4FF00003236036
:10070800EAE74FF44060C4F202004FF0C70100F07E
:10071800B3F94FF000032360DEE74FF44065C4F2FD
:10072800020528464FF0870100F0A6F928464FF049
:10073800400100F09FF94FF000032360CCE74FF42D
:100748004065C4F2020528464FF0C60100F094F94E
:1007580028464FF0010100F08DF94FF000032360A7
:10076800BAE74FF44065C4F2020528464FF0C501C8
:1007780000F082F928464FF0020100F07BF94FF0B3
:1007880000032360A8E74FF44065C4F20205284639
:100798004FF0C40100F070F928464FF0030100F053
:1007A80069F94FF00003236096E7216B4FF00000D2
:1007B80089B200F00FFE4FF44065C4F202052846E6
:1007C8004FF0C50100F058F928464FF0020100F03B
:1007D80051F9FFF7C5FEFFF7FDFE636B03F1030355
:1007E8000093236A012B02D0022B2DD116E04FF47F
:1007F8004063C4F200034FF000021A845B6A01935D
:100808004FF44061C4F2000103E0626B009B9A421E
:100818001AD04A6A019B9A42F7D015E04FF4406318
:10082800C4F200034FF002021A845B6A01934FF48A
:100838004061C4F2000103E0626B009B9A4203D05E
:100848004A6A019B9A42F7D04FF40053C4F201035D
:100858009A6842F080429A604FF02005C1F2000584
:100868003046294600F084FC0028F9D04FF40C5299
:10087800C4F201024FF0000353604FF40052C4F277
:10088800010293604FF40452C4F2010293604FF4E2
:100898000852C4F20102936023601DE74FF44065DB
:1008A800C4F2020528464FF0C60100F0E5F82846D4
:1008B8004FF0010100F0DEF8626892B24FF4006375
:1008C800C4F200031A854FF00003236004E700BF59
:1008D80008B54FF080435A6A40F21403C2F200038D
:1008E800DA634FF44062C4F20002526A5A64D96B68
:1008F8009A6B8A1A9A60DA6B9A63596C1A6C8A1A1C
:10090800DA605A6C1A645A6B02F101025A634FF4A6
:100918008060C4F200004FF0010100F0C9F94FF007
:10092800010000F0CBFA08BD704700BFFEE700BF2A
:10093800FEE700BFFEE700BFFEE700BF704700BF4D
:10094800704700BF704700BF704700BF39B14FF410
:100958006053C4F202031A6B1043186370474FF4D4
:100968006053C4F202031A6B22EA0000186370474E
:1009780039B14FF46053C4F202031A6C104318647F
:1009880070474FF46053C4F202031A6C22EA000065
:100998001864704739B14FF46053C4F202035A6CBB
:1009A8001043586470474FF46053C4F202035A6C02
:1009B80022EA0000586470472DE9F0074FF0000262
:1009C80013464FF001074FF0030C1E4607FA03F4D5
:1009D8000D6804EA0505A54243D1D0F80090904679
:1009E8000CFA02F46FEA040404EA0909C0F800905A
:1009F800D0F800A091F8049009FA02F949EA0A0926
:100A0800C0F8009091F8049009F1FF395FFA89F96C
:100A1800B9F1010F1CD8D0F8089004EA0909C0F808
:100A28000890D0F808A091F8059009FA02F949EA67
:100A38000A09C0F80890D0F8049029EA050545602D
:100A4800456891F8069009FA03F6B6B22E43466057
:100A5800C5682C40C460C568CC7904FA08F42C43F6
:100A6800C46003F1010302F10202102BADD1BDE80D
:100A7800F0077047018370474183704730B401F035
:100A880007034FEA83034FEAD10101F1080150F847
:100A980021504FF00F0404FA03F425EA040440F847
:100AA800214050F8214002FA03F343EA040440F8D5
:100AB800214030BC704700BF30B403889BB24FF070
:100AC8000002C4F201024FF48064C4F20104A0429F
:100AD80014BF00240124904208BF44F00104FCB96B
:100AE8004FF48062C4F20002904214BF0022012237
:100AF800B0F1804F08BF42F001028AB94FF400629A
:100B0800C4F200024FF44065C4F20005A84214BFC5
:100B180000250125904214BF2A4645F0010232B152
:100B28004FF68F7203EA02024B8842EA03034FF43E
:100B38008052C4F200024FF4A055C4F20005451BD0
:100B480018BF012590420CBF002205F0010232B106
:100B58004FF6FF4203EA02020B8942EA03030380CD
:100B68004B68C3620B8803850CB18B7A03864FF000
:100B78000103838230BC704729B103889BB243F0DC
:100B8800800303807047038823F080034FEA034300
:100B98004FEA13430380704729B103889BB243F09F
:100BA800010303807047038823F001034FEA0343DE
:100BB8004FEA13430380704770B4038C23F010038B
:100BC8004FEA03434FEA13430384038C8488A4B297
:100BD800028B22F4E6424FEA02424FEA12420D88A3
:100BE80042EA052292B223F020034FEA03434FEA78
:100BF80013438D8943EA05134D8843EA05139BB2D5
:100C08004FF00005C4F201054FF48066C4F20106F6
:100C1800B04214BF00260126A84214BF354646F04C
:100C28000105CDB14FF67F7503EA0505CB8945EA85
:100C380003154FF6BF7305EA03038D8843EA0513CE
:100C48009BB24FF2FF3504EA05050C8A45EA840594
:100C58004C8A45EA8404A4B2848002838A68826349
:100C6800038470BC704700BF4FF0000303804380CB
:100C7800838083608381C38103824382704700BF7E
:100C8800038B23F400634FEA03434FEA134343EA19
:100C980001239BB20383704722B183899BB2194316
:100CA8008181704783899BB223EA01018181704762
:100CB8006FEA010189B20182704700BF10B4C3789E
:100CC8006BB34FF46D43CEF20003DB686FEA0303A6
:100CD800C3F302234178C3F10402D2B201FA02F24B
:100CE800D2B24FF00F0141FA03F184782140114349
:100CF8004FEA0111C9B202784FF46143CEF2000302
:100D08009A1882F8001302784FEA521102F01F0273
:100D18004FF0010000FA02F243F8212010E00378B6
:100D28004FEA531203F01F034FF0010101FA03F1D8
:100D38004FF46143CEF2000302F1200243F822107F
:100D480010BC704782B04FF46053C4F202031A68B3
:100D580042F001021A604FF000029A60196821F00F
:100D6800847121F48031196043F21001C2F200410C
:100D78005960196821F480211960DA6001920092A3
:100D88001A6842F480321A604FF46052C4F20202C8
:100D9800136803F400330093019B03F101030193EB
:100DA800009B1BB9019BB3F5A06FF1D14FF46053C1
:100DB800C4F202031B6813F4003F14BF012300238D
:100DC8000093009B012B46D14FF46053C4F20203F9
:100DD8001A6C42F080521A644FF4E042C4F20002E6
:100DE800116841F4804111609A689A609A6842F4E7
:100DF80000429A609A6842F4A0529A6046F2084209
:100E0800C0F240725A601A6842F080721A604FF459
:100E18006052C4F20202136813F0007FFBD04FF453
:100E28007053C4F2020340F205621A604FF4605333
:100E3800C4F202039A6822F003029A609A6842F0A8
:100E480002029A604FF46052C4F20202936803F0FF
:100E58000C03082BFAD14FF46D43CEF200034FF088
:100E680000629A6002B0704730B583B0054641F21F
:100E78007054C0F6000454F820004FF00101FFF749
:100E880065FD04EB4504238A00934FF001038DF8B8
:100E980004304FF000028DF806208DF807304FF02F
:100EA80002038DF8053040F20003C2F2000353F844
:100EB80025006946FFF780FD03B030BD40F200020F
:100EC800C2F2000252F82020516941F27053C0F674
:100ED800000303EB40031B8A4B405361704700BF7C
:100EE800036823F0010303604FF0000303604360CD
:100EF8008360C36003614FF02103436146F210032E
:100F0800C4F20203984207D14FF4C043C4F202036B
:100F18004FF03D029A60704746F22803C4F202037C
:100F2800984207D14FF4C043C4F202034FF47462ED
:100F38009A60704746F24003C4F20203984207D110
:100F48004FF4C043C4F202034FF474129A6070471E
:100F580046F25803C4F20203984207D14FF4C04343
:100F6800C4F202034FF074629A60704746F270034D
:100F7800C4F20203984209D14FF4C043C4F20203F9
:100F88004FF03D02C2F20002DA60704746F2880371
:100F9800C4F20203984209D14FF4C043C4F20203D9
:100FA8004FF47462C2F20002DA60704746F2A0039E
:100FB800C4F20203984209D14FF4C043C4F20203B9
:100FC8004FF00002C2F23D02DA60704746F2B80301
:100FD800C4F20203984207D14FF4C043C4F202039B
:100FE8004FF03D52DA60704746F21043C4F20203F4
:100FF800984207D14FF4C843C4F202034FF03D02B0
:101008009A60704746F22843C4F20203984207D117
:101018004FF4C843C4F202034FF474629A607047F5
:1010280046F24043C4F20203984207D14FF4C84342
:10103800C4F202034FF474129A60704746F25843A0
:10104800C4F20203984207D14FF4C843C4F2020322
:101058004FF074629A60704746F27043C4F202031C
:10106800984209D14FF4C843C4F202034FF03D023D
:10107800C2F20002DA60704746F28843C4F2020303
:10108800984209D14FF4C843C4F202034FF4746282
:10109800C2F20002DA60704746F2A043C4F20203CB
:1010A800984209D14FF4C843C4F202034FF000023A
:1010B800C2F23D02DA60704746F2B843C4F2020356
:1010C800984201BF4FF4C843C4F202034FF03D52A7
:1010D800DA60704710B4026848F23F03CFF21C038D
:1010E80002EA0303CC680A6844EA02024C69224314
:1010F8008C692243CC6922430C6A22434C6A2243FE
:101108008C6A22434C6B22438C6B224342EA0303D2
:101118000360426922F007020C6BCB6A44EA0303BE
:10112800134343610B6943604B6883608B68C360FA
:1011380010BC70474FF00003036043608360C360D6
:10114800036143618361C361036243628362C36273
:10115800036343638363704721B1036843F001036A
:1011680003607047036823F001030360704700BF02
:1011780010B446F20F44C4F202044FF4C842C4F259
:1011880002024FF4C043C4F20203A0428CBF1046CF
:10119800184611F0005F14BF4268026840F67D737C
:1011A800C0F67D7301EA030313420CBF002001203F
:1011B80010BC704730B4436823F0407323F4807345
:1011C8000A6813430A7943EA022343608468CA68B9
:1011D8000B691A438D682A434FF2FD73CCF2FF0363
:1011E80004EA030342EA03034A7943EA42038360B9
:1011F800C26A22F470020B7D03F1FF33DBB242EACC
:101208000353C36230BC70474FF00003036003719F
:1012180043718360C36003614FF001030375704736
:1012280010B44FF40C52C4F20102516843F2E003C7
:10123800CFF6FC7301EA03034468016844EA01013C
:1012480084682143C068014341EA0303536010BC2A
:10125800704700BF4FF00003036043608360C360C2
:10126800704700BF21B1836843F001038360704772
:10127800836823F001038360704700BF70B40929B5
:1012880010D9C66801EB4104A4F11E044FF007050C
:1012980005FA04F526EA050503FA04F445EA040309
:1012A800C3600DE0066901EB41044FF0070505FA3C
:1012B80004F526EA050503FA04F445EA0403036184
:1012C800062A10D8446B02F1FF3202EB82024FF07B
:1012D8001F0303FA02F324EA030301FA02F143EAC3
:1012E8000102426322E00C2A10D8046B02EB82024E
:1012F800A2F123024FF01F0303FA02F324EA0303C7
:1013080001FA02F143EA010202630FE0C46A02EB48
:101318008202A2F141024FF01F0303FA02F324EA0A
:10132800030301FA02F143EA0102C26270BC70478A
:1013380040B14FF40C53C4F201035A6842F400520E
:101348005A6070474FF40C53C4F201035A6822F4F0
:1013580000525A60704700BF30B44FF4E843C4F2FB
:1013680000031C6840F6FE7202FA00F224EA020248
:101378004D680C6825438C682543CC6845EA040110
:1013880001FA00F042EA0000186030BC704700BF64
:101398004FF00003036043608360C360704700BF81
:1013A80059B14FF4E843C4F200031A684FF0010141
:1013B80001FA00F01043186070474FF4E843C4F294
:1013C80000031A684FF0010101FA00F022EA000058
:1013D8001860704782B04FF0000301934FF4E84360
:1013E800C4F200030193019B03F108031B18019346
:1013F800019B196002B0704743F60C03C4F2010365
:101408001A88F0B412F4005212D00A2851D043F6C8
:101418000002C4F20102B2F800C01CF0800FFAD03A
:1014280043F6040380B2C4F201031880F0BC70478D
:1014380041F21804C4F20204266840F6040146F09A
:10144800040727602568C4F2010145F001062660FB
:10145800276843F6100647F4804525600F6843F671
:10146800140527F0F0040C600F6843F6080447F0F1
:10147800B0070F600F684FF00C0C27F470670F600F
:101488000F68C4F2010647F480670F60C4F20105D3
:1014980040F24131C4F201043280A3F800C02A802E
:1014A80021801A880A281FFA82FC4CF400511980FE
:1014B800ADD143F60C03C4F201031A8812F40052AA
:1014C8000FD043F60002C4F20102138813F0800F14
:1014D800FBD043F60401C4F201014FF00D020A806B
:1014E80095E741F21804C4F20204266840F60401A4
:1014F80046F0040727602568C4F2010145F001069B
:101508002660276843F6100647F4804525600F6873
:1015180043F6140527F0F0040C600F6843F608043E
:1015280047F0B0070F600F6840F2413C27F470673E
:101538000F600F68C4F2010647F480670F60C4F2B9
:1015480001054FF00C01C4F20104328019802A8091
:10155800A4F800C01A8891B241F4005CA3F800C056
:10156800AFE700BF101C704708000000080000002B
:101578000800000008000000001000200040008063
:101588000100000001000000000000000000000051
:08159800010000000600000044
:1015A000000C0240000C0240000C0240000C024003
:0415B00000000240F5
:040000050800018866
:00000001FF
