:020000040800F2
:100000000020002089010008350400083904000898
:100010003D040008410400084504000800000000F9
:10002000000000000000000000000000490400087B
:100030004D040008000000005104000855040008A9
:10004000CD010008CD010008CD010008CD01000858
:10005000CD010008CD010008CD010008CD01000848
:10006000CD010008CD010008CD010008CD01000838
:10007000CD010008CD010008CD010008CD01000828
:10008000CD010008CD010008CD010008CD01000818
:10009000CD010008CD010008CD010008CD01000808
:1000A000CD010008CD010008CD010008CD010008F8
:1000B000CD010008CD010008CD010008CD010008E8
:1000C000CD010008CD010008CD010008CD010008D8
:1000D000CD010008CD010008CD010008CD010008C8
:1000E000CD010008CD010008CD010008CD010008B8
:1000F000CD010008CD010008CD010008CD010008A8
:10010000CD010008CD010008CD010008CD01000897
:10011000CD010008CD010008CD010008CD01000887
:10012000CD010008CD010008CD010008CD01000877
:10013000CD010008CD010008CD010008CD01000867
:10014000CD010008CD010008CD010008CD01000857
:10015000CD010008CD010008CD010008CD01000847
:10016000CD010008CD010008CD010008CD01000837
:10017000CD010008CD010008CD010008CD01000827
:08018000CD010008CD010008CB
:10018800002103E00A4B5B584350043109480A4BED
:1001980042189A42F6D3094A02E0002342F8043B87
:1001A800074B9A42F9D300F053F900F06FF8704703
:1001B800540C00080000002000000020000000206F
:1001C8001C050020FEE700002DE9F0438BB04FF03E
:1001D800A70308934FF00004A046ADF81C40ADF803
:1001E8002440ADF81E408DF826404FF44065C4F217
:1001F8000005284607A900F07BFB4FF06003ADF827
:1002080008304FF00107ADF80A70ADF80C404FF018
:1002180053030493ADF814404FF00206B146ADF80D
:100228001660ADF81840ADF81A40284602A900F04B
:10023800DFFB28464FF0080100F030FC284639461D
:1002480000F0B6FB2846394600F034FC4FF00403B2
:1002580000938DF804604FF003038DF805308DF896
:1002680006408DF80740C4F202042046694600F0B3
:100278008DFA20463146324600F0E6FA28463946DD
:1002880000F0A6FB0BB0BDE8F08300BF70B54FF0DF
:100298000500C0F240004FF0010100F0F3FA4FF4FE
:1002A800E0604FF0010100F011FB4FF008004FF043
:1002B800010100F0F9FAFFF787FF40F2C841C2F2E6
:1002C80000014FF004030B6003F1FF330B714FF093
:1002D8000004CC714FF40060C4F2020000F056FA3A
:1002E80040F2D041C2F200010C6042F20833C4F27D
:1002F80001034B6040F20003C2F200038B60CC6044
:100308004FF461730B614C6103F17C038B614FF413
:100318008053CB614FF480430B624C624FF400333F
:100328008B62CC624FF001060E634C638C6346F21D
:100338001040C4F2020000F0EDF946F21040C4F299
:100348000200314600F016FA40F20C50C2F20000EA
:100358004FF017030360C4604FF4004383604460A8
:1003680000F032F940F2B045C2F200052C602C7161
:100378006E71AC602C612E754FF40050C4F2010010
:10038800294600F0F7F84FF40050C4F201004FF08E
:100398000C013246234600F03DF94FF40050C4F2F8
:1003A8000100314600F096F94FF40450C4F2010000
:1003B800294600F0DFF84FF40450C4F201004FF072
:1003C8000C013246234600F025F94FF40850C4F2D8
:1003D8000100294600F0CEF84FF40850C4F201009D
:1003E8004FF00C013246234600F014F9304600F075
:1003F8007DF94FF40050C4F20100314600F0FEF8D8
:100408004FF40450C4F20100314600F0F7F84FF4FD
:100418000850C4F20100314600F0F0F84FF40050E3
:10042800C4F2010000F050F9FEE700BF704700BFBA
:10043800FEE700BFFEE700BFFEE700BFFEE700BF24
:10044800704700BF704700BF704700BF704700BFCC
:1004580082B04FF46053C4F202031A6842F00102FA
:100468001A604FF000029A60196821F0847121F433
:100478008031196043F21001C2F2004159601968D5
:1004880021F480211960DA60019200921A6842F41E
:1004980080321A604FF46052C4F20202136803F407
:1004A80000330093019B03F101030193009B1BB9E7
:1004B800019BB3F5A06FF1D14FF46053C4F202036E
:1004C8001B6813F4003F14BF012300230093009B13
:1004D800012B46D14FF46053C4F202031A6C42F068
:1004E80080521A644FF4E042C4F20002116841F4E9
:1004F800804111609A689A609A6842F400429A6052
:100508009A6842F4A0529A6044F60802C0F2406227
:100518005A601A6842F080721A604FF46052C4F24E
:100528000202136813F0007FFBD04FF47053C4F23B
:10053800020340F205621A604FF46053C4F20203EA
:100548009A6822F003029A609A6842F002029A605E
:100558004FF46052C4F20202936803F00C03082BB4
:10056800FAD14FF46D43CEF200034FF000629A6067
:1005780002B0704730B4436823F0407323F48073AB
:100588000A6813430A7943EA022343608468CA6805
:100598000B691A438D682A434FF2FD73CCF2FF03AF
:1005A80004EA030342EA03034A7943EA4203836005
:1005B800C26A22F470020B7D03F1FF33DBB242EA18
:1005C8000353C36230BC704710B44FF40C52C4F2EA
:1005D8000102516843F2E003CFF6FC7301EA03031A
:1005E8004468016844EA010184682143C068014302
:1005F80041EA0303536010BC704700BF21B1836810
:1006080043F0010383607047836823F0010383602C
:10061800704700BF70B4092910D9C66801EB4104BE
:10062800A4F11E044FF0070505FA04F526EA0505AE
:1006380003FA04F445EA0403C3600DE0066901EB1C
:1006480041044FF0070505FA04F526EA050503FA03
:1006580004F445EA04030361062A10D8446B02F146
:10066800FF3202EB82024FF01F0303FA02F324EA7F
:10067800030301FA02F143EA0102426322E00C2A71
:1006880010D8046B02EB8202A2F123024FF01F0381
:1006980003FA02F324EA030301FA02F143EA01022E
:1006A80002630FE0C46A02EB8202A2F141024FF03A
:1006B8001F0303FA02F324EA030301FA02F143EAEF
:1006C8000102C26270BC7047836843F08043836054
:1006D800704700BF21B1836843F48073836070471B
:1006E800836823F480738360704700BF40B14FF480
:1006F8000C53C4F201035A6842F400525A6070471E
:100708004FF40C53C4F201035A6822F400525A60A1
:10071800704700BF10B4026848F23F03CFF21C03D1
:1007280002EA0303CC680A6844EA02024C692243DD
:100738008C692243CC6922430C6A22434C6A2243C7
:100748008C6A22434C6B22438C6B224342EA03039C
:100758000360426922F007020C6BCB6A44EA030388
:10076800134343610B6943604B6883608B68C360C4
:1007780010BC704721B1036843F001030360704760
:10078800036823F001030360704700BF2DE9F007F9
:100798004FF0000213464FF001074FF0030C1E46BE
:1007A80007FA03F40D6804EA0505A54243D1D0F819
:1007B800009090460CFA02F46FEA040404EA09096E
:1007C800C0F80090D0F800A091F8049009FA02F956
:1007D80049EA0A09C0F8009091F8049009F1FF3934
:1007E8005FFA89F9B9F1010F1CD8D0F8089004EA2A
:1007F8000909C0F80890D0F808A091F8059009FAFE
:1008080002F949EA0A09C0F80890D0F8049029EAE0
:1008180005054560456891F8069009FA03F6B6B2F1
:100828002E434660C5682C40C460C568CC7904FA7C
:1008380008F42C43C46003F1010302F10202102BF7
:10084800ADD1BDE8F007704730B401F007034FEAB7
:1008580083034FEAD10101F1080150F821504FF00C
:100868000F0404FA03F425EA040440F8214050F880
:10087800214002FA03F343EA040440F8214030BC63
:10088800704700BF39B14FF46053C4F202031A6BCA
:100898001043186370474FF46053C4F202031A6B95
:1008A80022EA00001863704739B14FF46053C4F26C
:1008B80002031A6C1043186470474FF46053C4F273
:1008C80002031A6C22EA00001864704739B14FF429
:1008D8006053C4F202035A6C1043586470474FF4D3
:1008E8006053C4F202035A6C22EA0000586470474D
:1008F80030B403889BB24FF00002C4F201024FF4F7
:100908008064C4F20104A04214BF00240124904270
:1009180008BF44F00104FCB94FF48062C4F200023D
:10092800904214BF00220122B0F1804F08BF42F06C
:1009380001028AB94FF40062C4F200024FF4406524
:10094800C4F20005A84214BF00250125904214BF37
:100958002A4645F0010232B14FF68F7203EA0202CD
:100968004B8842EA03034FF48052C4F200024FF46A
:10097800A055C4F20005451B18BF012590420CBFC5
:10098800002205F0010232B14FF6FF4203EA0202EB
:100998000B8942EA030303804B68C3620B88038513
:1009A8000CB18B7A03864FF00103838230BC704709
:1009B80029B103889BB243F0800303807047038802
:1009C80023F080034FEA03434FEA13430380704741
:1009D80029B103889BB243F0010303807047038861
:1009E80023F001034FEA03434FEA134303807047A0
:1009F80070B4038C23F480734FEA03434FEA134324
:100A08000384038C8488A4B2828B22F073024FEA99
:100A180002424FEA12420D882A4323F400734FEA38
:100A280003434FEA13438D8943EA05234D8843EA7C
:100A380005239BB24FF00005C4F201054FF4806610
:100A4800C4F20106B04214BF00260126A84214BF12
:100A5800354646F00105CDB14FF2FF7503EA0505AD
:100A6800CB8945EA03254FF6FF3305EA03038D8852
:100A780043EA05239BB24CF6FF7504EA05050C8A88
:100A880045EA04154C8A45EA0414A4B2848082839A
:100A98008A68C263038470BC704700BF038B23F06D
:100AA80008034FEA03434FEA134341EA030303836E
:100AB800704700BF49B1B0F844306FEA43436FEA6A
:100AC80053439BB2A0F844307047B0F844304FEA23
:100AD80043434FEA5343A0F84430704743F60C03AE
:100AE800C4F201031A88F0B412F4005212D00A2892
:100AF80051D043F60002C4F20102B2F800C01CF063
:100B0800800FFAD043F6040380B2C4F201031880C0
:100B1800F0BC704741F21804C4F20204266840F69B
:100B2800040146F0040727602568C4F2010145F076
:100B380001062660276843F6100647F480452560BD
:100B48000F6843F6140527F0F0040C600F6843F6AD
:100B5800080447F0B0070F600F684FF00C0C27F43B
:100B680070670F600F68C4F2010647F480670F6072
:100B7800C4F2010540F24131C4F201043280A3F805
:100B880000C02A8021801A880A281FFA82FC4CF4A7
:100B980000511980ADD143F60C03C4F201031A8841
:100BA80012F400520FD043F60002C4F20102138877
:100BB80013F0800FFBD043F60401C4F201014FF09B
:100BC8000D020A8095E741F21804C4F2020426686F
:100BD80040F6040146F0040727602568C4F20101C5
:100BE80045F001062660276843F6100647F480455D
:100BF80025600F6843F6140527F0F0040C600F68B1
:100C080043F6080447F0B0070F600F6840F2413C14
:100C180027F470670F600F68C4F2010647F4806715
:100C28000F60C4F201054FF00C01C4F201043280D8
:100C380019802A80A4F800C01A8891B241F4005C97
:0C0C4800A3F800C0AFE700BF101C70470D
:040000050800018866
:00000001FF
