:020000040800F2
:100000000020002089010008D5110008D91100083E
:10001000DD110008E1110008E511000800000000F2
:10002000000000000000000000000000E9110008CE
:10003000ED11000800000000F1110008F5110008A2
:10004000CD010008CD010008CD010008CD01000858
:10005000CD010008CD010008CD010008CD01000848
:10006000CD010008CD010008CD010008CD01000838
:10007000CD010008CD010008CD010008CD01000828
:10008000CD010008CD010008CD010008CD01000818
:10009000CD010008CD010008CD010008CD01000808
:1000A000CD010008CD010008CD010008CD010008F8
:1000B000CD010008FD0A0008CD010008CD010008AF
:1000C000CD010008CD010008CD010008CD010008D8
:1000D000CD010008CD010008CD010008CD010008C8
:1000E000CD010008CD010008CD010008CD010008B8
:1000F000CD010008CD010008CD010008CD010008A8
:10010000CD010008CD010008CD010008CD01000897
:10011000CD010008CD010008CD010008CD01000887
:10012000CD010008CD010008CD010008CD01000877
:10013000CD010008CD010008CD010008CD01000867
:10014000CD010008CD010008CD010008CD01000857
:10015000CD010008CD010008CD010008CD01000847
:10016000CD010008CD010008CD010008CD01000837
:10017000CD010008CD010008CD010008CD01000827
:08018000CD010008CD010008CB
:10018800002103E00A4B5B584350043109480A4BED
:1001980042189A42F6D3094A02E0002342F8043B87
:1001A800074B9A42F9D301F031FA00F07DFB704712
:1001B8008C1A0008000000202400002024000020E1
:1001C80070180020FEE7000010B440F22403C2F2C9
:1001D800000393F8233003F1FF33052B00F2B080BE
:1001E800DFE803F003182D465F7D4FF080434FF0A2
:1001F80000021A84586A194640F22402C2F2000228
:1002080004E092F82630002B00F09A804B6A834273
:10021800F7D095E04FF080434FF020021A84586AD7
:10022800194640F22402C2F2000204E092F8263095
:10023800002B00F085804B6A8342F7D080E04FF4B2
:100248004063C4F200034FF000021A84586A4FF466
:100258004061C4F2000140F22402C2F2000203E04D
:1002680092F82630002B6BD04B6A8342F8D067E0B7
:100278004FF44063C4F200034FF002021A84586A34
:100288004FF44061C4F2000140F22402C2F20002BD
:1002980003E092F82630002B52D04B6A8342F8D004
:1002A8004EE040F22403C2F2000393F8242093F8AE
:1002B800254014404FF48050C4F2020040F2240359
:1002C800C2F2000303E093F82620002A38D001691F
:1002D80093F8252002EA1122A242F4D130E040F23C
:1002E8002403C2F2000393F8242093F8253003EA8C
:1002F80002024FF48054C4F2020440F22403C2F212
:10030800000302E093F8261059B1206993F82510EC
:1003180001EA10219142F5D003E093F8261041B983
:100328000EE04FF48054C4F2020440F22403C2F2F7
:100338000003206993F8251001EA10219142ECD1BD
:1003480010BC704708B54FF01700C0F240004FF0DE
:10035800010100F0B9FF4FF00F004FF0010100F06C
:10036800C5FF40F22270C0F202004FF0010100F018
:10037800CFFF08BD00B583B04FF01D038DF80430E2
:100388004FF000038DF805304FF001038DF806306B
:100398008DF8073001A801F0CBF903B000BD00BF0C
:1003A8002DE9F04782B04FF4C07300934FF0020874
:1003B8008DF804804FF003078DF805704FF00004A6
:1003C8008DF806404FF001098DF807904FF48066CC
:1003D800C4F202063046694600F07CFE30464FF013
:1003E8000701424600F0D4FE30464FF008013A4675
:1003F80000F0CEFE00978DF804808DF805708DF81A
:1004080006408DF807402546C4F20205284669468D
:1004180000F060FE284649464A4600F0B9FE2846E4
:100428002146424600F0B4FE4FF0060ACDF800A07F
:100438008DF804708DF807404FF40065C4F202058A
:100448002846694600F046FE00978DF804708DF83E
:1004580007403046694600F03DFE4FF040030093E8
:100468008DF804808DF805708DF806408DF80740EA
:100478002846694600F02EFE284651464FF00802ED
:1004880000F086FE484600F05FFB204600F05CFB6B
:1004980002B0BDE8F08700BF2DE9F04788B0684694
:1004A80001F072F84FF0FF3506954FF00004A146B1
:1004B800ADF81440ADF81C40ADF816404FF0804040
:1004C80005A900F037FF4FF080484FF48073A8F873
:1004D80018304FF06703A8F808300695ADF81440B7
:1004E800ADF81C40ADF816404FF44067C4F2000761
:1004F800384605A900F01EFF4FF001063E834FF075
:1005080057033B8142F20F73069342F2CF03ADF8D3
:100518001430ADF81C40ADF816404FF48065C4F2B5
:100528000005284605A900F005FF28463146324651
:1005380001F04EF84046314600F06CFF284631463F
:1005480000F068FF3846314600F064FF40F2E737B4
:100558000697ADF81440ADF81C40ADF816408DF87C
:100568001E404FF40065C4F20005284605A900F0B6
:10057800E1FE4FF06008ADF80080ADF8026040F28F
:10058800F31ACDF808A0ADF80C402846694600F0EB
:10059800A3FF28464FF0080101F00EF8284631461F
:1005A80000F028FF0697ADF81440ADF81C40ADF8F0
:1005B80016408DF81E404FF48845C4F201052846C0
:1005C80005A900F0B7FEADF80080ADF80260CDF8DF
:1005D80008A0ADF80C402846694600F02BFF2846D5
:1005E8004FF0080100F0DCFF2846314600F002FF1A
:1005F8004FF0A7030693ADF81440ADF81C40ADF8D2
:1006080016408DF81E404FF48060C4F2010005A921
:1006180000F090FE08B0BDE8F08700BF30B58BB0A1
:10062800684600F0F7FA06A800F01AFB4FF000043D
:10063800069407940894099406A800F0F7FA009421
:100648004FF001058DF804508DF80550029404947C
:100658008DF814504FF40854C4F20104204669463A
:1006680000F0AEFA2046294600F002FB20464FF083
:10067800020100F0BBFB20464FF00B012A462B4637
:1006880000F07CFB20464FF00C014FF002022B4695
:1006980000F074FB2046294600F0B8FB204600F025
:1006A800AFFB0BB030BD00BFF0B58BB0684600F0B3
:1006B800B1FA06A800F0D4FA4FF0000000F04AFBA7
:1006C8004FF00603069340F22406C2F2000696F89D
:1006D80029304FEA034307934FF4004308934FF040
:1006E8000007099706A800F0A1FA96F827304FEA04
:1006F800036300934FF001048DF804408DF8054022
:10070800029704978DF814404FF40055C4F2010580
:100718002846694600F054FA96F8283028464FF0E3
:100728000801224600F0B0FA2846214600F006FBF0
:1007380096F827304FEA036300938DF804408DF84C
:100748000540029704978DF814404FF40457C4F2FB
:1007580001073846694600F033FA96F828303846DB
:100768004FF00901224600F08FFA204600F0F2FA15
:100778002846214600F07CFA3846214600F078FAEF
:100788000BB0F0BD30B591B046F21044C4F202048B
:10079800204600F047FB4FF00003019342F2083275
:1007A800C4F201020292144A03920493A2F14C0289
:1007B80092F822204FEA0222059206934FF48062B3
:1007C80007924FF4805208924FF4804209920A939C
:1007D8004FF400320B920C934FF001050D950E93D8
:1007E8000F93204601A900F017FC2046294600F087
:1007F80043FC11B030BD00BF7000002010B590B0B0
:1008080046F22844C4F20204204600F00BFB4FF0E5
:100818006063019341F21103C4F202030293114A87
:1008280003924FF000030493A2F14C0292F82220A5
:100838004FEA8212059206934FF48062079208935A
:1008480009930A934FF400320B920C934FF0010274
:100858000D920E930F93204601A900F0DDFB10B016
:1008680010BD00BF7000002010B584B04FF0000329
:10087800ADF80430ADF80630ADF808304FF0080296
:10088800ADF80A20ADF80C304FF4A054C4F20104BE
:100898002046694600F090FF20464FF0010101F024
:1008A80011F804B010BD00BF2DE9F8430DF5803DE7
:1008B800FFF748FDFFF75EFDFFF772FDFFF7ECFD60
:1008C800FFF7ACFEFFF7D0FF40F22405C2F20005A7
:1008D8004FF4A054C4F201044FF063094FF40068C8
:1008E800C1F2000895F82030012B40F0F1804FF05C
:1008F800000385F8203095F8213003F1FF33072BEA
:1009080000F2E680DFE813F00800080008003D0068
:100918006800E4009300D400FFF734FFFFF7C4FE3B
:10092800FFF752FC4FF40053C4F201039A6842F0F7
:1009380080429A6046F21046C4F202064FF0200741
:10094800C1F200073046394600F0A2FB0028F9D072
:1009580085F820904FF40050C4F201004FF00001D8
:1009680000F086F94FF40450C4F201004FF0000182
:1009780000F07EF946F21040C4F2020000F052FA8C
:10098800A6E02B899BB2E3B14FF40060C4F20000EB
:100998004FF0000100F03EFD4FF40060C4F200008B
:1009A8004FF000034362AB899BB2C3626B899BB271
:1009B8000385EB899BB283634FF0010100F02AFDA8
:1009C80007E04FF40060C4F200004FF0000100F0AF
:1009D80021FD85F820907BE02B8B9BB2E3B14FF48F
:1009E8008840C4F201004FF0000100F013FD4FF4FD
:1009F8008840C4F201004FF000034362AB8B9BB206
:100A0800C3626B8B9BB20385EB8B9BB243634FF046
:100A1800010100F0FFFC07E04FF48840C4F2010038
:100A28004FF0000100F0F6FC85F8209050E04FF000
:100A3800000000F0B3F84FF48066C4F201064FF0EE
:100A480000037362EB8D9BB2F362FFF7D7FE30466B
:100A58004FF480714FF0010200F0CCFD46F22840BF
:100A6800C4F202004FF0010100F006FBFFF7ACFBF7
:100A780033889BB243F00103338046F22846C4F220
:100A880002063046414600F003FB0028F9D085F8FD
:100A9800209046F22840C4F2020000F0C3F94FF457
:100AA8008060C4F201004FF0000100F0B3FC0FE0D9
:100AB8004FF00002238813F0800FFBD0531993F8EE
:100AC8003030A38002F101021A2AF3D185F8209070
:100AD8004FF0000344F24022C0F20F0203F1010379
:100AE8009342FBD14FF40850C4F2010000F088F99A
:100AF800F8E600BF08B54FF48060C4F200004FF07C
:100B0800010100F071FD4FF080435A6A40F224035E
:100B1800C2F200035968511A19605A604FF44062D2
:100B2800C4F20002526A5969511A19615A6193F85C
:100B3800262002F1FF32D2B283F826204FF00100BE
:100B480000F02CF808BD00BF30B583B0054641F66B
:100B58005C24C0F6000454F820004FF0010100F0B6
:100B6800B3FB04EB4504238A00934FF001038DF88F
:100B780004304FF000028DF806208DF807304FF052
:100B880002038DF8053040F20003C2F2000353F867
:100B98002500694600F09EFA03B030BD40F200021D
:100BA800C2F2000252F82020516941F65C23C0F6D7
:100BB800000303EB40031B8A4B405361704700BF9F
:100BC80030B4436823F0407323F480730A681343F6
:100BD8000A7943EA022343608468CA680B691A43A6
:100BE8008D682A434FF2FD73CCF2FF0304EA030336
:100BF80042EA03034A7943EA42038360C26A22F461
:100C080070020B7D03F1FF33DBB242EA0353C36288
:100C180030BC70474FF00003036003714371836079
:100C2800C36003614FF001030375704710B44FF4BC
:100C38000C52C4F20102516843F2E003CFF6FC7390
:100C480001EA03034468016844EA01018468214316
:100C5800C068014341EA0303536010BC704700BFFA
:100C68004FF00003036043608360C360704700BFB8
:100C780021B1836843F0010383607047836823F0E0
:100C880001038360704700BF70B4092910D9C66892
:100C980001EB4104A4F11E044FF0070505FA04F521
:100CA80026EA050503FA04F445EA0403C3600DE0E7
:100CB800066901EB41044FF0070505FA04F526EA39
:100CC800050503FA04F445EA04030361062A10D86B
:100CD800446B02F1FF3202EB82024FF01F0303FA6A
:100CE80002F324EA030301FA02F143EA0102426330
:100CF80022E00C2A10D8046B02EB8202A2F1230234
:100D08004FF01F0303FA02F324EA030301FA02F186
:100D180043EA010202630FE0C46A02EB8202A2F115
:100D280041024FF01F0303FA02F324EA030301FA16
:100D380002F143EA0102C26270BC704721B18368C4
:100D480043F4807383607047836823F480738360FF
:100D5800704700BF40B14FF40C53C4F201035A6806
:100D680042F400525A6070474FF40C53C4F2010326
:100D78005A6822F400525A60704700BF70B40929BB
:100D880010D9C66801EB4104A4F11E044FF0070511
:100D980005FA04F526EA050503FA04F445EA04030E
:100DA800C3600DE0066901EB41044FF0070505FA41
:100DB80004F526EA050503FA04F445EA0403036189
:100DC800836BC3F30154121B02F10202D2B202EB8D
:100DD80082024FF01F0404FA02F423EA040301FA22
:100DE80002F10B43836370BC704700BF836B23F42D
:100DF800401301F1FF3143EA01538363704700BF99
:100E0800836843F480038360704700BF21B143685F
:100E180043F4806343607047436823F4806343600E
:100E2800704700BF036823F0010303604FF000031D
:100E3800036043608360C36003614FF02103436133
:100E480046F21003C4F20203984207D14FF4C0439C
:100E5800C4F202034FF03D029A60704746F228033D
:100E6800C4F20203984207D14FF4C043C4F202030C
:100E78004FF474629A60704746F24003C4F202036A
:100E8800984207D14FF4C043C4F202034FF47412DE
:100E98009A60704746F25803C4F20203984207D199
:100EA8004FF4C043C4F202034FF074629A60704773
:100EB80046F27003C4F20203984209D14FF4C043CA
:100EC800C4F202034FF03D02C2F20002DA6070473A
:100ED80046F28803C4F20203984209D14FF4C04392
:100EE800C4F202034FF47462C2F20002DA6070477F
:100EF80046F2A003C4F20203984209D14FF4C0435A
:100F0800C4F202034FF00002C2F23D02DA607047F9
:100F180046F2B803C4F20203984207D14FF4C04323
:100F2800C4F202034FF03D52DA60704746F21043B4
:100F3800C4F20203984207D14FF4C843C4F2020333
:100F48004FF03D029A60704746F22843C4F202030C
:100F5800984207D14FF4C843C4F202034FF47462B5
:100F68009A60704746F24043C4F20203984207D1A0
:100F78004FF4C843C4F202034FF474129A607047E6
:100F880046F25843C4F20203984207D14FF4C843CB
:100F9800C4F202034FF074629A60704746F27043DD
:100FA800C4F20203984209D14FF4C843C4F20203C1
:100FB8004FF03D02C2F20002DA60704746F2884301
:100FC800C4F20203984209D14FF4C843C4F20203A1
:100FD8004FF47462C2F20002DA60704746F2A0432E
:100FE800C4F20203984209D14FF4C843C4F2020381
:100FF8004FF00002C2F23D02DA60704746F2B84391
:10100800C4F20203984201BF4FF4C843C4F202037A
:101018004FF03D52DA60704710B4026848F23F035F
:10102800CFF21C0302EA0303CC680A6844EA02020E
:101038004C6922438C692243CC6922430C6A2243BF
:101048004C6A22438C6A22434C6B22438C6B2243AA
:1010580042EA03030360426922F007020C6BCB6A81
:1010680044EA0303134343610B6943604B6883609D
:101078008B68C36010BC704721B1036843F001035B
:1010880003607047036823F001030360704700BFE3
:1010980010B446F20F44C4F202044FF4C842C4F23A
:1010A80002024FF4C043C4F20203A0428CBF1046B0
:1010B800184611F0005F14BF4268026840F67D735D
:1010C800C0F67D7301EA030313420CBF0020012020
:1010D80010BC70472DE9F0074FF0000213464FF09F
:1010E80001074FF0030C1E4607FA03F40D6804EAE3
:1010F8000505A54243D1D0F8009090460CFA02F4B9
:101108006FEA040404EA0909C0F80090D0F800A0C6
:1011180091F8049009FA02F949EA0A09C0F800901E
:1011280091F8049009F1FF395FFA89F9B9F1010FD3
:101138001CD8D0F8089004EA0909C0F80890D0F83B
:1011480008A091F8059009FA02F949EA0A09C0F8D5
:101158000890D0F8049029EA05054560456891F89B
:10116800069009FA03F6B6B22E434660C5682C40CD
:10117800C460C568CC7904FA08F42C43C46003F150
:10118800010302F10202102BADD1BDE8F007704750
:1011980030B401F007034FEA83034FEAD10101F1AC
:1011A800080150F821504FF00F0404FA03F425EA1F
:1011B800040440F8214050F8214002FA03F343EABE
:1011C800040440F8214030BC704700BF704700BF9E
:1011D800FEE700BFFEE700BFFEE700BFFEE700BF77
:1011E800704700BF704700BF704700BF704700BF1F
:1011F80010B44FF46053C4F202039B6803F00C036D
:10120800042B02BF4FF49053C0F27A0303603AD024
:10121800082B06D093BB4FF41053C0F2F4030360BD
:1012280031E04FF46053C4F202035C685A6802F07C
:101238003F0214F4800F4FF46053C4F202035B685A
:10124800C3F3881319BF4FF49054C0F27A044FF4D3
:101258001054C0F2F404B4FBF2F101FB03F14FF4B3
:101268006053C4F202035A68C2F3014202F1010258
:101278004FEA4202B1FBF2F3036004E04FF410536B
:10128800C0F2F40303604FF46052C4F202029168A2
:10129800C1F3031140F21403C2F20003595C04685D
:1012A80024FA01F141609468C4F382241C5D21FA98
:1012B80004F484609268C2F342329B5C21FA03F121
:1012C800C16010BC704700BF39B14FF46053C4F21D
:1012D80002031A6B1043186370474FF46053C4F24B
:1012E80002031A6B22EA00001863704739B14FF401
:1012F8006053C4F202031A6C1043186470474FF429
:101308006053C4F202031A6C22EA000018647047A2
:1013180039B14FF46053C4F202035A6C1043586455
:1013280070474FF46053C4F202035A6C22EA00007B
:101338005864704730B403889BB24FF00002C4F27F
:1013480001024FF48064C4F20104A04214BF0024D7
:101358000124904208BF44F00104FCB94FF48062B4
:10136800C4F20002904214BF00220122B0F1804F63
:1013780008BF42F001028AB94FF40062C4F20002C9
:101388004FF44065C4F20005A84214BF00250125AA
:10139800904214BF2A4645F0010232B14FF68F72CF
:1013A80003EA02024B8842EA03034FF48052C4F274
:1013B80000024FF4A055C4F20005451B18BF0125D3
:1013C80090420CBF002205F0010232B14FF6FF42F5
:1013D80003EA02020B8942EA030303804B68C362F3
:1013E8000B8803850CB18B7A03864FF00103838247
:1013F80030BC704729B103889BB243F08003038057
:101408007047038823F080034FEA03434FEA1343EE
:101418000380704729B103889BB243F0010303801E
:101428007047038823F001034FEA03434FEA13434D
:101438000380704770B4038C23F001034FEA034321
:101448004FEA13430384038C8488A4B2028B22F0EE
:1014580073024FEA02424FEA12420D882A4323F0F0
:1014680002034FEA03434FEA13434E888D8946EA45
:101478000505ADB245EA03034FF00005C4F20105C6
:101488004FF48066C4F20106B04214BF002601265C
:10149800A84214BF354646F00105ADB14FF6F775C1
:1014A80003EA0505CB891D434FF6FB7305EA0303E1
:1014B8008D882B434FF6FF4504EA05054E8A0C8AB2
:1014C80046EA0404A4B22C43848002838A684263F7
:1014D800038470BC704700BF70B4038C23F0100302
:1014E8004FEA03434FEA13430384038C8488A4B26E
:1014F800028B22F4E6424FEA02424FEA12420D887A
:1015080042EA052292B223F020034FEA03434FEA4E
:1015180013438D8943EA05134D8843EA05139BB2AB
:101528004FF00005C4F201054FF48066C4F20106CD
:10153800B04214BF00260126A84214BF354646F023
:101548000105CDB14FF67F7503EA0505CB8945EA5C
:1015580003154FF6BF7305EA03038D8843EA0513A5
:101568009BB24FF2FF3504EA05050C8A45EA84056B
:101578004C8A45EA8404A4B2848002838A68826320
:10158800038470BC704700BF4FF0000303804380A2
:10159800838083608381C38103824382704700BF55
:1015A800038B23F008034FEA03434FEA134341EA4E
:1015B80003030383704700BF038B23F400634FEAE0
:1015C80003434FEA134343EA01239BB20383704763
:1015D80022B183899BB219438181704783899BB269
:1015E80023EA0101818170476FEA010189B2018212
:1015F800704700BF22B183899BB21943818170472C
:1016080083899BB223EA01018181704782B04FF43C
:101618006053C4F202031A6842F001021A604FF0E4
:1016280000029A60196821F0847121F480311960F0
:1016380043F21001C2F200415960196821F4802177
:101648001960DA60019200921A6842F480321A60D6
:101658004FF46052C4F20202136803F4003300939B
:10166800019B03F101030193009B1BB9019BB3F597
:10167800A06FF1D14FF46053C4F202031B6813F456
:10168800003F14BF012300230093009B012B46D188
:101698004FF46053C4F202031A6C42F080521A6489
:1016A8004FF4E042C4F20002116841F48041116035
:1016B8009A689A609A6842F400429A609A6842F47A
:1016C800A0529A6045F20842C0F240725A601A6805
:1016D80042F080721A604FF46052C4F2020213683A
:1016E80013F0007FFBD04FF47053C4F2020340F2B2
:1016F80005621A604FF46053C4F202039A6822F03C
:1017080003029A609A6842F002029A604FF46052AB
:10171800C4F20202936803F00C03082BFAD14FF4C9
:101728006D43CEF200034FF000629A6002B070473A
:1017380010B4C3786BB34FF46D43CEF20003DB688B
:101748006FEA0303C3F302234178C3F10402D2B260
:1017580001FA02F2D2B24FF00F0141FA03F1847894
:10176800214011434FEA0111C9B202784FF4614395
:10177800CEF200039A1882F8001302784FEA521149
:1017880002F01F024FF0010000FA02F243F8212094
:1017980010E003784FEA531203F01F034FF00101E2
:1017A80001FA03F14FF46143CEF2000302F1200283
:1017B80043F8221010BC704730B585B004460D467A
:1017C800038A23F440534FEA03434FEA1343CA887A
:1017D80013430382838923F4B05323F00C034FEAA5
:1017E80003434FEA13430989AA8841EA0202698937
:1017F8000A4392B242EA03038381838A23F4407343
:101808004FEA03434FEA1343AA8913438382684686
:10181800FFF7EEFC4FF48053C4F201034FF4A052DB
:10182800C4F20102944214BF002201229C4214BF58
:10183800134642F001030BB1039A00E0029AA38910
:101848001BB2002B02EB820202EB8202BDBF2B68A7
:101858005B00B2FBF3F22968A4BF8900B2FBF1F286
:1018680048F21F53C5F2EB13A3FB02134FEA5313BD
:101878004FEA03154FF0640003FB1023A08900B260
:1018880000280DDA4FEAC30303F1320348F21F516F
:10189800C5F2EB11A1FB0321C1F3421129430CE06E
:1018A8004FEA031303F1320348F21F51C5F2EB115B
:1018B800A1FB0321C1F34311294389B2218105B05A
:1018C80030BD00BF29B183899BB243F400538381A3
:1018D8007047838923F400534FEA03434FEA1343C5
:1018E8008381704743F60C03C4F201031A88F0B4ED
:1018F80012F4005212D00A2851D043F60002C4F262
:101908000102B2F800C01CF0800FFAD043F60403BD
:1019180080B2C4F201031880F0BC704741F2180489
:10192800C4F20204266840F6040146F00407276062
:101938002568C4F2010145F001062660276843F6D0
:10194800100647F4804525600F6843F6140527F014
:10195800F0040C600F6843F6080447F0B0070F6006
:101968000F684FF00C0C27F470670F600F68C4F213
:10197800010647F480670F60C4F2010540F2413167
:10198800C4F201043280A3F800C02A8021801A889A
:101998000A281FFA82FC4CF400511980ADD143F695
:1019A8000C03C4F201031A8812F400520FD043F654
:1019B8000002C4F20102138813F0800FFBD043F633
:1019C8000401C4F201014FF00D020A8095E741F2CB
:1019D8001804C4F20204266840F6040146F004071D
:1019E80027602568C4F2010145F0010626602768D2
:1019F80043F6100647F4804525600F6843F6140542
:101A080027F0F0040C600F6843F6080447F0B007AD
:101A18000F600F6840F2413C27F470670F600F6851
:101A2800C4F2010647F480670F60C4F201054FF065
:101A38000C01C4F20104328019802A80A4F800C085
:101A48001A8891B241F4005CA3F800C0AFE700BF68
:101A5800101C704708000000080000000800000083
:101A68000800000000100020004000800100000075
:101A7800010000000000000000000000010000005C
:041A88000600000054
:101A8C00000C0240000C0240000C0240000C024012
:101A9C0000000240000000000102030401020304E4
:041AAC000607080918
:040000050800018866
:00000001FF
