:020000040800F2
:100000000020002089010008250A0008290A0008AC
:100010002D0A0008310A0008350A00080000000017
:10002000000000000000000000000000390A000885
:100030003D0A000800000000410A0008450A0008C7
:10004000CD010008CD010008CD010008CD01000858
:10005000CD010008CD010008CD010008CD01000848
:10006000CD010008CD010008CD010008CD01000838
:10007000CD010008CD010008CD010008CD01000828
:10008000CD010008CD010008CD010008CD01000818
:10009000CD010008CD010008CD010008CD01000808
:1000A000CD010008CD010008CD010008CD010008F8
:1000B000CD010008CD010008CD010008CD010008E8
:1000C000CD010008CD010008CD010008CD010008D8
:1000D00065050008CD010008CD010008CD0100082C
:1000E000CD010008CD010008CD010008CD010008B8
:1000F000CD010008CD010008CD010008CD010008A8
:10010000CD010008CD010008CD010008CD01000897
:10011000CD010008CD010008DD070008CD01000871
:10012000CD010008CD010008CD010008CD01000877
:10013000CD010008CD010008CD010008CD01000867
:10014000CD010008CD010008CD010008CD01000857
:10015000CD010008CD010008CD010008CD01000847
:10016000CD010008CD010008CD010008CD01000837
:10017000CD010008CD010008CD010008CD01000827
:08018000CD010008CD010008CB
:10018800002103E00A4B5B584350043109480A4BED
:1001980042189A42F6D3094A02E0002342F8043B87
:1001A800074B9A42F9D300F02BFB00F0A7F97047F0
:1001B800306400080000002000000020000000203B
:1001C80024100020FEE7000070B440F20003C2F2E1
:1001D80000039B889BB2042B00F28F80DFE803F0BA
:1001E8000316293C4F004A4A4FF0000340F200042E
:1001F800C2F2000432F8020F03F1080124F81100DA
:1002080003F10103B3F5006FF4D176E0414A4FF0F2
:10021800000340F20004C2F2000432F8020F03F1B6
:10022800080124F8110003F10103B3F5006FF4D1BC
:1002380063E0394A4FF0000340F20004C2F20004C0
:1002480032F8020F03F1080124F8110003F1010349
:10025800B3F5006FF4D150E0304A4FF0000340F29C
:100268000004C2F2000432F8020F03F1080124F876
:10027800110003F10103B3F5006FF4D13DE0284A02
:100288004FF0000340F20004C2F2000432F8020FFB
:1002980003F1080124F8110003F10103B3F5006F1D
:1002A800F4D12AE002F1080433F81450ADB2D8882A
:1002B80080B200FB05F000F57E6101F11F0130EA14
:1002C800200028BF0846D9881D892DB2A5F50065EC
:1002D800C1F34E016D1A05EB203121EAE171B142FB
:1002E800A8BF31464FEA011189B223F8141002F170
:1002F8000102B2F5006FD5D108E04FF0000240F2DC
:100308000003C2F2000340F6FF76CBE770BC7047EB
:10031800EE0D0008EE1D00082E3400082E440008DB
:100328002E5400084FEA535431F8144014802B44DB
:10033800F8E700BF08B540F21001C2F2000141F22F
:100348001402C4F202024FF0000340F20005C2F2A8
:1003580000052D68FFF7E6FF08BD00BF00B583B0B4
:100368004FF010004FF0010100F06AFB4FF6F073F8
:1003780000934FF001038DF804304FF003038DF81C
:1003880005304FF000038DF806308DF807304FF434
:100398008050C4F20200694600F0C4FA03B000BD00
:1003A80070B588B04FF002004FF0010100F048FB33
:1003B8004FF480404FF0010100F054FB4FF002066B
:1003C8008DF81C604FF000048DF81E404FF00303B9
:1003D8008DF81D308DF81F4008A94FF4204341F8CF
:1003E800083D4FF48065C4F20205284600F09AFAE9
:1003F80028464FF00D014FF0050200F0F1FA2846AB
:100408004FF00F014FF0050200F0EAFA4FF0240315
:100418008DF800308DF801408DF802604FF001052D
:100428008DF80350684600F09BFBADF80440ADF82A
:1004380006404FF40063ADF80830ADF80A40ADF857
:100448000C404FF40073ADF80E304FF02003ADF8B8
:100458001030ADF812404FF00703ADF814304FF4E8
:100468006054C4F20004204601A900F0BDFB2046F8
:100478004FF060012A4600F0EBFB2046294600F0C9
:10048800D7FB08B070BD00BF30B585B04FF0100085
:100498004FF0010100F0E6FA4FF00903029342F22F
:1004A8000F73ADF804304FF000031D46ADF80C3063
:1004B8008DF80E30ADF806304FF48054C4F20004C5
:1004C800204601A900F0E0FA4FF6FE732382204689
:1004D8004FF001010A4600F037FB4FF036038DF864
:1004E80000308DF801504FF001038DF802308DF87F
:1004F8000330684600F034FB05B030BD08B540F263
:100508000003C2F200034FF000029A8040F6FF7128
:10051800D980198141F67131C0F20D01196003F5D6
:1005280080531A824FF009025A8240F2B6625A6129
:1005380047F65942C0F20A029A614BF68922C0F284
:100548000F02DA61FFF70AFFFFF72AFFFFF79CFFA8
:10055800FFF73AFEFFF7EEFE08BD00BF08B54FF4FF
:100568006053C4F200039A8992B240F20003C2F2C7
:100578000003DA819A8902F1010292B29A819B8979
:100588009BB2012B07D140F20003C2F20003DA89C3
:1005980092B25A8108BD40F20003C2F200035B899F
:1005A8009BB2012B25D140F20003C2F200039B89C4
:1005B8009BB2022B03D0032B40F0088107E040F2E6
:1005C8000003C2F20003DA8992B21A6008BD40F251
:1005D8000003C2F200031A68D98942EA01421A608C
:1005E8004FF00001998140F20005C2F200052D6824
:1005F80008BD40F20003C2F200035B899BB2022BE4
:1006080029D140F20003C2F200039B899BB2032B5D
:100618000CD0042B12D0022B40F0D88040F20003FB
:10062800C2F20003DA8992B29A8008BD40F2000350
:10063800C2F20003DA8992B2DA8008BD40F2000300
:10064800C2F20003DA8992B21A814FF000029A814D
:10065800FFF7BAFD08BD40F20003C2F200035B8950
:100668009BB2032B40F0B28040F20003C2F20003B9
:100678009B899BB2A3F10203072B00F2A780DFE856
:1006880003F0041D27313D47535D40F20003C2F2D9
:100698000003DA8992B203F580531A824FF480522C
:1006A800C4F20002138823F001034FEA03434FEA20
:1006B800134313804FF00003536208BD40F2000358
:1006C800C2F20003DA8992B203F580535A8208BD58
:1006D80040F20003C2F20003DA8992B203F58053B4
:1006E8005A6108BD40F20003C2F2000303F58052CC
:1006F8005169DB8941EA0343536108BD40F20003B5
:10070800C2F20003DA8992B203F580539A6108BDF8
:1007180040F20003C2F2000303F580529169DB89BD
:1007280041EA0343936108BD40F20003C2F20003AB
:10073800DA8992B203F58053DA6108BD40F200030A
:10074800C2F2000303F58052D169D88941EA004119
:10075800D1614FF000019981138A9BB2002B30D0F0
:100768001346518A89B24FF48052C4F20002D16212
:100778004FF000091B8A9BB2032B01D14FF00109EE
:1007880041F2000AC4F2000A41F21408C2F2000859
:10079800D8F80460D8F80870D8F800800C4B1B8A89
:1007A8009BB2022B04D1C8F10008B3463E465F460F
:1007B8004FF48053C4F200031A8892B242F0010247
:1007C8001A8040F20005C2F200052D6808BD00BF7E
:1007D800001000204FF0000CAAF810C0484620B9BD
:1007E8004544BD4208BF354670474544BD4218BF21
:1007F8007047C8F10008B3463E465F46704700BFE1
:1008080082B04FF46053C4F202031A6842F0010246
:100818001A604FF000029A60196821F0847121F47F
:100828008031196043F21001C2F200415960196821
:1008380021F480211960DA60019200921A6842F46A
:1008480080321A604FF46052C4F20202136803F453
:1008580000330093019B03F101030193009B1BB933
:10086800019BB3F5A06FF1D14FF46053C4F20203BA
:100878001B6813F4003F14BF012300230093009B5F
:10088800012B46D14FF46053C4F202031A6C42F0B4
:1008980080521A644FF4E042C4F20002116841F435
:1008A800804111609A689A609A6842F400429A609E
:1008B8009A6842F4A0529A6046F20842C0F2407226
:1008C8005A601A6842F080721A604FF46052C4F29B
:1008D8000202136813F0007FFBD04FF47053C4F288
:1008E800020340F205621A604FF46053C4F2020337
:1008F8009A6822F003029A609A6842F002029A60AB
:100908004FF46052C4F20202936803F00C03082B00
:10091800FAD14FF46D43CEF200034FF000629A60B3
:1009280002B070472DE9F0074FF0000213464FF070
:1009380001074FF0030C1E4607FA03F40D6804EA9A
:100948000505A54243D1D0F8009090460CFA02F470
:100958006FEA040404EA0909C0F80090D0F800A07E
:1009680091F8049009FA02F949EA0A09C0F80090D6
:1009780091F8049009F1FF395FFA89F9B9F1010F8B
:100988001CD8D0F8089004EA0909C0F80890D0F8F3
:1009980008A091F8059009FA02F949EA0A09C0F88D
:1009A8000890D0F8049029EA05054560456891F853
:1009B800069009FA03F6B6B22E434660C5682C4085
:1009C800C460C568CC7904FA08F42C43C46003F108
:1009D800010302F10202102BADD1BDE8F007704708
:1009E80030B401F007034FEA83034FEAD10101F164
:1009F800080150F821504FF00F0404FA03F425EAD7
:100A0800040440F8214050F8214002FA03F343EA75
:100A1800040440F8214030BC704700BF704700BF55
:100A2800FEE700BFFEE700BFFEE700BFFEE700BF2E
:100A3800704700BF704700BF704700BF704700BFD6
:100A480039B14FF46053C4F202031A6B10431863B0
:100A580070474FF46053C4F202031A6B22EA000095
:100A68001863704739B14FF46053C4F202031A6C2B
:100A78001043186470474FF46053C4F202031A6CB1
:100A880022EA00001864704730B403889BB24FF024
:100A98000002C4F201024FF48064C4F20104A042CF
:100AA80014BF00240124904208BF44F00104FCB99B
:100AB8004FF48062C4F20002904214BF0022012267
:100AC800B0F1804F08BF42F001028AB94FF40062CA
:100AD800C4F200024FF44065C4F20005A84214BFF6
:100AE80000250125904214BF2A4645F0010232B183
:100AF8004FF68F7203EA02024B8842EA03034FF46F
:100B08008052C4F200024FF4A055C4F20005451B00
:100B180018BF012590420CBF002205F0010232B136
:100B28004FF6FF4203EA02020B8942EA03030380FD
:100B38004B68C3620B8803850CB18B7A03864FF030
:100B48000103838230BC704722B183899BB2194369
:100B58008181704783899BB223EA010181817047B3
:100B680010B4C3786BB34FF46D43CEF20003DB6867
:100B78006FEA0303C3F302234178C3F10402D2B23C
:100B880001FA02F2D2B24FF00F0141FA03F1847870
:100B9800214011434FEA0111C9B202784FF4614371
:100BA800CEF200039A1882F8001302784FEA521125
:100BB80002F01F024FF0010000FA02F243F8212070
:100BC80010E003784FEA531203F01F034FF00101BE
:100BD80001FA03F14FF46143CEF2000302F120025F
:100BE80043F8221010BC704710B4028802F4415236
:100BF8004C880B8844EA03038C882343CC8823431E
:100C08000C8923434C8923438C892343CC89234370
:100C180042EA03039BB20380838B23F400634FEA09
:100C280003434FEA134383830B8A038210BC704744
:100C380029B103889BB243F04003038070470388BF
:100C480023F040034FEA03434FEA134303807047FE
:100C58004FEA11114FF0010303FA01F39BB222B1DD
:100C6800828892B2134383807047828892B222EAC4
:100C780003038380704700BF43F60C03C4F20103EB
:100C88001A88F0B412F4005212D00A2851D043F650
:100C98000002C4F20102B2F800C01CF0800FFAD0C2
:100CA80043F6040380B2C4F201031880F0BC704715
:100CB80041F21804C4F20204266840F6040146F022
:100CC800040727602568C4F2010145F00106266083
:100CD800276843F6100647F4804525600F6843F6F9
:100CE800140527F0F0040C600F6843F6080447F079
:100CF800B0070F600F684FF00C0C27F470670F6097
:100D08000F68C4F2010647F480670F60C4F201055A
:100D180040F24131C4F201043280A3F800C02A80B5
:100D280021801A880A281FFA82FC4CF40051198085
:100D3800ADD143F60C03C4F201031A8812F4005231
:100D48000FD043F60002C4F20102138813F0800F9B
:100D5800FBD043F60401C4F201014FF00D020A80F2
:100D680095E741F21804C4F20204266840F604012B
:100D780046F0040727602568C4F2010145F0010622
:100D88002660276843F6100647F4804525600F68FB
:100D980043F6140527F0F0040C600F6843F60804C6
:100DA80047F0B0070F600F6840F2413C27F47067C6
:100DB8000F600F68C4F2010647F480670F60C4F241
:100DC80001054FF00C01C4F20104328019802A8019
:100DD800A4F800C01A8891B241F4005CA3F800C0DE
:100DE800AFE700BF101C7047000806080D0813087D
:100DF80019081F0826082C08320839083F08450832
:100E08004B08520858085E0864086B087108770890
:100E18007E0884088A08900897089D08A308A908EE
:100E2800B008B608BC08C208C908CF08D508DB084E
:100E3800E208E808EE08F408FB08010907090D09AB
:100E480013091A09200926092C09330939093F0908
:100E580045094B09520958095E0964096A0971096B
:100E680077097D09830989098F0996099C09A209CF
:100E7800A809AE09B409BA09C109C709CD09D30936
:100E8800D909DF09E509EB09F109F709FE09040A9F
:100E98000A0A100A160A1C0A220A280A2E0A340A02
:100EA8003A0A400A460A4C0A520A580A5E0A640A72
:100EB8006A0A700A760A7C0A820A880A8E0A940AE2
:100EC8009A0AA00AA60AAC0AB20AB80ABD0AC30A54
:100ED800C90ACF0AD50ADB0AE10AE70AEC0AF20ACC
:100EE800F80AFE0A040B0A0B0F0B150B1B0B210B40
:100EF800270B2C0B320B380B3E0B430B490B4F0BBC
:100F0800540B5A0B600B660B6B0B710B770B7C0B3E
:100F1800820B870B8D0B930B980B9E0BA40BA90BC5
:100F2800AF0BB40BBA0BBF0BC50BCA0BD00BD60B50
:100F3800DB0BE10BE60BEB0BF10BF60BFC0B010CDF
:100F4800070C0C0C120C170C1C0C220C270C2C0C6C
:100F5800320C370C3D0C420C470C4C0C520C570C05
:100F68005C0C620C670C6C0C710C760C7C0C810CA4
:100F7800860C8B0C900C960C9B0CA00CA50CAA0C48
:100F8800AF0CB40CB90CBE0CC30CC80CCD0CD20CF5
:100F9800D70CDC0CE10CE60CEB0CF00CF50CFA0CA5
:100FA800FF0C040D090D0E0D130D170D1C0D210D51
:100FB800260D2B0D300D340D390D3E0D430D470D0B
:100FC8004C0D510D550D5A0D5F0D630D680D6D0DCE
:100FD800710D760D7A0D7F0D830D880D8D0D910D98
:100FE800960D9A0D9F0DA30DA70DAC0DB00DB50D67
:100FF800B90DBD0DC20DC60DCB0DCF0DD30DD70D3F
:10100800DC0DE00DE40DE90DED0DF10DF50DF90D1B
:10101800FD0D020E060E0A0E0E0E120E160E1A0EFA
:101028001E0E220E260E2A0E2E0E320E360E3A0EE8
:101038003E0E420E460E4A0E4E0E520E550E590EDA
:101048005D0E610E650E680E6C0E700E740E770ED6
:101058007B0E7F0E820E860E8A0E8D0E910E940EDA
:10106800980E9B0E9F0EA30EA60EA90EAD0EB00EE7
:10107800B40EB70EBB0EBE0EC10EC50EC80ECB0EFB
:10108800CF0ED20ED50ED90EDC0EDF0EE20EE50E17
:10109800E90EEC0EEF0EF20EF50EF80EFB0EFE0E3C
:1010A800010F040F070F0A0F0D0F100F130F160F64
:1010B800190F1C0F1F0F220F240F270F2A0F2D0F98
:1010C800300F320F350F380F3A0F3D0F400F420FD8
:1010D800450F480F4A0F4D0F4F0F520F540F570F20
:1010E800590F5C0F5E0F610F630F660F680F6A0F71
:1010F8006D0F6F0F710F740F760F780F7A0F7D0FCA
:101108007F0F810F830F850F870F890F8C0F8E0F2D
:10111800900F920F940F960F980F9A0F9C0F9E0F97
:101128009F0FA10FA30FA50FA70FA90FAA0FAC0F11
:10113800AE0FB00FB10FB30FB50FB70FB80FBA0F8F
:10114800BB0FBD0FBF0FC00FC20FC30FC50FC60F18
:10115800C80FC90FCA0FCC0FCD0FCF0FD00FD10FAB
:10116800D30FD40FD50FD60FD80FD90FDA0FDB0F47
:10117800DC0FDE0FDF0FE00FE10FE20FE30FE40FEC
:10118800E50FE60FE70FE80FE90FEA0FEB0FEC0F9B
:10119800EC0FED0FEE0FEF0FF00FF00FF10FF20F56
:1011A800F30FF30FF40FF50FF50FF60FF60FF70F18
:1011B800F70FF80FF80FF90FF90FFA0FFA0FFB0FE7
:1011C800FB0FFC0FFC0FFC0FFD0FFD0FFD0FFD0FBC
:1011D800FE0FFE0FFE0FFE0FFE0FFF0FFF0FFF0F9C
:1011E800FF0FFF0FFF0FFF0FFF0FFF0FFF0FFF0F87
:1011F800FF0FFF0FFF0FFF0FFE0FFE0FFE0FFE0F7B
:10120800FE0FFD0FFD0FFD0FFD0FFC0FFC0FFC0F78
:10121800FB0FFB0FFA0FFA0FF90FF90FF80FF80F82
:10122800F70FF70FF60FF60FF50FF50FF40FF30F93
:10123800F30FF20FF10FF00FF00FEF0FEE0FED0FAE
:10124800EC0FEC0FEB0FEA0FE90FE80FE70FE60FD3
:10125800E50FE40FE30FE20FE10FE00FDF0FDE0F02
:10126800DC0FDB0FDA0FD90FD80FD60FD50FD40F3D
:10127800D30FD10FD00FCF0FCD0FCC0FCA0FC90F7F
:10128800C80FC60FC50FC30FC20FC00FBF0FBD0FCA
:10129800BB0FBA0FB80FB70FB50FB30FB10FB00F21
:1012A800AE0FAC0FAA0FA90FA70FA50FA30FA10F81
:1012B8009F0F9E0F9C0F9A0F980F960F940F920FE7
:1012C800900F8E0F8C0F890F870F850F830F810F5B
:1012D8007F0F7D0F7A0F780F760F740F710F6F0FD6
:1012E8006D0F6A0F680F660F630F610F5E0F5C0F5B
:1012F800590F570F540F520F4F0F4D0F4A0F480FEA
:10130800450F420F400F3D0F3A0F380F350F320F80
:10131800300F2D0F2A0F270F240F220F1F0F1C0F1E
:10132800190F160F130F100F0D0F0A0F070F040FC9
:10133800010FFE0EFB0EF80EF50EF20EEF0EEC0E80
:10134800E90EE50EE20EDF0EDC0ED90ED50ED20E3A
:10135800CF0ECB0EC80EC50EC10EBE0EBB0EB70EFD
:10136800B40EB00EAD0EA90EA60EA30E9F0E9B0EC8
:10137800980E940E910E8D0E8A0E860E820E7F0E9A
:101388007B0E770E740E700E6C0E680E650E610E75
:101398005D0E590E550E520E4E0E4A0E460E420E58
:1013A8003E0E3A0E360E320E2E0E2A0E260E220E45
:1013B8001E0E1A0E160E120E0E0E0A0E060E020E35
:1013C800FD0DF90DF50DF10DED0DE90DE40DE00D37
:1013D800DC0DD70DD30DCF0DCB0DC60DC20DBD0D38
:1013E800B90DB50DB00DAC0DA70DA30D9F0D9A0D40
:1013F800960D910D8D0D880D830D7F0D7A0D760D4F
:10140800710D6D0D680D630D5F0D5A0D550D510D64
:101418004C0D470D430D3E0D390D340D300D2B0D80
:10142800260D210D1C0D170D130D0E0D090D040DA4
:10143800FF0CFA0CF50CF00CEB0CE60CE10CDC0CD8
:10144800D70CD20CCD0CC80CC30CBE0CB90CB40C08
:10145800AF0CAA0CA50CA00C9B0C960C900C8B0C3A
:10146800860C810C7C0C760C710C6C0C670C620C75
:101478005C0C570C520C4C0C470C420C3D0C370CB6
:10148800320C2C0C270C220C1C0C170C120C0C0CFC
:10149800070C010CFC0BF60BF10BEB0BE60BE10B4D
:1014A800DB0BD60BD00BCA0BC50BBF0BBA0BB40B9F
:1014B800AF0BA90BA40B9E0B980B930B8D0B870BF3
:1014C800820B7C0B770B710B6B0B660B600B5A0B4B
:1014D800540B4F0B490B430B3E0B380B320B2C0BA9
:1014E800270B210B1B0B150B0F0B0A0B040BFE0A0A
:1014F800F80AF20AEC0AE70AE10ADB0AD50ACF0A77
:10150800C90AC30ABD0AB80AB20AAC0AA60AA00ADE
:101518009A0A940A8E0A880A820A7C0A760A700A4B
:101528006A0A640A5E0A580A520A4C0A460A400ABB
:101538003A0A340A2E0A280A220A1C0A160A100A2B
:101548000A0A040AFE09F709F109EB09E509DF09A6
:10155800D909D309CD09C709C109BA09B409AE091E
:10156800A809A2099C0996098F09890983097D0997
:10157800770971096A0964095E09580952094B0912
:1015880045093F09390933092C09260920091A098F
:1015980013090D0907090109FB08F408EE08E80812
:1015A800E208DB08D508CF08C908C208BC08B60895
:1015B800B008A908A3089D08970890088A08840815
:1015C8007E08770871086B0864085E085808520896
:1015D8004B0845083F08390832082C0826081F0818
:1015E800190813080D0806080008FA07F307ED079D
:1015F800E707E107DA07D407CE07C707C107BB0724
:10160800B507AE07A807A2079C0795078F078907A4
:1016180082077C0776077007690763075D07570726
:1016280050074A0744073E07370731072B072507A6
:101638001E07180712070C070507FF06F906F30629
:10164800ED06E606E006DA06D406CD06C706C106AC
:10165800BB06B506AE06A806A2069C0696068F0629
:10166800890683067D06770671066A0664065E06A5
:10167800580652064C0646063F06390633062D061E
:10168800270621061B0615060F0609060206FC0595
:10169800F605F005EA05E405DE05D805D205CC0512
:1016A800C605C005BA05B405AE05A805A2059C0582
:1016B800960590058A0584057E05780572056C05F2
:1016C800660560055A0554054E05480543053D0560
:1016D800370531052B0525051F05190514050E05C8
:1016E80008050205FC04F604F104EB04E504DF0434
:1016F800D904D404CE04C804C204BD04B704B10498
:10170800AC04A604A0049A0495048F0489048404F4
:101718007E04790473046D04680462045C0457044D
:1017280051044C04460441043B04360430042A04A2
:1017380025041F041A0415040F040A040404FF03F3
:10174800F903F403EE03E903E403DE03D903D40346
:10175800CE03C903C303BE03B903B403AE03A9038D
:10176800A4039E03990394038F038A0384037F03CE
:101778007A03750370036A03650360035B0356030A
:1017880051034C03470342033D03380333032E033D
:10179800290324031F031A03150310030B0306036D
:1017A8000103FC02F702F202ED02E902E402DF02A1
:1017B800DA02D502D002CC02C702C202BD02B902C7
:1017C800B402AF02AB02A602A1029D0298029302E4
:1017D8008F028A02860281027D02780273026F02FA
:1017E8006A02660261025D025902540250024B020B
:1017F800470243023E023A02350231022D02290213
:10180800240220021C02170213020F020B02070215
:101818000302FE01FA01F601F201EE01EA01E60116
:10182800E201DE01DA01D601D201CE01CA01C60108
:10183800C201BE01BA01B601B201AE01AB01A701F6
:10184800A3019F019B019801940190018C018901DA
:10185800850181017E017A01760173016F016C01B6
:101868006801650161015D015A0157015301500189
:101878004C014901450142013F013B013801350155
:1018880031012E012B012701240121011E011B0119
:101898001701140111010E010B01080105010201D4
:1018A800FF00FC00F900F600F300F000ED00EA008C
:1018B800E700E400E100DE00DC00D900D600D30038
:1018C800D000CE00CB00C800C600C300C000BE00D8
:1018D800BB00B800B600B300B100AE00AC00A90070
:1018E800A700A400A2009F009D009A0098009600FF
:1018F800930091008F008C008A0088008600830086
:1019080081007F007D007B00790077007400720001
:1019180070006E006C006A00680066006400620077
:1019280061005F005D005B005900570056005400DD
:10193800520050004F004D004B004900480046003F
:1019480045004300410040003E003D003B003A0096
:1019580038003700360034003300310030002F00E3
:101968002D002C002B002A00280027002600250027
:1019780024002200210020001F001E001D001C0062
:101988001B001A0019001800170016001500140093
:101998001400130012001100100010000F000E00B8
:1019A8000D000D000C000B000B000A000A000900D6
:1019B80009000800080007000700060006000500E7
:1019C80005000400040004000300030003000300F2
:1019D80002000200020002000200010001000100F2
:1019E80001000100010001000100010001000100E7
:1019F80001000100010001000200020002000200D3
:101A080002000300030003000300040004000400B4
:101A1800050005000600060007000700080008008A
:101A2800090009000A000A000B000B000C000D0059
:101A38000D000E000F00100010001100120013001E
:101A480014001400150016001700180019001A00D9
:101A58001B001C001D001E001F002000210022008A
:101A6800240025002600270028002A002B002C002F
:101A78002D002F00300031003300340036003700CD
:101A880038003A003B003D003E0040004100430062
:101A980045004600480049004B004D004F005000EB
:101AA800520054005600570059005B005D005F006B
:101AB800610062006400660068006A006C006E00E5
:101AC800700072007400770079007B007D007F0051
:101AD80081008300860088008A008C008F009100B6
:101AE8009300960098009A009D009F00A200A40011
:101AF800A700A900AC00AE00B100B300B600B80062
:101B0800BB00BE00C000C300C600C800CB00CE00AA
:101B1800D000D300D600D900DC00DE00E100E400EC
:101B2800E700EA00ED00F000F300F600F900FC0021
:101B3800FF000201050108010B010E01110114014A
:101B480017011B011E012101240127012B012E0170
:101B58003101350138013B013F014201450149018D
:101B68004C015001530157015A015D0161016501A2
:101B780068016C016F01730176017A017E018101B0
:101B8800850189018C019001940198019B019F01B5
:101B9800A301A701AB01AE01B201B601BA01BE01B2
:101BA800C201C601CA01CE01D201D601DA01DE01A5
:101BB800E201E601EA01EE01F201F601FA01FE0195
:101BC800030207020B020F02130217021C02200273
:101BD800240229022D02310235023A023E02430252
:101BE80047024B025002540259025D02610266022A
:101BF8006A026F02730278027D02810286028A02FB
:101C08008F02930298029D02A102A602AB02AF02C4
:101C1800B402B902BD02C202C702CC02D002D50288
:101C2800DA02DF02E402E902ED02F202F702FC0244
:101C3800010306030B03100315031A031F032403F0
:101C480029032E03330338033D03420347034C03A0
:101C5800510356035B03600365036A03700375034E
:101C68007A037F0384038A038F03940399039E03F3
:101C7800A403A903AE03B403B903BE03C303C90392
:101C8800CE03D403D903DE03E403E903EE03F4032C
:101C9800F903FF0304040A040F0415041A041F04BB
:101CA80025042A04300436043B04410446044C0449
:101CB800510457045C04620468046D0473047904D5
:101CC8007E04840489048F0495049A04A004A6045D
:101CD800AC04B104B704BD04C204C804CE04D404DF
:101CE800D904DF04E504EB04F104F604FC0402055E
:101CF80008050E05140519051F0525052B053105D1
:101D080037053D05430548054E0554055A05600548
:101D180066056C05720578057E0584058A059005BB
:101D280096059C05A205A805AE05B405BA05C0052B
:101D3800C605CC05D205D805DE05E405EA05F0059B
:101D4800F605FC05020609060F0615061B06210600
:101D580027062D06330639063F0646064C06520668
:101D680058065E0664066A06710677067D068306CF
:101D780089068F0696069C06A206A806AE06B50634
:101D8800BB06C106C706CD06D406DA06E006E60697
:101D9800ED06F306F906FF0605070C0712071807F4
:101DA8001E0725072B07310737073E0744074A0751
:101DB800500757075D0763076907700776077C07B1
:101DC800820789078F0795079C07A207A807AE0710
:101DD800B507BB07C107C707CE07D407DA07E1076E
:101DE800E707ED07F307FA070008040808080C08D6
:101DF8001008140818081C082008240828082C08AB
:101E08003008340838083C084008440848084C089A
:101E18005008540858085C086008640868086C088A
:101E28007008740878087C088008840888088C087A
:101E38009008940898089C08A008A408A808AC086A
:101E4800B008B408B808BC08C008C408C808CC085A
:101E5800D008D408D808DC08E008E408E808EC084A
:101E6800F008F408F808FC080009040908090C0936
:101E78001009140918091C092009240928092C0922
:101E88003009340938093C094009440948094C0912
:101E98005009540958095C096009640968096C0902
:101EA8007009740978097C098009840988098C09F2
:101EB8009009940998099C09A009A409A809AC09E2
:101EC800B009B409B809BC09C009C409C809CC09D2
:101ED800D009D409D809DC09E009E409E809EC09C2
:101EE800F009F409F809FC09000A040A080A0C0AAE
:101EF800100A140A180A1C0A200A240A280A2C0A9A
:101F0800300A340A380A3C0A400A440A480A4C0A89
:101F1800500A540A580A5C0A600A640A680A6C0A79
:101F2800700A740A780A7C0A800A840A880A8C0A69
:101F3800900A940A980A9C0AA00AA40AA80AAC0A59
:101F4800B00AB40AB80ABC0AC00AC40AC80ACC0A49
:101F5800D00AD40AD80ADC0AE00AE40AE80AEC0A39
:101F6800F00AF40AF80AFC0A000B040B080B0C0B25
:101F7800100B140B180B1C0B200B240B280B2C0B11
:101F8800300B340B380B3C0B400B440B480B4C0B01
:101F9800500B540B580B5C0B600B640B680B6C0BF1
:101FA800700B740B780B7C0B800B840B880B8C0BE1
:101FB800900B940B980B9C0BA00BA40BA80BAC0BD1
:101FC800B00BB40BB80BBC0BC00BC40BC80BCC0BC1
:101FD800D00BD40BD80BDC0BE00BE40BE80BEC0BB1
:101FE800F00BF40BF80BFC0B000C040C080C0C0C9D
:101FF800100C140C180C1C0C200C240C280C2C0C89
:10200800300C340C380C3C0C400C440C480C4C0C78
:10201800500C540C580C5C0C600C640C680C6C0C68
:10202800700C740C780C7C0C800C840C880C8C0C58
:10203800900C940C980C9C0CA00CA40CA80CAC0C48
:10204800B00CB40CB80CBC0CC00CC40CC80CCC0C38
:10205800D00CD40CD80CDC0CE00CE40CE80CEC0C28
:10206800F00CF40CF80CFC0C000D040D080D0C0D14
:10207800100D140D180D1C0D200D240D280D2C0D00
:10208800300D340D380D3C0D400D440D480D4C0DF0
:10209800500D540D580D5C0D600D640D680D6C0DE0
:1020A800700D740D780D7C0D800D840D880D8C0DD0
:1020B800900D940D980D9C0DA00DA40DA80DAC0DC0
:1020C800B00DB40DB80DBC0DC00DC40DC80DCC0DB0
:1020D800D00DD40DD80DDC0DE00DE40DE80DEC0DA0
:1020E800F00DF40DF80DFC0D000E040E080E0C0E8C
:1020F800100E140E180E1C0E200E240E280E2C0E78
:10210800300E340E380E3C0E400E440E480E4C0E67
:10211800500E540E580E5C0E600E640E680E6C0E57
:10212800700E740E780E7C0E800E840E880E8C0E47
:10213800900E940E980E9C0EA00EA40EA80EAC0E37
:10214800B00EB40EB80EBC0EC00EC40EC80ECC0E27
:10215800D00ED40ED80EDC0EE00EE40EE80EEC0E17
:10216800F00EF40EF80EFC0E000F040F080F0C0F03
:10217800100F140F180F1C0F200F240F280F2C0FEF
:10218800300F340F380F3C0F400F440F480F4C0FDF
:10219800500F540F580F5C0F600F640F680F6C0FCF
:1021A800700F740F780F7C0F800F840F880F8C0FBF
:1021B800900F940F980F9C0FA00FA40FA80FAC0FAF
:1021C800B00FB40FB80FBC0FC00FC40FC80FCC0F9F
:1021D800D00FD40FD80FDC0FE00FE40FE80FEC0F8F
:1021E800F00FF40FF80FFC0FFC0FF80FF40FF00FBF
:1021F800EC0FE80FE40FE00FDC0FD80FD40FD00F6F
:10220800CC0FC80FC40FC00FBC0FB80FB40FB00F5E
:10221800AC0FA80FA40FA00F9C0F980F940F900F4E
:102228008C0F880F840F800F7C0F780F740F700F3E
:102238006C0F680F640F600F5C0F580F540F500F2E
:102248004C0F480F440F400F3C0F380F340F300F1E
:102258002C0F280F240F200F1C0F180F140F100F0E
:102268000C0F080F040F000FFC0EF80EF40EF00E02
:10227800EC0EE80EE40EE00EDC0ED80ED40ED00EF6
:10228800CC0EC80EC40EC00EBC0EB80EB40EB00EE6
:10229800AC0EA80EA40EA00E9C0E980E940E900ED6
:1022A8008C0E880E840E800E7C0E780E740E700EC6
:1022B8006C0E680E640E600E5C0E580E540E500EB6
:1022C8004C0E480E440E400E3C0E380E340E300EA6
:1022D8002C0E280E240E200E1C0E180E140E100E96
:1022E8000C0E080E040E000EFC0DF80DF40DF00D8A
:1022F800EC0DE80DE40DE00DDC0DD80DD40DD00D7E
:10230800CC0DC80DC40DC00DBC0DB80DB40DB00D6D
:10231800AC0DA80DA40DA00D9C0D980D940D900D5D
:102328008C0D880D840D800D7C0D780D740D700D4D
:102338006C0D680D640D600D5C0D580D540D500D3D
:102348004C0D480D440D400D3C0D380D340D300D2D
:102358002C0D280D240D200D1C0D180D140D100D1D
:102368000C0D080D040D000DFC0CF80CF40CF00C11
:10237800EC0CE80CE40CE00CDC0CD80CD40CD00C05
:10238800CC0CC80CC40CC00CBC0CB80CB40CB00CF5
:10239800AC0CA80CA40CA00C9C0C980C940C900CE5
:1023A8008C0C880C840C800C7C0C780C740C700CD5
:1023B8006C0C680C640C600C5C0C580C540C500CC5
:1023C8004C0C480C440C400C3C0C380C340C300CB5
:1023D8002C0C280C240C200C1C0C180C140C100CA5
:1023E8000C0C080C040C000CFC0BF80BF40BF00B99
:1023F800EC0BE80BE40BE00BDC0BD80BD40BD00B8D
:10240800CC0BC80BC40BC00BBC0BB80BB40BB00B7C
:10241800AC0BA80BA40BA00B9C0B980B940B900B6C
:102428008C0B880B840B800B7C0B780B740B700B5C
:102438006C0B680B640B600B5C0B580B540B500B4C
:102448004C0B480B440B400B3C0B380B340B300B3C
:102458002C0B280B240B200B1C0B180B140B100B2C
:102468000C0B080B040B000BFC0AF80AF40AF00A20
:10247800EC0AE80AE40AE00ADC0AD80AD40AD00A14
:10248800CC0AC80AC40AC00ABC0AB80AB40AB00A04
:10249800AC0AA80AA40AA00A9C0A980A940A900AF4
:1024A8008C0A880A840A800A7C0A780A740A700AE4
:1024B8006C0A680A640A600A5C0A580A540A500AD4
:1024C8004C0A480A440A400A3C0A380A340A300AC4
:1024D8002C0A280A240A200A1C0A180A140A100AB4
:1024E8000C0A080A040A000AFC09F809F409F009A8
:1024F800EC09E809E409E009DC09D809D409D0099C
:10250800CC09C809C409C009BC09B809B409B0098B
:10251800AC09A809A409A0099C099809940990097B
:102528008C098809840980097C097809740970096B
:102538006C096809640960095C095809540950095B
:102548004C094809440940093C093809340930094B
:102558002C092809240920091C091809140910093B
:102568000C09080904090009FC08F808F408F0082F
:10257800EC08E808E408E008DC08D808D408D00823
:10258800CC08C808C408C008BC08B808B408B00813
:10259800AC08A808A408A0089C0898089408900803
:1025A8008C088808840880087C08780874087008F3
:1025B8006C086808640860085C08580854085008E3
:1025C8004C084808440840083C08380834083008D3
:1025D8002C082808240820081C08180814081008C3
:1025E8000C08080804080008FC07F807F407F007B7
:1025F800EC07E807E407E007DC07D807D407D007AB
:10260800CC07C807C407C007BC07B807B407B0079A
:10261800AC07A807A407A0079C079807940790078A
:102628008C078807840780077C077807740770077A
:102638006C076807640760075C075807540750076A
:102648004C074807440740073C073807340730075A
:102658002C072807240720071C071807140710074A
:102668000C07080704070007FC06F806F406F0063E
:10267800EC06E806E406E006DC06D806D406D00632
:10268800CC06C806C406C006BC06B806B406B00622
:10269800AC06A806A406A0069C0698069406900612
:1026A8008C068806840680067C0678067406700602
:1026B8006C066806640660065C06580654065006F2
:1026C8004C064806440640063C06380634063006E2
:1026D8002C062806240620061C06180614061006D2
:1026E8000C06080604060006FC05F805F405F005C6
:1026F800EC05E805E405E005DC05D805D405D005BA
:10270800CC05C805C405C005BC05B805B405B005A9
:10271800AC05A805A405A0059C0598059405900599
:102728008C058805840580057C0578057405700589
:102738006C056805640560055C0558055405500579
:102748004C054805440540053C0538053405300569
:102758002C052805240520051C0518051405100559
:102768000C05080504050005FC04F804F404F0044D
:10277800EC04E804E404E004DC04D804D404D00441
:10278800CC04C804C404C004BC04B804B404B00431
:10279800AC04A804A404A0049C0498049404900421
:1027A8008C048804840480047C0478047404700411
:1027B8006C046804640460045C0458045404500401
:1027C8004C044804440440043C04380434043004F1
:1027D8002C042804240420041C04180414041004E1
:1027E8000C04080404040004FC03F803F403F003D5
:1027F800EC03E803E403E003DC03D803D403D003C9
:10280800CC03C803C403C003BC03B803B403B003B8
:10281800AC03A803A403A0039C03980394039003A8
:102828008C038803840380037C0378037403700398
:102838006C036803640360035C0358035403500388
:102848004C034803440340033C0338033403300378
:102858002C032803240320031C0318031403100368
:102868000C03080304030003FC02F802F402F0025C
:10287800EC02E802E402E002DC02D802D402D00250
:10288800CC02C802C402C002BC02B802B402B00240
:10289800AC02A802A402A0029C0298029402900230
:1028A8008C028802840280027C0278027402700220
:1028B8006C026802640260025C0258025402500210
:1028C8004C024802440240023C0238023402300200
:1028D8002C022802240220021C02180214021002F0
:1028E8000C02080204020002FC01F801F401F001E4
:1028F800EC01E801E401E001DC01D801D401D001D8
:10290800CC01C801C401C001BC01B801B401B001C7
:10291800AC01A801A401A0019C01980194019001B7
:102928008C018801840180017C01780174017001A7
:102938006C016801640160015C0158015401500197
:102948004C014801440140013C0138013401300187
:102958002C012801240120011C0118011401100177
:102968000C01080104010001FC00F800F400F0006B
:10297800EC00E800E400E000DC00D800D400D0005F
:10298800CC00C800C400C000BC00B800B400B0004F
:10299800AC00A800A400A0009C009800940090003F
:1029A8008C008800840080007C007800740070002F
:1029B8006C006800640060005C005800540050001F
:1029C8004C004800440040003C003800340030000F
:1029D8002C002800240020001C00180014001000FF
:1029E8000C000800040000000000040008000C00AF
:1029F8001000140018001C002000240028002C00DF
:102A08003000340038003C004000440048004C00CE
:102A18005000540058005C006000640068006C00BE
:102A28007000740078007C008000840088008C00AE
:102A38009000940098009C00A000A400A800AC009E
:102A4800B000B400B800BC00C000C400C800CC008E
:102A5800D000D400D800DC00E000E400E800EC007E
:102A6800F000F400F800FC000001040108010C016A
:102A78001001140118011C012001240128012C0156
:102A88003001340138013C014001440148014C0146
:102A98005001540158015C016001640168016C0136
:102AA8007001740178017C018001840188018C0126
:102AB8009001940198019C01A001A401A801AC0116
:102AC800B001B401B801BC01C001C401C801CC0106
:102AD800D001D401D801DC01E001E401E801EC01F6
:102AE800F001F401F801FC010002040208020C02E2
:102AF8001002140218021C022002240228022C02CE
:102B08003002340238023C024002440248024C02BD
:102B18005002540258025C026002640268026C02AD
:102B28007002740278027C028002840288028C029D
:102B38009002940298029C02A002A402A802AC028D
:102B4800B002B402B802BC02C002C402C802CC027D
:102B5800D002D402D802DC02E002E402E802EC026D
:102B6800F002F402F802FC020003040308030C0359
:102B78001003140318031C032003240328032C0345
:102B88003003340338033C034003440348034C0335
:102B98005003540358035C036003640368036C0325
:102BA8007003740378037C038003840388038C0315
:102BB8009003940398039C03A003A403A803AC0305
:102BC800B003B403B803BC03C003C403C803CC03F5
:102BD800D003D403D803DC03E003E403E803EC03E5
:102BE800F003F403F803FC030004040408040C04D1
:102BF8001004140418041C042004240428042C04BD
:102C08003004340438043C044004440448044C04AC
:102C18005004540458045C046004640468046C049C
:102C28007004740478047C048004840488048C048C
:102C38009004940498049C04A004A404A804AC047C
:102C4800B004B404B804BC04C004C404C804CC046C
:102C5800D004D404D804DC04E004E404E804EC045C
:102C6800F004F404F804FC040005040508050C0548
:102C78001005140518051C052005240528052C0534
:102C88003005340538053C054005440548054C0524
:102C98005005540558055C056005640568056C0514
:102CA8007005740578057C058005840588058C0504
:102CB8009005940598059C05A005A405A805AC05F4
:102CC800B005B405B805BC05C005C405C805CC05E4
:102CD800D005D405D805DC05E005E405E805EC05D4
:102CE800F005F405F805FC050006040608060C06C0
:102CF8001006140618061C062006240628062C06AC
:102D08003006340638063C064006440648064C069B
:102D18005006540658065C066006640668066C068B
:102D28007006740678067C068006840688068C067B
:102D38009006940698069C06A006A406A806AC066B
:102D4800B006B406B806BC06C006C406C806CC065B
:102D5800D006D406D806DC06E006E406E806EC064B
:102D6800F006F406F806FC060007040708070C0737
:102D78001007140718071C072007240728072C0723
:102D88003007340738073C074007440748074C0713
:102D98005007540758075C076007640768076C0703
:102DA8007007740778077C078007840788078C07F3
:102DB8009007940798079C07A007A407A807AC07E3
:102DC800B007B407B807BC07C007C407C807CC07D3
:102DD800D007D407D807DC07E007E407E807EC07C3
:102DE800F007F407F807FC070000000000000000E7
:102DF80000000000000000000000000000000000CB
:102E080000000000000000000000000000000000BA
:102E180000000000000000000000000000000000AA
:102E2800000000000000000000000000000000009A
:103428000000000000000000FF0FFF0FFF0FFF0F5C
:10343800FF0FFF0FFF0FFF0FFF0FFF0FFF0FFF0F14
:10344800FF0FFF0FFF0FFF0FFF0FFF0FFF0FFF0F04
:10345800FF0FFF0FFF0FFF0FFF0FFF0FFF0FFF0FF4
:10346800FF0FFF0FFF0FFF0FFF0FFF0FFF0FFF0FE4
:103C2800FF0FFF0FFF0FFF0F000000000000000054
:103C3800000000000000000000000000000000007C
:103C4800000000000000000000000000000000006C
:103C5800000000000000000000000000000000005C
:103C6800000000000000000000000000000000004C
:104428000000000000000000000802080408060858
:1044380008080A080C080E081008120814081608BC
:1044480018081A081C081E0820082208240826082C
:1044580028082A082C082E0830083208340836089C
:1044680038083A083C083E0840084208440846080C
:1044780048084A084C084E0850085208540856087C
:1044880058085A085C085E086008620864086608EC
:1044980068086A086C086E0870087208740876085C
:1044A80078087A087C087E088008820884088608CC
:1044B80088088A088C088E0890089208940896083C
:1044C80098089A089C089E08A008A208A408A608AC
:1044D800A808AA08AC08AE08B008B208B408B6081C
:1044E800B808BA08BC08BE08C008C208C408C6088C
:1044F800C808CA08CC08CE08D008D208D408D608FC
:10450800D808DA08DC08DE08E008E208E408E6086B
:10451800E808EA08EC08EE08F008F208F408F608DB
:10452800F808FA08FC08FE08000902090409060947
:1045380008090A090C090E091009120914091609B3
:1045480018091A091C091E09200922092409260923
:1045580028092A092C092E09300932093409360993
:1045680038093A093C093E09400942094409460903
:1045780048094A094C094E09500952095409560973
:1045880058095A095C095E096009620964096609E3
:1045980068096A096C096E09700972097409760953
:1045A80078097A097C097E098009820984098609C3
:1045B80088098A098C098E09900992099409960933
:1045C80098099A099C099E09A009A209A409A609A3
:1045D800A809AA09AC09AE09B009B209B409B60913
:1045E800B809BA09BC09BE09C009C209C409C60983
:1045F800C809CA09CC09CE09D009D209D409D609F3
:10460800D809DA09DC09DE09E009E209E409E60962
:10461800E809EA09EC09EE09F009F209F409F609D2
:10462800F809FA09FC09FE09000A020A040A060A3E
:10463800080A0A0A0C0A0E0A100A120A140A160AAA
:10464800180A1A0A1C0A1E0A200A220A240A260A1A
:10465800280A2A0A2C0A2E0A300A320A340A360A8A
:10466800380A3A0A3C0A3E0A400A420A440A460AFA
:10467800480A4A0A4C0A4E0A500A520A540A560A6A
:10468800580A5A0A5C0A5E0A600A620A640A660ADA
:10469800680A6A0A6C0A6E0A700A720A740A760A4A
:1046A800780A7A0A7C0A7E0A800A820A840A860ABA
:1046B800880A8A0A8C0A8E0A900A920A940A960A2A
:1046C800980A9A0A9C0A9E0AA00AA20AA40AA60A9A
:1046D800A80AAA0AAC0AAE0AB00AB20AB40AB60A0A
:1046E800B80ABA0ABC0ABE0AC00AC20AC40AC60A7A
:1046F800C80ACA0ACC0ACE0AD00AD20AD40AD60AEA
:10470800D80ADA0ADC0ADE0AE00AE20AE40AE60A59
:10471800E80AEA0AEC0AEE0AF00AF20AF40AF60AC9
:10472800F80AFA0AFC0AFE0A000B020B040B060B35
:10473800080B0A0B0C0B0E0B100B120B140B160BA1
:10474800180B1A0B1C0B1E0B200B220B240B260B11
:10475800280B2A0B2C0B2E0B300B320B340B360B81
:10476800380B3A0B3C0B3E0B400B420B440B460BF1
:10477800480B4A0B4C0B4E0B500B520B540B560B61
:10478800580B5A0B5C0B5E0B600B620B640B660BD1
:10479800680B6A0B6C0B6E0B700B720B740B760B41
:1047A800780B7A0B7C0B7E0B800B820B840B860BB1
:1047B800880B8A0B8C0B8E0B900B920B940B960B21
:1047C800980B9A0B9C0B9E0BA00BA20BA40BA60B91
:1047D800A80BAA0BAC0BAE0BB00BB20BB40BB60B01
:1047E800B80BBA0BBC0BBE0BC00BC20BC40BC60B71
:1047F800C80BCA0BCC0BCE0BD00BD20BD40BD60BE1
:10480800D80BDA0BDC0BDE0BE00BE20BE40BE60B50
:10481800E80BEA0BEC0BEE0BF00BF20BF40BF60BC0
:10482800F80BFA0BFC0BFE0B000C020C040C060C2C
:10483800080C0A0C0C0C0E0C100C120C140C160C98
:10484800180C1A0C1C0C1E0C200C220C240C260C08
:10485800280C2A0C2C0C2E0C300C320C340C360C78
:10486800380C3A0C3C0C3E0C400C420C440C460CE8
:10487800480C4A0C4C0C4E0C500C520C540C560C58
:10488800580C5A0C5C0C5E0C600C620C640C660CC8
:10489800680C6A0C6C0C6E0C700C720C740C760C38
:1048A800780C7A0C7C0C7E0C800C820C840C860CA8
:1048B800880C8A0C8C0C8E0C900C920C940C960C18
:1048C800980C9A0C9C0C9E0CA00CA20CA40CA60C88
:1048D800A80CAA0CAC0CAE0CB00CB20CB40CB60CF8
:1048E800B80CBA0CBC0CBE0CC00CC20CC40CC60C68
:1048F800C80CCA0CCC0CCE0CD00CD20CD40CD60CD8
:10490800D80CDA0CDC0CDE0CE00CE20CE40CE60C47
:10491800E80CEA0CEC0CEE0CF00CF20CF40CF60CB7
:10492800F80CFA0CFC0CFE0C000D020D040D060D23
:10493800080D0A0D0C0D0E0D100D120D140D160D8F
:10494800180D1A0D1C0D1E0D200D220D240D260DFF
:10495800280D2A0D2C0D2E0D300D320D340D360D6F
:10496800380D3A0D3C0D3E0D400D420D440D460DDF
:10497800480D4A0D4C0D4E0D500D520D540D560D4F
:10498800580D5A0D5C0D5E0D600D620D640D660DBF
:10499800680D6A0D6C0D6E0D700D720D740D760D2F
:1049A800780D7A0D7C0D7E0D800D820D840D860D9F
:1049B800880D8A0D8C0D8E0D900D920D940D960D0F
:1049C800980D9A0D9C0D9E0DA00DA20DA40DA60D7F
:1049D800A80DAA0DAC0DAE0DB00DB20DB40DB60DEF
:1049E800B80DBA0DBC0DBE0DC00DC20DC40DC60D5F
:1049F800C80DCA0DCC0DCE0DD00DD20DD40DD60DCF
:104A0800D80DDA0DDC0DDE0DE00DE20DE40DE60D3E
:104A1800E80DEA0DEC0DEE0DF00DF20DF40DF60DAE
:104A2800F80DFA0DFC0DFE0D000E020E040E060E1A
:104A3800080E0A0E0C0E0E0E100E120E140E160E86
:104A4800180E1A0E1C0E1E0E200E220E240E260EF6
:104A5800280E2A0E2C0E2E0E300E320E340E360E66
:104A6800380E3A0E3C0E3E0E400E420E440E460ED6
:104A7800480E4A0E4C0E4E0E500E520E540E560E46
:104A8800580E5A0E5C0E5E0E600E620E640E660EB6
:104A9800680E6A0E6C0E6E0E700E720E740E760E26
:104AA800780E7A0E7C0E7E0E800E820E840E860E96
:104AB800880E8A0E8C0E8E0E900E920E940E960E06
:104AC800980E9A0E9C0E9E0EA00EA20EA40EA60E76
:104AD800A80EAA0EAC0EAE0EB00EB20EB40EB60EE6
:104AE800B80EBA0EBC0EBE0EC00EC20EC40EC60E56
:104AF800C80ECA0ECC0ECE0ED00ED20ED40ED60EC6
:104B0800D80EDA0EDC0EDE0EE00EE20EE40EE60E35
:104B1800E80EEA0EEC0EEE0EF00EF20EF40EF60EA5
:104B2800F80EFA0EFC0EFE0E000F020F040F060F11
:104B3800080F0A0F0C0F0E0F100F120F140F160F7D
:104B4800180F1A0F1C0F1E0F200F220F240F260FED
:104B5800280F2A0F2C0F2E0F300F320F340F360F5D
:104B6800380F3A0F3C0F3E0F400F420F440F460FCD
:104B7800480F4A0F4C0F4E0F500F520F540F560F3D
:104B8800580F5A0F5C0F5E0F600F620F640F660FAD
:104B9800680F6A0F6C0F6E0F700F720F740F760F1D
:104BA800780F7A0F7C0F7E0F800F820F840F860F8D
:104BB800880F8A0F8C0F8E0F900F920F940F960FFD
:104BC800980F9A0F9C0F9E0FA00FA20FA40FA60F6D
:104BD800A80FAA0FAC0FAE0FB00FB20FB40FB60FDD
:104BE800B80FBA0FBC0FBE0FC00FC20FC40FC60F4D
:104BF800C80FCA0FCC0FCE0FD00FD20FD40FD60FBD
:104C0800D80FDA0FDC0FDE0FE00FE20FE40FE60F2C
:104C1800E80FEA0FEC0FEE0FF00FF20FF40FF60F9C
:104C2800F80FFA0FFC0FFE0F000002000400060048
:104C380008000A000C000E001000120014001600F4
:104C480018001A001C001E00200022002400260064
:104C580028002A002C002E003000320034003600D4
:104C680038003A003C003E00400042004400460044
:104C780048004A004C004E005000520054005600B4
:104C880058005A005C005E00600062006400660024
:104C980068006A006C006E00700072007400760094
:104CA80078007A007C007E00800082008400860004
:104CB80088008A008C008E00900092009400960074
:104CC80098009A009C009E00A000A200A400A600E4
:104CD800A800AA00AC00AE00B000B200B400B60054
:104CE800B800BA00BC00BE00C000C200C400C600C4
:104CF800C800CA00CC00CE00D000D200D400D60034
:104D0800D800DA00DC00DE00E000E200E400E600A3
:104D1800E800EA00EC00EE00F000F200F400F60013
:104D2800F800FA00FC00FE0000010201040106017F
:104D380008010A010C010E011001120114011601EB
:104D480018011A011C011E0120012201240126015B
:104D580028012A012C012E013001320134013601CB
:104D680038013A013C013E0140014201440146013B
:104D780048014A014C014E015001520154015601AB
:104D880058015A015C015E0160016201640166011B
:104D980068016A016C016E0170017201740176018B
:104DA80078017A017C017E018001820184018601FB
:104DB80088018A018C018E0190019201940196016B
:104DC80098019A019C019E01A001A201A401A601DB
:104DD800A801AA01AC01AE01B001B201B401B6014B
:104DE800B801BA01BC01BE01C001C201C401C601BB
:104DF800C801CA01CC01CE01D001D201D401D6012B
:104E0800D801DA01DC01DE01E001E201E401E6019A
:104E1800E801EA01EC01EE01F001F201F401F6010A
:104E2800F801FA01FC01FE01000202020402060276
:104E380008020A020C020E021002120214021602E2
:104E480018021A021C021E02200222022402260252
:104E580028022A022C022E023002320234023602C2
:104E680038023A023C023E02400242024402460232
:104E780048024A024C024E025002520254025602A2
:104E880058025A025C025E02600262026402660212
:104E980068026A026C026E02700272027402760282
:104EA80078027A027C027E028002820284028602F2
:104EB80088028A028C028E02900292029402960262
:104EC80098029A029C029E02A002A202A402A602D2
:104ED800A802AA02AC02AE02B002B202B402B60242
:104EE800B802BA02BC02BE02C002C202C402C602B2
:104EF800C802CA02CC02CE02D002D202D402D60222
:104F0800D802DA02DC02DE02E002E202E402E60291
:104F1800E802EA02EC02EE02F002F202F402F60201
:104F2800F802FA02FC02FE0200030203040306036D
:104F380008030A030C030E031003120314031603D9
:104F480018031A031C031E03200322032403260349
:104F580028032A032C032E033003320334033603B9
:104F680038033A033C033E03400342034403460329
:104F780048034A034C034E03500352035403560399
:104F880058035A035C035E03600362036403660309
:104F980068036A036C036E03700372037403760379
:104FA80078037A037C037E038003820384038603E9
:104FB80088038A038C038E03900392039403960359
:104FC80098039A039C039E03A003A203A403A603C9
:104FD800A803AA03AC03AE03B003B203B403B60339
:104FE800B803BA03BC03BE03C003C203C403C603A9
:104FF800C803CA03CC03CE03D003D203D403D60319
:10500800D803DA03DC03DE03E003E203E403E60388
:10501800E803EA03EC03EE03F003F203F403F603F8
:10502800F803FA03FC03FE03000402040404060464
:1050380008040A040C040E041004120414041604D0
:1050480018041A041C041E04200422042404260440
:1050580028042A042C042E043004320434043604B0
:1050680038043A043C043E04400442044404460420
:1050780048044A044C044E04500452045404560490
:1050880058045A045C045E04600462046404660400
:1050980068046A046C046E04700472047404760470
:1050A80078047A047C047E048004820484048604E0
:1050B80088048A048C048E04900492049404960450
:1050C80098049A049C049E04A004A204A404A604C0
:1050D800A804AA04AC04AE04B004B204B404B60430
:1050E800B804BA04BC04BE04C004C204C404C604A0
:1050F800C804CA04CC04CE04D004D204D404D60410
:10510800D804DA04DC04DE04E004E204E404E6047F
:10511800E804EA04EC04EE04F004F204F404F604EF
:10512800F804FA04FC04FE0400050205040506055B
:1051380008050A050C050E051005120514051605C7
:1051480018051A051C051E05200522052405260537
:1051580028052A052C052E053005320534053605A7
:1051680038053A053C053E05400542054405460517
:1051780048054A054C054E05500552055405560587
:1051880058055A055C055E056005620564056605F7
:1051980068056A056C056E05700572057405760567
:1051A80078057A057C057E058005820584058605D7
:1051B80088058A058C058E05900592059405960547
:1051C80098059A059C059E05A005A205A405A605B7
:1051D800A805AA05AC05AE05B005B205B405B60527
:1051E800B805BA05BC05BE05C005C205C405C60597
:1051F800C805CA05CC05CE05D005D205D405D60507
:10520800D805DA05DC05DE05E005E205E405E60576
:10521800E805EA05EC05EE05F005F205F405F605E6
:10522800F805FA05FC05FE05000602060406060652
:1052380008060A060C060E061006120614061606BE
:1052480018061A061C061E0620062206240626062E
:1052580028062A062C062E0630063206340636069E
:1052680038063A063C063E0640064206440646060E
:1052780048064A064C064E0650065206540656067E
:1052880058065A065C065E066006620664066606EE
:1052980068066A066C066E0670067206740676065E
:1052A80078067A067C067E068006820684068606CE
:1052B80088068A068C068E0690069206940696063E
:1052C80098069A069C069E06A006A206A406A606AE
:1052D800A806AA06AC06AE06B006B206B406B6061E
:1052E800B806BA06BC06BE06C006C206C406C6068E
:1052F800C806CA06CC06CE06D006D206D406D606FE
:10530800D806DA06DC06DE06E006E206E406E6066D
:10531800E806EA06EC06EE06F006F206F406F606DD
:10532800F806FA06FC06FE06000702070407060749
:1053380008070A070C070E071007120714071607B5
:1053480018071A071C071E07200722072407260725
:1053580028072A072C072E07300732073407360795
:1053680038073A073C073E07400742074407460705
:1053780048074A074C074E07500752075407560775
:1053880058075A075C075E076007620764076607E5
:1053980068076A076C076E07700772077407760755
:1053A80078077A077C077E078007820784078607C5
:1053B80088078A078C078E07900792079407960735
:1053C80098079A079C079E07A007A207A407A607A5
:1053D800A807AA07AC07AE07B007B207B407B60715
:1053E800B807BA07BC07BE07C007C207C407C60785
:1053F800C807CA07CC07CE07D007D207D407D607F5
:10540800D807DA07DC07DE07E007E207E407E60764
:10541800E807EA07EC07EE07F007F207F407F607D4
:10542800F807FA07FC07FE070008FE07FC07FA075B
:10543800F807F607F407F207F007EE07EC07EA07A4
:10544800E807E607E407E207E007DE07DC07DA0714
:10545800D807D607D407D207D007CE07CC07CA0784
:10546800C807C607C407C207C007BE07BC07BA07F4
:10547800B807B607B407B207B007AE07AC07AA0764
:10548800A807A607A407A207A0079E079C079A07D4
:10549800980796079407920790078E078C078A0744
:1054A800880786078407820780077E077C077A07B4
:1054B800780776077407720770076E076C076A0724
:1054C800680766076407620760075E075C075A0794
:1054D800580756075407520750074E074C074A0704
:1054E800480746074407420740073E073C073A0774
:1054F800380736073407320730072E072C072A07E4
:10550800280726072407220720071E071C071A0753
:10551800180716071407120710070E070C070A07C3
:1055280008070607040702070007FE06FC06FA0636
:10553800F806F606F406F206F006EE06EC06EA06AB
:10554800E806E606E406E206E006DE06DC06DA061B
:10555800D806D606D406D206D006CE06CC06CA068B
:10556800C806C606C406C206C006BE06BC06BA06FB
:10557800B806B606B406B206B006AE06AC06AA066B
:10558800A806A606A406A206A0069E069C069A06DB
:10559800980696069406920690068E068C068A064B
:1055A800880686068406820680067E067C067A06BB
:1055B800780676067406720670066E066C066A062B
:1055C800680666066406620660065E065C065A069B
:1055D800580656065406520650064E064C064A060B
:1055E800480646064406420640063E063C063A067B
:1055F800380636063406320630062E062C062A06EB
:10560800280626062406220620061E061C061A065A
:10561800180616061406120610060E060C060A06CA
:1056280008060606040602060006FE05FC05FA053D
:10563800F805F605F405F205F005EE05EC05EA05B2
:10564800E805E605E405E205E005DE05DC05DA0522
:10565800D805D605D405D205D005CE05CC05CA0592
:10566800C805C605C405C205C005BE05BC05BA0502
:10567800B805B605B405B205B005AE05AC05AA0572
:10568800A805A605A405A205A0059E059C059A05E2
:10569800980596059405920590058E058C058A0552
:1056A800880586058405820580057E057C057A05C2
:1056B800780576057405720570056E056C056A0532
:1056C800680566056405620560055E055C055A05A2
:1056D800580556055405520550054E054C054A0512
:1056E800480546054405420540053E053C053A0582
:1056F800380536053405320530052E052C052A05F2
:10570800280526052405220520051E051C051A0561
:10571800180516051405120510050E050C050A05D1
:1057280008050605040502050005FE04FC04FA0444
:10573800F804F604F404F204F004EE04EC04EA04B9
:10574800E804E604E404E204E004DE04DC04DA0429
:10575800D804D604D404D204D004CE04CC04CA0499
:10576800C804C604C404C204C004BE04BC04BA0409
:10577800B804B604B404B204B004AE04AC04AA0479
:10578800A804A604A404A204A0049E049C049A04E9
:10579800980496049404920490048E048C048A0459
:1057A800880486048404820480047E047C047A04C9
:1057B800780476047404720470046E046C046A0439
:1057C800680466046404620460045E045C045A04A9
:1057D800580456045404520450044E044C044A0419
:1057E800480446044404420440043E043C043A0489
:1057F800380436043404320430042E042C042A04F9
:10580800280426042404220420041E041C041A0468
:10581800180416041404120410040E040C040A04D8
:1058280008040604040402040004FE03FC03FA034B
:10583800F803F603F403F203F003EE03EC03EA03C0
:10584800E803E603E403E203E003DE03DC03DA0330
:10585800D803D603D403D203D003CE03CC03CA03A0
:10586800C803C603C403C203C003BE03BC03BA0310
:10587800B803B603B403B203B003AE03AC03AA0380
:10588800A803A603A403A203A0039E039C039A03F0
:10589800980396039403920390038E038C038A0360
:1058A800880386038403820380037E037C037A03D0
:1058B800780376037403720370036E036C036A0340
:1058C800680366036403620360035E035C035A03B0
:1058D800580356035403520350034E034C034A0320
:1058E800480346034403420340033E033C033A0390
:1058F800380336033403320330032E032C032A0300
:10590800280326032403220320031E031C031A036F
:10591800180316031403120310030E030C030A03DF
:1059280008030603040302030003FE02FC02FA0252
:10593800F802F602F402F202F002EE02EC02EA02C7
:10594800E802E602E402E202E002DE02DC02DA0237
:10595800D802D602D402D202D002CE02CC02CA02A7
:10596800C802C602C402C202C002BE02BC02BA0217
:10597800B802B602B402B202B002AE02AC02AA0287
:10598800A802A602A402A202A0029E029C029A02F7
:10599800980296029402920290028E028C028A0267
:1059A800880286028402820280027E027C027A02D7
:1059B800780276027402720270026E026C026A0247
:1059C800680266026402620260025E025C025A02B7
:1059D800580256025402520250024E024C024A0227
:1059E800480246024402420240023E023C023A0297
:1059F800380236023402320230022E022C022A0207
:105A0800280226022402220220021E021C021A0276
:105A1800180216021402120210020E020C020A02E6
:105A280008020602040202020002FE01FC01FA0159
:105A3800F801F601F401F201F001EE01EC01EA01CE
:105A4800E801E601E401E201E001DE01DC01DA013E
:105A5800D801D601D401D201D001CE01CC01CA01AE
:105A6800C801C601C401C201C001BE01BC01BA011E
:105A7800B801B601B401B201B001AE01AC01AA018E
:105A8800A801A601A401A201A0019E019C019A01FE
:105A9800980196019401920190018E018C018A016E
:105AA800880186018401820180017E017C017A01DE
:105AB800780176017401720170016E016C016A014E
:105AC800680166016401620160015E015C015A01BE
:105AD800580156015401520150014E014C014A012E
:105AE800480146014401420140013E013C013A019E
:105AF800380136013401320130012E012C012A010E
:105B0800280126012401220120011E011C011A017D
:105B1800180116011401120110010E010C010A01ED
:105B280008010601040102010001FE00FC00FA0060
:105B3800F800F600F400F200F000EE00EC00EA00D5
:105B4800E800E600E400E200E000DE00DC00DA0045
:105B5800D800D600D400D200D000CE00CC00CA00B5
:105B6800C800C600C400C200C000BE00BC00BA0025
:105B7800B800B600B400B200B000AE00AC00AA0095
:105B8800A800A600A400A200A0009E009C009A0005
:105B9800980096009400920090008E008C008A0075
:105BA800880086008400820080007E007C007A00E5
:105BB800780076007400720070006E006C006A0055
:105BC800680066006400620060005E005C005A00C5
:105BD800580056005400520050004E004C004A0035
:105BE800480046004400420040003E003C003A00A5
:105BF800380036003400320030002E002C002A0015
:105C0800280026002400220020001E001C001A0084
:105C1800180016001400120010000E000C000A00F4
:105C280008000600040002000000FE0FFC0FFA0F37
:105C3800F80FF60FF40FF20FF00FEE0FEC0FEA0F5C
:105C4800E80FE60FE40FE20FE00FDE0FDC0FDA0FCC
:105C5800D80FD60FD40FD20FD00FCE0FCC0FCA0F3C
:105C6800C80FC60FC40FC20FC00FBE0FBC0FBA0FAC
:105C7800B80FB60FB40FB20FB00FAE0FAC0FAA0F1C
:105C8800A80FA60FA40FA20FA00F9E0F9C0F9A0F8C
:105C9800980F960F940F920F900F8E0F8C0F8A0FFC
:105CA800880F860F840F820F800F7E0F7C0F7A0F6C
:105CB800780F760F740F720F700F6E0F6C0F6A0FDC
:105CC800680F660F640F620F600F5E0F5C0F5A0F4C
:105CD800580F560F540F520F500F4E0F4C0F4A0FBC
:105CE800480F460F440F420F400F3E0F3C0F3A0F2C
:105CF800380F360F340F320F300F2E0F2C0F2A0F9C
:105D0800280F260F240F220F200F1E0F1C0F1A0F0B
:105D1800180F160F140F120F100F0E0F0C0F0A0F7B
:105D2800080F060F040F020F000FFE0EFC0EFA0EEE
:105D3800F80EF60EF40EF20EF00EEE0EEC0EEA0E63
:105D4800E80EE60EE40EE20EE00EDE0EDC0EDA0ED3
:105D5800D80ED60ED40ED20ED00ECE0ECC0ECA0E43
:105D6800C80EC60EC40EC20EC00EBE0EBC0EBA0EB3
:105D7800B80EB60EB40EB20EB00EAE0EAC0EAA0E23
:105D8800A80EA60EA40EA20EA00E9E0E9C0E9A0E93
:105D9800980E960E940E920E900E8E0E8C0E8A0E03
:105DA800880E860E840E820E800E7E0E7C0E7A0E73
:105DB800780E760E740E720E700E6E0E6C0E6A0EE3
:105DC800680E660E640E620E600E5E0E5C0E5A0E53
:105DD800580E560E540E520E500E4E0E4C0E4A0EC3
:105DE800480E460E440E420E400E3E0E3C0E3A0E33
:105DF800380E360E340E320E300E2E0E2C0E2A0EA3
:105E0800280E260E240E220E200E1E0E1C0E1A0E12
:105E1800180E160E140E120E100E0E0E0C0E0A0E82
:105E2800080E060E040E020E000EFE0DFC0DFA0DF5
:105E3800F80DF60DF40DF20DF00DEE0DEC0DEA0D6A
:105E4800E80DE60DE40DE20DE00DDE0DDC0DDA0DDA
:105E5800D80DD60DD40DD20DD00DCE0DCC0DCA0D4A
:105E6800C80DC60DC40DC20DC00DBE0DBC0DBA0DBA
:105E7800B80DB60DB40DB20DB00DAE0DAC0DAA0D2A
:105E8800A80DA60DA40DA20DA00D9E0D9C0D9A0D9A
:105E9800980D960D940D920D900D8E0D8C0D8A0D0A
:105EA800880D860D840D820D800D7E0D7C0D7A0D7A
:105EB800780D760D740D720D700D6E0D6C0D6A0DEA
:105EC800680D660D640D620D600D5E0D5C0D5A0D5A
:105ED800580D560D540D520D500D4E0D4C0D4A0DCA
:105EE800480D460D440D420D400D3E0D3C0D3A0D3A
:105EF800380D360D340D320D300D2E0D2C0D2A0DAA
:105F0800280D260D240D220D200D1E0D1C0D1A0D19
:105F1800180D160D140D120D100D0E0D0C0D0A0D89
:105F2800080D060D040D020D000DFE0CFC0CFA0CFC
:105F3800F80CF60CF40CF20CF00CEE0CEC0CEA0C71
:105F4800E80CE60CE40CE20CE00CDE0CDC0CDA0CE1
:105F5800D80CD60CD40CD20CD00CCE0CCC0CCA0C51
:105F6800C80CC60CC40CC20CC00CBE0CBC0CBA0CC1
:105F7800B80CB60CB40CB20CB00CAE0CAC0CAA0C31
:105F8800A80CA60CA40CA20CA00C9E0C9C0C9A0CA1
:105F9800980C960C940C920C900C8E0C8C0C8A0C11
:105FA800880C860C840C820C800C7E0C7C0C7A0C81
:105FB800780C760C740C720C700C6E0C6C0C6A0CF1
:105FC800680C660C640C620C600C5E0C5C0C5A0C61
:105FD800580C560C540C520C500C4E0C4C0C4A0CD1
:105FE800480C460C440C420C400C3E0C3C0C3A0C41
:105FF800380C360C340C320C300C2E0C2C0C2A0CB1
:10600800280C260C240C220C200C1E0C1C0C1A0C20
:10601800180C160C140C120C100C0E0C0C0C0A0C90
:10602800080C060C040C020C000CFE0BFC0BFA0B03
:10603800F80BF60BF40BF20BF00BEE0BEC0BEA0B78
:10604800E80BE60BE40BE20BE00BDE0BDC0BDA0BE8
:10605800D80BD60BD40BD20BD00BCE0BCC0BCA0B58
:10606800C80BC60BC40BC20BC00BBE0BBC0BBA0BC8
:10607800B80BB60BB40BB20BB00BAE0BAC0BAA0B38
:10608800A80BA60BA40BA20BA00B9E0B9C0B9A0BA8
:10609800980B960B940B920B900B8E0B8C0B8A0B18
:1060A800880B860B840B820B800B7E0B7C0B7A0B88
:1060B800780B760B740B720B700B6E0B6C0B6A0BF8
:1060C800680B660B640B620B600B5E0B5C0B5A0B68
:1060D800580B560B540B520B500B4E0B4C0B4A0BD8
:1060E800480B460B440B420B400B3E0B3C0B3A0B48
:1060F800380B360B340B320B300B2E0B2C0B2A0BB8
:10610800280B260B240B220B200B1E0B1C0B1A0B27
:10611800180B160B140B120B100B0E0B0C0B0A0B97
:10612800080B060B040B020B000BFE0AFC0AFA0A0A
:10613800F80AF60AF40AF20AF00AEE0AEC0AEA0A7F
:10614800E80AE60AE40AE20AE00ADE0ADC0ADA0AEF
:10615800D80AD60AD40AD20AD00ACE0ACC0ACA0A5F
:10616800C80AC60AC40AC20AC00ABE0ABC0ABA0ACF
:10617800B80AB60AB40AB20AB00AAE0AAC0AAA0A3F
:10618800A80AA60AA40AA20AA00A9E0A9C0A9A0AAF
:10619800980A960A940A920A900A8E0A8C0A8A0A1F
:1061A800880A860A840A820A800A7E0A7C0A7A0A8F
:1061B800780A760A740A720A700A6E0A6C0A6A0AFF
:1061C800680A660A640A620A600A5E0A5C0A5A0A6F
:1061D800580A560A540A520A500A4E0A4C0A4A0ADF
:1061E800480A460A440A420A400A3E0A3C0A3A0A4F
:1061F800380A360A340A320A300A2E0A2C0A2A0ABF
:10620800280A260A240A220A200A1E0A1C0A1A0A2E
:10621800180A160A140A120A100A0E0A0C0A0A0A9E
:10622800080A060A040A020A000AFE09FC09FA0911
:10623800F809F609F409F209F009EE09EC09EA0986
:10624800E809E609E409E209E009DE09DC09DA09F6
:10625800D809D609D409D209D009CE09CC09CA0966
:10626800C809C609C409C209C009BE09BC09BA09D6
:10627800B809B609B409B209B009AE09AC09AA0946
:10628800A809A609A409A209A0099E099C099A09B6
:10629800980996099409920990098E098C098A0926
:1062A800880986098409820980097E097C097A0996
:1062B800780976097409720970096E096C096A0906
:1062C800680966096409620960095E095C095A0976
:1062D800580956095409520950094E094C094A09E6
:1062E800480946094409420940093E093C093A0956
:1062F800380936093409320930092E092C092A09C6
:10630800280926092409220920091E091C091A0935
:10631800180916091409120910090E090C090A09A5
:1063280008090609040902090009FE08FC08FA0818
:10633800F808F608F408F208F008EE08EC08EA088D
:10634800E808E608E408E208E008DE08DC08DA08FD
:10635800D808D608D408D208D008CE08CC08CA086D
:10636800C808C608C408C208C008BE08BC08BA08DD
:10637800B808B608B408B208B008AE08AC08AA084D
:10638800A808A608A408A208A0089E089C089A08BD
:10639800980896089408920890088E088C088A082D
:1063A800880886088408820880087E087C087A089D
:1063B800780876087408720870086E086C086A080D
:1063C800680866086408620860085E085C085A087D
:1063D800580856085408520850084E084C084A08ED
:1063E800480846084408420840083E083C083A085D
:1063F800380836083408320830082E082C082A08CD
:10640800280826082408220820081E081C081A083C
:10641800180816081408120810080E080C080A08AC
:08642800080806080408020838
:040000050800018866
:00000001FF
