:020000040800F2
:10000000002000200D0100084D0100084D010008EE
:100010004D0100084D0100084D01000800000000DE
:100020000000000000000000000000004D0100087A
:100030004D010008000000004D0100084D010008BE
:10004000A50D0008A90D0008AD0D0008B10D0008B0
:10005000B50D0008B90D0008BD0D0008C10D000860
:10006000C50D0008C90D0008CD0D0008D10D000810
:10007000D50D0008D90D0008DD0D0008E10D0008C0
:10008000E50D0008E90D0008ED0D00084D01000820
:100090004D0100084D0100084D010008F10D000858
:1000A000F50D000851070008F90D0008FD0D0008C6
:1000B000F902000829030008010E0008050E0008D7
:1000C000090E00080D0E0008110E0008150E00089C
:1000D000190E0008A90300081D0E0008210E0008D3
:1000E000250E0008290E00082D0E00080000000053
:1000F0000000000000000000000000000000000000
:0C01000000000000000000005FF808F1A3
:10010C00002103E0094B5B58435004310848094B6C
:10011C0042189A42F6D3084A02E0002342F8043B04
:10012C00064B9A42F9D300F0B1FB7047E815000872
:10013C000000002000000020000000203C070020F0
:10014C00FEE7000070B586B006464FF00003ADF830
:10015C00143000934FF001048DF804408DF80540E5
:10016C004FF46022029203938DF810404FF4105517
:10017C00C4F201052846694600F092FC2846314637
:10018C0022464FF0070300F0BFFC2846214600F042
:10019C00AFFC4FF010038DF817309DF8173003F1BA
:1001AC00FF32D2B28DF81720FBB14FF41054C4F2C9
:1001BC0001044FF002052046294600F053FD20466D
:1001CC00294600F049FD0028F9D0E26CBDF8143046
:1001DC00D3189BB2ADF814309DF8173003F1FF32F1
:1001EC00D2B28DF81720002BE5D14FF41050C4F289
:1001FC0001004FF0000100F07BFCBDF81400C0F3CF
:10020C000B1006B070BD00BF30B486B04FF00103C8
:10021C0005934FF0000303930193059B102B62D8B9
:10022C0040F20003C2F200034FF0000440F6FF70EE
:10023C00059A02F5627203EB4202528892B24FEABF
:10024C0042320192059A02F5627202F1010203EB4D
:10025C004202518889B2059A02F5627203EB42029E
:10026C00528892B28A1A4FEA022202920494049A99
:10027C001F2A31D8039A019DB3F8121789B202F5DF
:10028C00847201EB553123F81210019A120B1FBF27
:10029C00039A02F5847233F81210013118BF23F857
:1002AC001210039A02F5847233F81220824282BF34
:1002BC00039A02F5847223F81200019A02998A18A3
:1002CC000192039A02F101020392049A02F10102D3
:1002DC000492049A1F2ACDD9059A02F101020592C3
:1002EC00059A102AA4D906B030BC70474FF0804054
:1002FC0000824FF00051CA8802F10102B2F5007F72
:10030C0014BFCA800A7047F20040C4F2000002F524
:10031C00847231F812300381704700BF08B54FF476
:10032C008063C4F200034FF6FE721A824FF48050C1
:10033C00C4F201004FF0100100F01CFD40B14FF46D
:10034C008050C4F201004FF0100100F01BFD08BDFD
:10035C004FF48050C4F201004FF0100100F010FD7A
:10036C0008BD00BF80B24FF46053C4F20103988003
:10037C004FF46052C4F20102138813F0800FFBD0CB
:10038C00704700BF10B503783BB1044658B2FFF775
:10039C00E9FF14F8013F002BF8D110BD82B04FF4E7
:1003AC006053C4F201039A88D2B28DF807204FF63D
:1003BC00DF721A8040F20003C2F2000393F8102798
:1003CC009DF80700991881F8100602F10102D2B2CB
:1003DC0083F8102793F81137002B3ED09DF8073087
:1003EC000A2B4FD140F20003C2F20003B3F83437AA
:1003FC009BB25BB140F20003C2F20003B3F83427A6
:10040C0002F1FF3292B2A3F834270CE040F2000361
:10041C00C2F2000393F8172602F0030202F1FF3236
:10042C0092B2A3F8342740F20003C2F20003B3F8EF
:10043C0034379BB233BB40F20003C2F2000393F893
:10044C00101759184FF0000281F8102683F8102766
:10045C00DA8902F10102DA8114E09DF807300A2BE7
:10046C0010D140F20003C2F2000393F81017591890
:10047C004FF0000281F8102683F81027DA8902F178
:10048C000102DA8102B0704770B586B04FF00000FF
:10049C0000F0BCFD4FF0000601964FF001048DF802
:1004AC0008408DF809404FF46023039304968DF8AF
:1004BC0014404FF41055C4F20105284601A900F070
:1004CC00EFFA2846214600F0BDFB28464FF0030109
:1004DC002246334600F07EFB06B070BD10B500F02E
:1004EC0003FD4FF4803000F021FD00F049FE01289F
:1004FC003ED14FF0100000F0C7FB4FF0000000F0B1
:10050C00B5FB4FF0000000F05DFD4FF0000000F077
:10051C0071FD4FF0000000F061FD4FF0000000F0A5
:10052C0075FD4FF480304FF4402100F025FD4FF065
:10053C00010000F02DFD4FF03904204600F006FEBE
:10054C000028FAD04FF0020000F028FD00F032FD38
:10055C000828FBD144F614204FF0010100F0D2FD25
:10056C004FF00300C2F200004FF0010100F0DCFD7F
:10057C0010BD00BF70B582B04FF40064C4F201042A
:10058C0020464FF006014FF0010200F0FDFB4FF04A
:10059C000603ADF804304FF010068DF807604FF0ED
:1005AC0003058DF80650204601A900F07BFB4FF0A7
:1005BC00F803ADF804304FF000038DF807308DF8D8
:1005CC000650204601A900F06DFB4FF40073ADF806
:1005DC0004308DF806504FF018038DF80730204684
:1005EC0001A900F05FFB4FF48063ADF804304FF0CD
:1005FC0004038DF8073020460DEB030100F052FB8D
:10060C004FF44473ADF804308DF807608DF8065044
:10061C004FF48050C4F2010001A900F043FB02B07A
:10062C0070BD00BF30B583B04FF000604FF00001DB
:10063C0000F04EFC4FF019038DF804304FF000041D
:10064C008DF805408DF806404FF001058DF80750E8
:10065C0001A800F0E7FB4FF01C038DF804308DF877
:10066C0005408DF806408DF8075001A800F0DAFB24
:10067C004FF01D038DF804308DF805408DF80640C1
:10068C008DF8075001A800F0CDFB4FF025038DF835
:10069C0004308DF805508DF806408DF8075001A8F0
:1006AC0000F0C0FB03B030BD10B584B04FF00003B8
:1006BC001A46ADF80A30ADF80430ADF806304FF0FC
:1006CC006303ADF808308DF80C204FF43054C4F2AD
:1006DC000104204601A900F06FFD20464FF00101F6
:1006EC0000F0AEFD20464FF001010A4600F09CFDE3
:1006FC0004B010BD00B585B04FF00003ADF80A3062
:10070C00ADF8043040F20002C2F200029288ADF85B
:10071C000820ADF806308DF80C304FF0804001A960
:10072C0000F04AFD4FF080404FF0010100F088FDD1
:10073C004FF080404FF001010A4600F075FD05B006
:10074C0000BD00BF10B54FF40060C4F201004FF0C3
:10075C0006014FF0010200F017FB4FF43053C4F2C6
:10076C0001034FF6FE721A8240F20003C2F200033C
:10077C005B781BB340F23A74C2F2000421884FF448
:10078C000060C4F2010089B200F004FB23889BB224
:10079C00022B03D14FF00402228010BD40F23A73B9
:1007AC00C2F200034FF002021A8040F20003C2F2C0
:1007BC0000035A7802F1FF325A7010BD4FF43050DA
:1007CC00C4F201004FF0000100F01EFD4FF4105078
:1007DC00C4F201004FF0010100F0F0F9FFF78AFFBD
:1007EC004FF080404FF0010100F00EFD10BD00BF36
:1007FC0010B584B04FF000031A46ADF80A30ADF8CE
:10080C000430ADF806304FF06303ADF808308DF8C6
:10081C000C204FF48064C4F20004204601A900F0BF
:10082C00CBFC20464FF0010100F00AFD20464FF0B2
:10083C0001010A4600F0F8FC04B010BD10B584B0FC
:10084C0000904FF00003ADF80430ADF80630ADF871
:10085C000830ADF80C304FF00C03ADF80A304FF403
:10086C006054C4F201042046694600F0EFFC2046B7
:10087C0040F225514FF0010200F052FD20464FF09E
:10088C00010100F03DFD04B010BD00BF2DE9F041A9
:10089C00FFF724FEFFF7C6FEFFF76CFEFFF704FF21
:1008AC00FFF7A6FFFFF7F0FD4FF4E843C4F2000397
:1008BC004FF0010119604FF40060C4F2010000F028
:1008CC0053FA38B140F20003C2F200034FF00102B8
:1008DC0083F811274FF49650FFF7B0FF41F2D8443C
:1008EC00C0F600042046FFF74DFD04F11C00FFF795
:1008FC0049FD04F13800FFF745FD04F15400FFF702
:10090C0041FD40F20003C2F2000393F8113763B1CA
:10091C0041F2D844C0F6000404F17000FFF732FD38
:10092C0004F18C00FFF72EFD0BE041F2D844C0F629
:10093C00000404F1A800FFF725FD04F1C400FFF743
:10094C0021FD5648FFF71EFD40F20005C2F20005DE
:10095C0040F23878C2F2000805F5027404F107047D
:10096C0042F23C46C4F201062B78012B40F08D80FC
:10097C004FF002032B7098F8003073B14FF4805095
:10098C00C4F201004FF480714FF0000200F0FCF94A
:10099C004FF0000388F800300DE04FF48050C4F2A3
:1009AC0001004FF480714FF0010200F0EDF94FF0AF
:1009BC00010388F800304FF00500FFF7C3FB2881D6
:1009CC004FF00600FFF7BEFB68814FF00700FFF702
:1009DC00B9FBA881FFF718FC05F110034FF00002DA
:1009EC0003F8012FA342FBD1EB782B744FF00101DC
:1009FC00E980AB784FF43050C4F2010083854FF49A
:100A0C008062C4F2000293854FF0000383849384C8
:100A1C00038640F23A73C2F200034FF002021A80CE
:100A2C0000F0F2FB95F81137B3B14FF48060C4F2CB
:100A3C0000004FF0010100F0E7FB0DE033684FEAD6
:100A4C001313DAB2E98889B26918097C91423FBF65
:100A5C00EA8892B2AA1813742B78002BEED14FF0BF
:100A6C0000074FF080431F804FF48063C4F20003F3
:100A7C001F804FF41050C4F20100394600F09EF86C
:100A8C004FF4E843C4F200039F604FF0000340F2C0
:100A9C00E93203F101039342FBD165E7B815000875
:100AAC0010B4436823F4702323F480730A6813434F
:100ABC000A7943EA0223436084688A68CB681A4344
:100ACC004FF2FD73CFF6F17304EA030342EA03031A
:100ADC004A7943EA42038360C26A22F470020B7CB7
:100AEC0003F1FF33DBB242EA0353C36210BC70471D
:100AFC0021B1836843F4A00383607047836823F4B7
:100B0C00A0038360704700BF70B4092910D9C66870
:100B1C0001EB4104A4F11E044FF0070505FA04F59E
:100B2C0026EA050503FA04F445EA0403C3600DE064
:100B3C00066901EB41044FF0070505FA04F526EAB6
:100B4C00050503FA04F445EA04030361062A10D8E8
:100B5C00446B02F1FF3202EB82024FF01F0303FAE7
:100B6C0002F324EA030301FA02F143EA01024263AD
:100B7C0022E00C2A10D8046B02EB8202A2F12302B1
:100B8C004FF01F0303FA02F324EA030301FA02F104
:100B9C0043EA010202630FE0C46A02EB8202A2F193
:100BAC0041024FF01F0303FA02F324EA030301FA94
:100BBC0002F143EA0102C26270BC704721B1436882
:100BCC0043F4806343607047436823F4806343605D
:100BDC00704700BF70B4092910D9C66801EB4104F5
:100BEC00A4F11E044FF0070505FA04F526EA0505E5
:100BFC0003FA04F445EA0403C3600DE0066901EB53
:100C0C0041044FF0070505FA04F526EA050503FA39
:100C1C0004F445EA04030361836BC3F30154121B10
:100C2C0002F10202D2B202EB82024FF01F0404FA6C
:100C3C0002F423EA040301FA02F10B43836370BC50
:100C4C00704700BF836B23F4401301F1FF3143EA7B
:100C5C0001538363704700BF036819420CBF002027
:100C6C00012070476FEA0101016070474FF4005397
:100C7C00C4F202031A6802F038021A601A6840EAD9
:100C8C0002021A60704700BF4FF40053C4F2020313
:100C9C001A6822F010021A601A6840EA02021A60FE
:100CAC00704700BF2DE9F003CB7803F00F0513F06C
:100CBC00100F1CBF8B781D430B7833B3D0F800C0DA
:100CCC004FF000034FF001064FF00F0806FA03F245
:100CDC000C8802EA0404944211D14FEA830708FA03
:100CEC0007F92CEA090C05FA07F74CEA070CCF7840
:100CFC00282F08BF446102D0482F08BF026103F1BE
:100D0C000103082BE2D1C0F800C00B88FF2B28D9B7
:100D1C00D0F804C04FF000034FF001064FF00F085D
:100D2C0003F1080206FA02F20C8802EA0404944267
:100D3C0011D14FEA830708FA07F92CEA090C05FAD6
:100D4C0007F74CEA070CCF78282F08BF4461CC7802
:100D5C00482C08BF026103F10103082BE0D1C0F855
:100D6C0004C0BDE8F0037047836819420CBF002033
:100D7C0001207047C36819420CBF00200120704746
:100D8C0001617047416170470AB10161704741616F
:100D9C00704700BFC1607047704700BF704700BF0D
:100DAC00704700BF704700BF704700BF704700BF5F
:100DBC00704700BF704700BF704700BF704700BF4F
:100DCC00704700BF704700BF704700BF704700BF3F
:100DDC00704700BF704700BF704700BF704700BF2F
:100DEC00704700BF704700BF704700BF704700BF1F
:100DFC00704700BF704700BF704700BF704700BF0F
:100E0C00704700BF704700BF704700BF704700BFFE
:100E1C00704700BF704700BF704700BF704700BFEE
:100E2C00704700BF70B4C378002B3ED04FF46D43B5
:100E3C00CEF20003DB686FEA0303C3F30223C3F1B2
:100E4C000402457805FA02F24FF00F0525FA03F576
:100E5C0081780D4015434FEA0515027802F0030422
:100E6C004FEAC40405FA04F54FEA92024FF46143C9
:100E7C00CEF2000302F1C00253F822604FF0FF01E2
:100E8C0001FA04F126EA010405EA0101214343F8C1
:100E9C00221002784FEA521102F01F024FF00100AB
:100EAC0000FA02F243F8212010E003784FEA5312C3
:100EBC0003F01F034FF0010101FA03F14FF46143FA
:100ECC00CEF2000302F1200243F8221070BC7047EE
:100EDC0021F0604121F07F0101434FF46D43CEF2CC
:100EEC0000039960704700BF4FF48053C4F20203B3
:100EFC001A6842F001021A6059684FF00002CFF6EE
:100F0C00FF0201EA02025A601A6822F0847222F48B
:100F1C0080321A601A6822F480221A605A6822F40D
:100F2C00FE025A604FF000029A6070474FF48053F3
:100F3C00C4F202031A6822F480321A601A6822F48E
:100F4C0080221A60B0F5803F03D0B0F5802F11D10C
:100F5C0008E04FF48053C4F202031A6842F4803262
:100F6C001A6070474FF48053C4F202031A6842F4BB
:100F7C00A0221A60704700BF4FF48053C4F20203E2
:100F8C005A6822F47C1240EA02020A435A60704703
:100F9C004FF06003C4F24223186070474FF4805343
:100FAC00C4F202035A6822F0030240EA02025A60B9
:100FBC00704700BF4FF48053C4F20203586800F02E
:100FCC000C0070474FF48053C4F202035A6822F0AD
:100FDC00F00240EA02025A60704700BF4FF480539F
:100FEC00C4F202035A6822F4E06240EA02025A6038
:100FFC00704700BF4FF48053C4F202035A6822F4C6
:10100C00605242EAC0025A60704700BF4FF48053EE
:10101C00C4F202035A6822F4404240EA02025A60C7
:10102C00704700BF10B44FF48053C4F202035B68E6
:10103C0003F00C03042B02BF4FF49053C0F27A035D
:10104C00036036D0082B06D073BB4FF49053C0F21C
:10105C007A0303602DE04FF48053C4F202035A6804
:10106C00C2F3834202F102025B6813F4803F07D1A2
:10107C004FF41063C0F23D0303FB02F2026018E070
:10108C004FF48053C4F202035B6813F4003F19BFA2
:10109C004FF41063C0F23D034FF49053C0F27A0347
:1010AC0003FB02F2026004E04FF49053C0F27A03A7
:1010BC0003604FF48052C4F20202516841F2D453DF
:1010CC00C0F60003C1F30311595C046824FA01F162
:1010DC0041605468C4F302241C5D21FA04F484605A
:1010EC005468C4F3C2241C5D21FA04F1C160526837
:1010FC00C2F381329B181B7CB1FBF3F1016110BC74
:10110C00704700BF39B14FF48053C4F202039A699F
:10111C001043986170474FF48053C4F202039A69EC
:10112C0022EA00009861704739B14FF48053C4F241
:10113C000203DA691043D86170474FF48053C4F24C
:10114C000203DA6922EA0000D86170474FEA5013B3
:10115C00012B05D14FF48053C4F202031B6807E046
:10116C00022B4FF48053C4F202030CBF1B6A5B6A60
:10117C0000F01F0023FA00F000F00100704700BFE0
:10118C0010B582B04FF0000301934FF031042046AC
:10119C00FFF7DCFF019B03F10103019318B9019BDD
:1011AC00B3F5A06FF3D14FF03100FFF7CFFF00384C
:1011BC0018BF012002B010BD038803F08F03038019
:1011CC0003889BB2CA8813434A8813439BB203809B
:1011DC008B8883850B8803854FF0010383824FF442
:1011EC003053C4F201034FF45052C4F20102904246
:1011FC0014BF00220122984214BF134642F001038F
:10120C000BB10B7A0386704729B103889BB243F06C
:10121C00010303807047038823F001034FEA8353D3
:10122C004FEA93530380704722B183899BB21943D1
:10123C008181704783899BB223EA010181817047C8
:10124C006FEA010189B20182704700BF30B587B0E7
:10125C0004460D46038A23F440534FEA03434FEAF6
:10126C001343CA8813430382838923F4B05323F0B6
:10127C000C034FEA03434FEA13430989AA8841EA56
:10128C00020269890A4392B242EA03038381838A88
:10129C0023F440734FEA03434FEA1343AA891343E1
:1012AC00838201A8FFF7BEFE4FF46053C4F2010322
:1012BC009C420CBF0499039901EB810101EB810164
:1012CC002B684FEA8303B1FBF3F148F21F53C5F2CD
:1012DC00EB13A3FB01024FEA52124FF0640002FB26
:1012EC0010114FEA011101F13201A3FB0103C3F309
:1012FC00431343EA021292B2228107B030BD00BF01
:10130C0029B183899BB243F400538381704783894D
:10131C0023F400534FEA03434FEA1343838170478E
:10132C0010B4C1F3421301F01F014FF0010404FA91
:10133C0001F1A34208BF0C3003D0022B0CBF1030BC
:10134C00143022B1036843EA0101016003E0036831
:10135C0023EA0101016010BC704700BF43F60C0387
:10136C00C4F201031A88F0B412F4005212D00A2805
:10137C0051D043F60002C4F20102B2F800C01CF0D6
:10138C00800FFAD043F6040380B2C4F20103188034
:10139C00F0BC704741F21804C4F20204266840F60F
:1013AC00040146F0040727602568C4F2010145F0EA
:1013BC0001062660276843F6100647F48045256031
:1013CC000F6843F6140527F0F0040C600F6843F621
:1013DC00080447F0B0070F600F684FF00C0C27F4AF
:1013EC0070670F600F68C4F2010647F480670F60E6
:1013FC00C4F2010540F24131C4F201043280A3F879
:10140C0000C02A8021801A880A281FFA82FC4CF41A
:10141C0000511980ADD143F60C03C4F201031A88B4
:10142C0012F400520FD043F60002C4F201021388EA
:10143C0013F0800FFBD043F60401C4F201014FF00E
:10144C000D020A8095E741F21804C4F202042668E2
:10145C0040F6040146F0040727602568C4F2010138
:10146C0045F001062660276843F6100647F48045D0
:10147C0025600F6843F6140527F0F0040C600F6824
:10148C0043F6080447F0B0070F600F6840F2413C88
:10149C0027F470670F600F68C4F2010647F4806789
:1014AC000F60C4F201054FF00C01C4F2010432804C
:1014BC0019802A80A4F800C01A8891B241F4005C0B
:1014CC00A3F800C0AFE700BF101C70472450535264
:1014DC00463130302C312C343830302C382C312CE7
:1014EC00302A30450D0A0000245053524631303317
:1014FC002C30302C30302C30302C30312A32340D12
:10150C000A00000024505352463130332C30312C19
:10151C0030302C30302C30312A32350D0A0000009E
:10152C0024505352463130332C30322C30302C3046
:10153C00302C30312A32360D0A0000002450535220
:10154C00463130332C30332C30302C30352C30307D
:10155C002A32330D0A0000002450535246313033E6
:10156C002C30342C30302C30302C30312A32300DA1
:10157C000A00000024505352463130332C30332CA7
:10158C0030302C30302C30312A32370D0A0000002C
:10159C0024505352463130332C30342C30302C30D4
:1015AC00312C30302A32300D0A00000024505352B6
:1015BC00463130332C30352C30302C30302C30310F
:1015CC002A32310D0A000000000000000102030461
:0C15DC00010203040607080902040608C7
:040000050800010CE2
:00000001FF
