:020000040800F2
:1000000000200020E5010008370200083702000840
:10001000370200083702000837020008000000001D
:10002000000000000000000000000000370200088F
:1000300037020008000000003702000837020008FD
:100040008107000885070008890700088D07000858
:100050009107000895070008990700089D07000808
:10006000A1070008A5070008A9070008AD070008B8
:10007000B1070008B5070008B9070008BD07000868
:10008000C1070008C5070008C907000837020008B3
:10009000370200083702000837020008CD070008C1
:1000A000D1070008D5070008D9070008DD070008B8
:1000B00039020008BD020008F5020008E107000847
:1000C000E5070008E9070008ED070008F107000848
:1000D000F5070008F9070008FD07000801080008F7
:1000E00005080008090800080D08000811080008A4
:1000F00015080008190800081D0800082108000854
:1001000025080008290800082D0800083108000803
:1001100035080008390800083D08000841080008B3
:1001200045080008490800084D0800085108000863
:1001300000000000000000000000000000000000BF
:1001400000000000000000000000000000000000AF
:10015000000000000000000000000000000000009F
:10016000000000000000000000000000000000008F
:10017000000000000000000000000000000000007F
:10018000000000000000000000000000000000006F
:10019000000000000000000000000000000000005F
:1001A000000000000000000000000000000000004F
:1001B000000000000000000000000000000000003F
:1001C000000000000000000000000000000000002F
:1001D000000000000000000000000000000000001F
:0401E0005FF8E0F1F3
:1001E40000F026F80C4880F30888002103E00B4B4C
:1001F4005B58435004310A480A4B42189A42F6D3DA
:10020400094A02E0002342F8043B084B9A42F9D31E
:1002140000F0ECF970470000002000200C0D0008ED
:10022400000000200008002000080020BC17002067
:100234007047FEE74FF080410982088041F2B873AD
:10024400C2F200031B88186841F2B073C2F20003C3
:100254001B88196840F20003C2F20003194440F6F7
:100264000002C1F200024FF00007C35D11F8333001
:100274004FEA43032CBF146154614FEA43032CBF7C
:10028400146154614FEA43032CBF146154614FEA73
:1002940043032CBF146154614FEA43032CBF146120
:1002A40054614FEA43032CBF1461546107F1010701
:1002B400502F18BFD9E7704708B54FF0000040F23F
:1002C4000041C4F2000108824FF40063C4F2000349
:1002D4004FF000029A844FF001021A804FF400603C
:1002E400C4F201004FF0020100F046FA08BD00BF5D
:1002F40010B54FF0000040F60001C4F2000108827E
:10030400088041F2B273C2F200031B889BB2B3F5BA
:10031400977F56D84FF40060C4F201004FF00201F9
:1003240000F028FA41F2B273C2F200031B889BB2B8
:10033400092B65D941F2B273C2F200031B889BB248
:10034400B3F5827F5CD24FF080434FF00000988475
:100354004FF001021A8041F2B272C2F20002118817
:1003640089B24CF6CD43CCF6CC43A3FB01414FEA12
:10037400D10101F1FF3101EB81014FEA011080B29B
:1003840041F2B871C2F200010880108880B2A3FB68
:1003940000434FEAD30041F2B073C2F20003188065
:1003A400098889B201EB81014FEA410189B21980C0
:1003B400128892B21988A2F10A02521A92B21A80D1
:1003C4001EE041F2B273C2F200031B889BB2B3F584
:1003D4009C7F15D14FF40060C4F201004FF002017C
:1003E40000F0C8F941F2B273C2F200034FF0FF30DB
:1003F400188041F2B873C2F200034FF000021A8071
:1004040041F2B273C2F200031A8802F1010292B2FD
:100414001A8010BD10B500F07DFA4FF4803000F062
:100424009BFA00F053FB40F60003C2F2000318707D
:10043400012830D14FF0100000F02CF94FF00000EB
:1004440000F01AF94FF0000000F0D2FA4FF000006B
:1004540000F0E6FA4FF0000000F0D6FA4FF000008A
:1004640000F0EAFA4FF480304FF4A01100F09AFA49
:100474004FF0010000F0A2FA4FF03904204600F0DA
:100484000BFB0028FAD04FF0020000F09DFA00F0B8
:10049400A7FA0828FBD14FF01C004FF0010100F02F
:1004A400D7FA4FF006004FF0010100F0E3FA10BD57
:1004B40070B582B04FF0FF03ADF804304FF0100573
:1004C4008DF807504FF003068DF806604FF4006472
:1004D400C4F20104204601A900F0EAF84FF4407385
:1004E400ADF804308DF807508DF806604FF4805055
:1004F400C4F2010001A900F0DBF820464FF001012D
:1005040000F03AF920464FF0020100F033F902B04E
:1005140070BD00BFF8B54FF000604FF0000100F06F
:10052400EDF941F2B474C2F200044FF01C072770D5
:100534004FF000056570A5704FF00106E670204687
:1005440000F086F927706570A570E670204600F00B
:100554007FF94FF01D0323706570A570E670204687
:1005640000F076F94FF01E0323706570A570E670F5
:10057400204600F06DF9F8BD08B540F60401C2F25A
:1005840000014FF05C038B804FF000030B80CB80A5
:100594004B804FF0804000F0B5FA08BD08B540F636
:1005A4000401C2F200014FF460638B804FF000033A
:1005B4000B80CB804B804FF48060C4F2000000F0CD
:1005C400A1FA08BD08B540F60401C2F2000140F2E8
:1005D40007138B804FF000030B80CB804B804FF4CC
:1005E4000060C4F2000000F08DFA08BD08B5FFF702
:1005F40011FFFFF78FFFFFF75BFFFFF7BDFFFFF76B
:10060400CDFFFFF7DFFF4FF48060C4F200004FF02E
:10061400010100F09FFA4FF080404FF0010100F01B
:10062400B5FA4FF080404FF001010A4600F0A2FAFB
:100634004FF48060C4F200004FF0010100F0A6FA0C
:100644004FF48060C4F200004FF001010A4600F04C
:1006540091FA4FF40060C4F200004FF0010100F081
:1006640095FA4FF40060C4F200004FF001010A460D
:1006740000F080FAFEE700BF4FF40053C4F2020317
:100684001A6802F038021A601A6840EA02021A6014
:10069400704700BF4FF40053C4F202031A6822F0FB
:1006A40010021A601A6840EA02021A60704700BF1A
:1006B4002DE9F003CB7803F00F0513F0100F1CBFE6
:1006C4008B781D430B7833B3D0F800C04FF0000390
:1006D4004FF001064FF00F0806FA03F20C8802EA05
:1006E4000404944211D14FEA830708FA07F92CEA6B
:1006F400090C05FA07F74CEA070CCF78282F08BF36
:10070400446102D0482F08BF026103F10103082BA2
:10071400E2D1C0F800C00B88FF2B28D9D0F804C060
:100724004FF000034FF001064FF00F0803F10802E9
:1007340006FA02F20C8802EA0404944211D14FEA48
:10074400830708FA07F92CEA090C05FA07F74CEABB
:10075400070CCF78282F08BF4461CC78482C08BFF9
:10076400026103F10103082BE0D1C0F804C0BDE825
:10077400F00370470161704741617047704700BFE3
:10078400704700BF704700BF704700BF704700BF8D
:10079400704700BF704700BF704700BF704700BF7D
:1007A400704700BF704700BF704700BF704700BF6D
:1007B400704700BF704700BF704700BF704700BF5D
:1007C400704700BF704700BF704700BF704700BF4D
:1007D400704700BF704700BF704700BF704700BF3D
:1007E400704700BF704700BF704700BF704700BF2D
:1007F400704700BF704700BF704700BF704700BF1D
:10080400704700BF704700BF704700BF704700BF0C
:10081400704700BF704700BF704700BF704700BFFC
:10082400704700BF704700BF704700BF704700BFEC
:10083400704700BF704700BF704700BF704700BFDC
:10084400704700BF704700BF704700BF704700BFCC
:1008540070B4C378002B3ED04FF46D43CEF2000346
:10086400DB686FEA0303C3F30223C3F10402457890
:1008740005FA02F24FF00F0525FA03F581780D40D1
:1008840015434FEA0515027802F003044FEAC40445
:1008940005FA04F54FEA92024FF46143CEF20003E5
:1008A40002F1C00253F822604FF0FF0101FA04F193
:1008B40026EA010405EA0101214343F822100278E3
:1008C4004FEA521102F01F024FF0010000FA02F247
:1008D40043F8212010E003784FEA531203F01F037A
:1008E4004FF0010101FA03F14FF46143CEF200032A
:1008F40002F1200243F8221070BC704721F06041DD
:1009040021F07F0101434FF46D43CEF2000399605F
:10091400704700BF4FF48053C4F202031A6842F0D8
:1009240001021A6059684FF00002CFF6FF0201EA93
:1009340002025A601A6822F0847222F480321A6029
:100944001A6822F480221A605A6822F4FE025A605D
:100954004FF000029A6070474FF48053C4F20203D0
:100964001A6822F480321A601A6822F480221A600B
:10097400B0F5803F03D0B0F5802F11D108E04FF4DB
:100984008053C4F202031A6842F480321A6070473A
:100994004FF48053C4F202031A6842F4A0221A608E
:1009A400704700BF4FF48053C4F202035A6822F424
:1009B4007C1240EA02020A435A6070474FF0600317
:1009C400C4F24223186070474FF48053C4F2020308
:1009D4005A6822F0030240EA02025A60704700BFDC
:1009E4004FF48053C4F20203586800F00C007047BF
:1009F4004FF48053C4F202035A6822F0F00240EA32
:100A040002025A60704700BF4FF48053C4F20203DD
:100A14005A6822F4E06240EA02025A60704700BF5A
:100A24004FF48053C4F202035A6822F4605242EA3B
:100A3400C0025A60704700BF4FF48053C4F20203EF
:100A44005A6822F4404240EA02025A60704700BFEA
:100A540039B14FF48053C4F202039A691043986188
:100A640070474FF48053C4F202039A6922EA0000EB
:100A74009861704739B14FF48053C4F20203DA69C4
:100A84001043D86170474FF48053C4F20203DA690B
:100A940022EA0000D86170474FEA5013012B05D1B8
:100AA4004FF48053C4F202031B6807E0022B4FF497
:100AB4008053C4F202030CBF1B6A5B6A00F01F0080
:100AC40023FA00F000F00100704700BF10B582B0B7
:100AD4004FF0000301934FF031042046FFF7DCFF91
:100AE400019B03F10103019318B9019BB3F5A06FB6
:100AF400F3D14FF03100FFF7CFFF003818BF0120CA
:100B040002B010BD038803F08F03038003889BB2F7
:100B1400CA8813434A8813439BB203808B88838516
:100B24000B8803854FF0010383824FF43053C4F2E2
:100B340001034FF45052C4F20102904214BF002248
:100B44000122984214BF134642F001030BB10B7A01
:100B54000386704729B103889BB243F001030380E5
:100B64007047038823F001034FEA83534FEA9353FA
:100B74000380704722B183899BB2194381817047F6
:100B840083899BB223EA0101818170476FEA0101E5
:100B940089B20182704700BF43F60C03C4F201031B
:100BA4001A88F0B412F4005212D00A2851D043F635
:100BB4000002C4F20102B2F800C01CF0800FFAD0A7
:100BC40043F6040380B2C4F201031880F0BC7047FA
:100BD40041F21804C4F20204266840F6040146F007
:100BE400040727602568C4F2010145F00106266068
:100BF400276843F6100647F4804525600F6843F6DE
:100C0400140527F0F0040C600F6843F6080447F05D
:100C1400B0070F600F684FF00C0C27F470670F607B
:100C24000F68C4F2010647F480670F60C4F201053F
:100C340040F24131C4F201043280A3F800C02A809A
:100C440021801A880A281FFA82FC4CF4005119806A
:100C5400ADD143F60C03C4F201031A8812F4005216
:100C64000FD043F60002C4F20102138813F0800F80
:100C7400FBD043F60401C4F201014FF00D020A80D7
:100C840095E741F21804C4F20204266840F6040110
:100C940046F0040727602568C4F2010145F0010607
:100CA4002660276843F6100647F4804525600F68E0
:100CB40043F6140527F0F0040C600F6843F60804AB
:100CC40047F0B0070F600F6840F2413C27F47067AB
:100CD4000F600F68C4F2010647F480670F60C4F226
:100CE40001054FF00C01C4F20104328019802A80FE
:100CF400A4F800C01A8891B241F4005CA3F800C0C3
:080D0400AFE700BF101C7047AF
:100D0C000000000000000000002070F870200000BF
:100D1C00A854A854A854A8542070A820202020001F
:100D2C0020202020A8702000002040F84020000047
:100D3C00002010F81020000060909060000000006F
:100D4C002020F8202000F800000000000000A8007F
:100D5C0000000810A0400000303030F0F00000001F
:100D6C00000000F0F03030300000003C3C303030FF
:100D7C003030303C3C000000303030FCFC30303047
:100D8C00FCFC0000000000000000FCFC0000000067
:100D9C00000000FCFC00000000000000FCFC000057
:100DAC00000000000000FCFC3030303C3C303030A7
:100DBC00303030F0F0303030303030FCFC0000009F
:100DCC00000000FCFC30303030303030303030300F
:100DDC000830C0300800F800806018608000F8000F
:100DEC000000F850505098001010F820F8404000C7
:100DFC00304840E04048B0000000002000000000F7
:100E0C000000000000000000202020202000200016
:100E1C0050505000000000005050F850F850500056
:100E2C002078A07028F02000C0C81020409818002E
:100E3C0040A0A040A89068002020200000000000E6
:100E4C001020404040201000402010101020400086
:100E5C0020A8702070A82000002020F8202000007E
:100E6C000000000020204000000000F800000000FE
:100E7C00000000000000200000081020408000004E
:100E8C00708898A8C88870002060202020207000EE
:100E9C00708808304080F800F8081030088870001E
:100EAC0010305090F8101000F880F008088870008E
:100EBC00384080F088887000F808102040404000CE
:100ECC007088887088887000708888780810E000B6
:100EDC000000200020000000000020002020400026
:100EEC0008102040201008000000F800F800000056
:100EFC0080402010204080007088081020002000C6
:100F0C007088A8B8B0807800708888F888888800C5
:100F1C00F08888F08888F000708880808088700065
:100F2C00E09088888890E000F88080E08080F8006D
:100F3C00F88080E080808000708880B88888780095
:100F4C00888888F8888888007020202020207000ED
:100F5C0008080808088870008890A0C0A090880035
:100F6C00808080808080F80088D8A8A88888880035
:100F7C008888C8A8988888007088888888887000B5
:100F8C00F08888F08080800070888888A89068003D
:100F9C00F08888F0A0908800788080700808F000B5
:100FAC00F8202020202020008888888888887000DD
:100FBC008888888888502000888888A8A8D88800C5
:100FCC0088885020508888008888885020202000ED
:100FDC00F80810204080F8007040404040407000FD
:100FEC0000804020100800007010101010107000CD
:100FFC002050880000000000000000000000F800F5
:10100C004020100000000000000070087888780074
:10101C008080F0888888F0000000788080807800DC
:10102C00080878888888780000007088F880780034
:10103C00304840F04040400000007888887808F044
:10104C008080F08888888800002000602020700054
:10105C000010003010109060808090A0C0A0900014
:10106C0060202020202070000000D0A8A8A8A80094
:10107C000000F088888888000000708888887000DC
:10108C000000F08888F08080000078888878080854
:10109C000000B8C080808000000078807008F000EC
:1010AC004040F04040483000000088888898680034
:1010BC00000088888850200000008888A8A850006C
:1010CC00000088502050880000008888887808F03C
:1010DC000000F8102040F8001820204020201800B4
:1010EC002020202020202000C02020102020C00004
:1010FC00000040A810000000F8F8F8F8F8F8F80024
:10110C00FCFCFCFCFCFCFCFCFCDC8C048CDCFCFC2B
:10111C0054A854A854A854A8DC8C54DCDCDCDCFCAB
:10112C00DCDCDCDC548CDCFCFCDCBC04BCDCFCFC63
:10113C00FCDCEC04ECDCFCFC9C6C6C9CFCFCFCFC1B
:10114C00DCDC04DCDCFC04FCFCFCFCFCFCFC54FCEB
:10115C00FCFCF4EC5CBCFCFCCCCCCC0C0CFCFCFC2B
:10116C00FCFCFC0C0CCCCCCCFCFCFCC0C0CCCCCC2B
:10117C00CCCCCCC0C0FCFCFCCCCCCC0000CCCCCCC3
:10118C000000FCFCFCFCFCFCFCFC0000FCFCFCFC83
:10119C00FCFCFC0000FCFCFCFCFCFCFC0000FCFC73
:1011AC00FCFCFCFCFCFC0000CCCCCCC0C0CCCCCC03
:1011BC00CCCCCC0C0CCCCCCCCCCCCC0000FCFCFCEB
:1011CC00FCFCFC0000CCCCCCCCCCCCCCCCCCCCCC5B
:1011DC00F4CC3CCCF4FC04FC7C9CE49C7CFC04FC3B
:1011EC00FCFC04ACACAC64FCECEC04DC04BCBCFC63
:1011FC00CCB4BC1CBCB44CFCFCFCFCDCFCFCFCFC13
:10120C00FCFCFCFCFCFCFCFCDCDCDCDCDCFCDCFCD2
:10121C00ACACACFCFCFCFCFCACAC04AC04ACACFC72
:10122C00DC845C8CD40CDCFC3C34ECDCBC64E4FC7A
:10123C00BC5C5CBC546C94FCDCDCDCFCFCFCFCFCA2
:10124C00ECDCBCBCBCDCECFCBCDCECECECDCBCFCE2
:10125C00DC548CDC8C54DCFCFCDCDC04DCDCFCFCCA
:10126C00FCFCFCFCDCDCBCFCFCFCFC04FCFCFCFC2A
:10127C00FCFCFCFCFCFCDCFCFCF4ECDCBC7CFCFCBA
:10128C008C74645434748CFCDC9CDCDCDCDC8CFCFA
:10129C008C74F4CCBC7C04FC04F4ECCCF4748CFCAA
:1012AC00ECCCAC6C04ECECFC047C0CF4F4748CFC1A
:1012BC00C4BC7C0C74748CFC04F4ECDCBCBCBCFCBA
:1012CC008C74748C74748CFC8C747484F4EC1CFCB2
:1012DC00FCFCDCFCDCFCFCFCFCFCDCFCDCDCBCFC22
:1012EC00F4ECDCBCDCECF4FCFCFC04FC04FCFCFCD2
:1012FC007CBCDCECDCBC7CFC8C74F4ECDCFCDCFC42
:10130C008C7454444C7C84FC8C747404747474FC21
:10131C000C74740C74740CFC8C747C7C7C748CFC61
:10132C001C6C7474746C1CFC047C7C1C7C7C04FC39
:10133C00047C7C1C7C7C7CFC8C747C44747484FCF1
:10134C0074747404747474FC8CDCDCDCDCDC8CFC79
:10135C00F4F4F4F4F4748CFC746C5C3C5C6C74FC11
:10136C007C7C7C7C7C7C04FC74245454747474FCF1
:10137C0074743454647474FC8C74747474748CFC51
:10138C000C74740C7C7C7CFC8C747474546C94FCA9
:10139C000C74740C5C6C74FC847C7C8CF4F40CFC11
:1013AC0004DCDCDCDCDCDCFC7474747474748CFCC9
:1013BC007474747474ACDCFC74747454542474FCC1
:1013CC007474ACDCAC7474FC747474ACDCDCDCFC79
:1013DC0004F4ECDCBC7C04FC8CBCBCBCBCBC8CFC49
:1013EC00FC7CBCDCECF4FCFC8CECECECECEC8CFC59
:1013FC00DCAC74FCFCFCFCFCFCFCFCFCFCFC04FC11
:10140C00BCDCECFCFCFCFCFCFCFC8CF4847484FC70
:10141C007C7C0C7474740CFCFCFC847C7C7C84FCE8
:10142C00F4F48474747484FCFCFC8C74047C84FC70
:10143C00CCB4BC0CBCBCBCFCFCFC84747484F40C40
:10144C007C7C0C74747474FCFCDCFC9CDCDC8CFC10
:10145C00FCECFCCCECEC6C9C7C7C6C5C3C5C6CFC30
:10146C009CDCDCDCDCDC8CFCFCFC2C54545454FC90
:10147C00FCFC0C74747474FCFCFC8C7474748CFC28
:10148C00FCFC0C74740C7C7CFCFC84747484F4F490
:10149C00FCFC443C7C7C7CFCFCFC847C8CF40CFCD8
:1014AC00BCBC0CBCBCB4CCFCFCFC7474746494FC70
:1014BC00FCFC747474ACDCFCFCFC74745454ACFC18
:1014CC00FCFC74ACDCAC74FCFCFC74747484F40C28
:1014DC00FCFC04ECDCBC04FCE4DCDCBCDCDCE4FC90
:1014EC00DCDCDCDCDCDCDCFC3CDCDCECDCDC3CFC20
:1014FC00FCFCBC54ECFCFCFC04040404040404FCE0
:04000005080001E40A
:00000001FF
