:020000002100DD
:10010000C29300000000D2939003D751E451F971DB
:100110000E7E007F0090044B717F90045D31B831FA
:10012000C4319D60FCB40117E54160F551A915414A
:10013000E541B5420050061542512D516151BCB404
:10014000021EE54104C3954860D751A90541E54128
:10015000C39542B5460040060542512D516151BC40
:10016000B40324E5407034C042900492E54160033A
:100170009004D4C0E024019542C0E051D031B8D001
:10018000E0F54431CD31C4B40411E540600D31CD0A
:1001900090045D31B8D041D04231C480847F00E505
:1001A0009054F064F060087F043340031F80FAEF3E
:1001B000B54B02E422F54B227F0B7840E493F6A383
:1001C00008DFF92231EE512D516151BC2251A9AC09
:1001D000450C0CAD460D0DAE43AF44C004C00674D3
:1001E0000071720EDCF9D006D0040FDDEE22AC45B2
:1001F000AD46AE43AF44748071720E748171720E5D
:10020000DCF974827172AC45AE430F74837172EE87
:100210002CFE0E74837172AE430FDDEF7485717224
:100220000E748171720EDCF97484717222854982B8
:10023000854A83E5428547F0A42582F582E5F035BD
:1002400083F583AD46AE430E0EAF440FC006AC47F8
:10025000E493C394207172A30EDCF5D0060FDDEC9D
:1002600022AB41AD46E54325472403FEAF440FE5ED
:10027000426009FB748671720F1DDBF8748771721E
:100280000F1DE548C39546FCE5469C94026009FCB9
:10029000748871720F1DDCF8748971720F1DED6026
:1002A00007748671720FDDF922AD470D0DAE430E56
:1002B000E5412544954204FFE4719622AD470D0DBA
:1002C000AE430EE5412544954204FF740D7196221C
:1002D000AD470D0DAE430EE5412544954204FF7434
:1002E00005719622E493B4FF012271B5A3E493A3B0
:1002F00071B5E493A371AA80EB9003ED51E47F8084
:100300007E00E471B5DEFBDFF974B271AA229003BE
:10031000F451E49003FB7F50E493A371B5DFF974CB
:10032000B271AA22C006C00775F028EFA42EFEE520
:10033000F03400FF74002EFE74103FFFEE71B5EF35
:1003400071B5742471AAD007D00622C006C0077503
:10035000F028EFA42EFEE5F03400FF74002EFE74AA
:10036000003FFFEE71B5EF71B5742471AAD007D0CC
:100370000622C0E07124D0E071B574C471AA227164
:100380002474B071AAE493A36007C3942071B5806C
:10039000F474B271AA22C0E0714B74B071AAD0E0BB
:1003A00071B5DDFC74B271AA222271C0D290F5A0A1
:1003B000C292D2922271C0C290F5A0C292D2922271
:1003C000C0E0D29075A0FFC291E5A0D291540BC3BA
:1003D000940B70F3D0E0220010402800410000424E
:1003E000280043000084040022000094FF00002441
:1003F0000000B0FF0024240000B0FF0000000F0F39
:100400000C0C0C0000003F3F0000000000003C3CD2
:100410000C0C0C0C0C0C0C0C0C0C0C0C0C0C3C3CBC
:100420000000000C0C0C0F0F0000002A152A152AE2
:10043000152A153F2121212121212121212121219D
:10044000212121212121212121213F446576696338
:10045000652050726F6772616D6D657200000000FB
:1004600000010A040706680441543839533532380C
:1004700037353120202032373634202020323731B2
:10048000323820203237323536202032373531327B
:1004900020200100000A010E040B059D0454455361
:1004A0005420455241534544455241534520202054
:1004B00020202050524F4752414D202020205645A9
:1004C00052494659202020202044554D50202020BC
:1004D000202020200100000A010E040B04DF045438
:1004E0004553542045524153454450524F47524181
:1004F0004D202020205645524946592020202020BA
:0B05000044554D5020202020202020DA
:00000001FF
